{
  "_format": "hh-sol-artifact-1",
  "contractName": "ActionDispatcher",
  "sourceName": "contracts/ActionDispatcher.sol",
  "abi": [
    {
      "anonymous": false,
      "inputs": [
        {
          "indexed": false,
          "internalType": "address",
          "name": "handler",
          "type": "address"
        },
        {
          "indexed": false,
          "internalType": "string",
          "name": "action",
          "type": "string"
        }
      ],
      "name": "HandlerAdded",
      "type": "event"
    },
    {
      "anonymous": false,
      "inputs": [
        {
          "indexed": false,
          "internalType": "address",
          "name": "handler",
          "type": "address"
        },
        {
          "indexed": false,
          "internalType": "string",
          "name": "action",
          "type": "string"
        }
      ],
      "name": "HandlerRemoved",
      "type": "event"
    },
    {
      "anonymous": false,
      "inputs": [
        {
          "indexed": true,
          "internalType": "address",
          "name": "previousOwner",
          "type": "address"
        },
        {
          "indexed": true,
          "internalType": "address",
          "name": "newOwner",
          "type": "address"
        }
      ],
      "name": "OwnershipTransferred",
      "type": "event"
    },
    {
      "anonymous": false,
      "inputs": [],
      "name": "Setup",
      "type": "event"
    },
    {
      "inputs": [
        {
          "internalType": "string",
          "name": "",
          "type": "string"
        }
      ],
      "name": "actions",
      "outputs": [
        {
          "internalType": "address",
          "name": "",
          "type": "address"
        }
      ],
      "stateMutability": "view",
      "type": "function"
    },
    {
      "inputs": [
        {
          "internalType": "address",
          "name": "handler",
          "type": "address"
        },
        {
          "internalType": "string",
          "name": "action",
          "type": "string"
        }
      ],
      "name": "addHandler",
      "outputs": [
        {
          "internalType": "bool",
          "name": "",
          "type": "bool"
        }
      ],
      "stateMutability": "nonpayable",
      "type": "function"
    },
    {
      "inputs": [],
      "name": "cardpayVersion",
      "outputs": [
        {
          "internalType": "string",
          "name": "",
          "type": "string"
        }
      ],
      "stateMutability": "view",
      "type": "function"
    },
    {
      "inputs": [],
      "name": "exchangeAddress",
      "outputs": [
        {
          "internalType": "address",
          "name": "",
          "type": "address"
        }
      ],
      "stateMutability": "view",
      "type": "function"
    },
    {
      "inputs": [
        {
          "internalType": "address",
          "name": "owner",
          "type": "address"
        }
      ],
      "name": "initialize",
      "outputs": [],
      "stateMutability": "nonpayable",
      "type": "function"
    },
    {
      "inputs": [
        {
          "internalType": "address",
          "name": "",
          "type": "address"
        }
      ],
      "name": "isHandler",
      "outputs": [
        {
          "internalType": "bool",
          "name": "",
          "type": "bool"
        }
      ],
      "stateMutability": "view",
      "type": "function"
    },
    {
      "inputs": [
        {
          "internalType": "address payable",
          "name": "from",
          "type": "address"
        },
        {
          "internalType": "uint256",
          "name": "amount",
          "type": "uint256"
        },
        {
          "internalType": "bytes",
          "name": "data",
          "type": "bytes"
        }
      ],
      "name": "onTokenTransfer",
      "outputs": [
        {
          "internalType": "bool",
          "name": "",
          "type": "bool"
        }
      ],
      "stateMutability": "nonpayable",
      "type": "function"
    },
    {
      "inputs": [],
      "name": "owner",
      "outputs": [
        {
          "internalType": "address",
          "name": "",
          "type": "address"
        }
      ],
      "stateMutability": "view",
      "type": "function"
    },
    {
      "inputs": [],
      "name": "prepaidCardManager",
      "outputs": [
        {
          "internalType": "address payable",
          "name": "",
          "type": "address"
        }
      ],
      "stateMutability": "view",
      "type": "function"
    },
    {
      "inputs": [
        {
          "internalType": "string",
          "name": "action",
          "type": "string"
        }
      ],
      "name": "removeHandler",
      "outputs": [
        {
          "internalType": "bool",
          "name": "",
          "type": "bool"
        }
      ],
      "stateMutability": "nonpayable",
      "type": "function"
    },
    {
      "inputs": [],
      "name": "renounceOwnership",
      "outputs": [],
      "stateMutability": "nonpayable",
      "type": "function"
    },
    {
      "inputs": [
        {
          "internalType": "address",
          "name": "_tokenManager",
          "type": "address"
        },
        {
          "internalType": "address",
          "name": "_exchangeAddress",
          "type": "address"
        },
        {
          "internalType": "address payable",
          "name": "_prepaidCardManager",
          "type": "address"
        },
        {
          "internalType": "address",
          "name": "_versionManager",
          "type": "address"
        }
      ],
      "name": "setup",
      "outputs": [],
      "stateMutability": "nonpayable",
      "type": "function"
    },
    {
      "inputs": [],
      "name": "tokenManager",
      "outputs": [
        {
          "internalType": "address",
          "name": "",
          "type": "address"
        }
      ],
      "stateMutability": "view",
      "type": "function"
    },
    {
      "inputs": [
        {
          "internalType": "address",
          "name": "newOwner",
          "type": "address"
        }
      ],
      "name": "transferOwnership",
      "outputs": [],
      "stateMutability": "nonpayable",
      "type": "function"
    },
    {
      "inputs": [],
      "name": "versionManager",
      "outputs": [
        {
          "internalType": "address",
          "name": "",
          "type": "address"
        }
      ],
      "stateMutability": "view",
      "type": "function"
    }
  ],
  "bytecode": "0x608060405234801561001057600080fd5b506115fe806100206000396000f3fe608060405234801561001057600080fd5b50600436106100f55760003560e01c8063715018a611610097578063b571e67c11610066578063b571e67c14610424578063c4d66de8146104a2578063f2fde38b146104c8578063fff3f2c9146104ee57600080fd5b8063715018a6146103755780638da5cb5b1461037d5780639cd016051461038e578063a4c0ed36146103a157600080fd5b8063334f75e3116100d3578063334f75e3146101be57806346ea87af1461028257806354c35a3c146102b85780636f5fac40146102f857600080fd5b80630ae7a5a8146100fa57806315e41711146101295780632a709b14146101ab575b600080fd5b60995461010d906001600160a01b031681565b604080516001600160a01b039092168252519081900360200190f35b6101976004803603602081101561013f57600080fd5b810190602081018135600160201b81111561015957600080fd5b82018360208201111561016b57600080fd5b803590602001918460018302840111600160201b8311171561018c57600080fd5b509092509050610501565b604080519115158252519081900360200190f35b609a5461010d906001600160a01b031681565b61010d600480360360208110156101d457600080fd5b810190602081018135600160201b8111156101ee57600080fd5b82018360208201111561020057600080fd5b803590602001918460018302840111600160201b8311171561022157600080fd5b91908080601f016020809104026020016040519081016040528093929190818152602001838380828437600092019190915250508251602081850181018051609b8252928201919095012093525050546001600160a01b0316925083915050565b6101976004803603602081101561029857600080fd5b50609c602052356001600160a01b03166000908152604090205460ff1681565b6102f6600480360360808110156102ce57600080fd5b506001600160a01b038135811691602081013582169160408201358116916060013516610632565b005b6103006106d5565b6040805160208082528351818301528351919283929083019185019080838360005b8381101561033a578181015183820152602001610322565b50505050905090810190601f1680156103675780820380516001836020036101000a031916815260200191505b509250505060405180910390f35b6102f661080a565b6033546001600160a01b031661010d565b60985461010d906001600160a01b031681565b610197600480360360608110156103b757600080fd5b6001600160a01b0382351691602081013591810190606081016040820135600160201b8111156103e657600080fd5b8201836020820111156103f857600080fd5b803590602001918460018302840111600160201b8311171561041957600080fd5b509092509050610840565b6101976004803603604081101561043a57600080fd5b6001600160a01b038235169190810190604081016020820135600160201b81111561046457600080fd5b82018360208201111561047657600080fd5b803590602001918460018302840111600160201b8311171561049757600080fd5b509092509050610c31565b6102f6600480360360208110156104b857600080fd5b50356001600160a01b0316610d27565b6102f6600480360360208110156104de57600080fd5b50356001600160a01b0316610dea565b609d5461010d906001600160a01b031681565b6033546000906001600160a01b031633146105375760405162461bcd60e51b815260040161052e906114ee565b60405180910390fd5b6000609b84846040518083838082843791909101948552505060405192839003602001909220546001600160a01b03169250508115905061062857609b84846040518083838082843791909101948552505060408051938490036020908101852080546001600160a01b03191690556001600160a01b0386166000818152609c8352839020805460ff19169055855284018181529084018790527fa15858ae37c624e48e7afeb6d1180630b018360fa1e55261179012b1c5e1d51993859350889250879160608201848480828437600083820152604051601f909101601f1916909201829003965090945050505050a15b5060019392505050565b6033546001600160a01b0316331461065c5760405162461bcd60e51b815260040161052e906114ee565b609a80546001600160a01b038087166001600160a01b0319928316179092556098805486841690831617905560998054858416908316179055609d8054928416929091169190911790556040517f587930504fa5b1062f394d90f9dac9ecadd354ed23a97af9ea4e44dff4870a8490600090a150505050565b609d546040805163054fd4d560e41b815290516060926001600160a01b0316916354fd4d50916004808301926000929190829003018186803b15801561071a57600080fd5b505afa15801561072e573d6000803e3d6000fd5b505050506040513d6000823e601f3d908101601f19168201604052602081101561075757600080fd5b8101908080516040519392919084600160201b82111561077657600080fd5b90830190602082018581111561078b57600080fd5b8251600160201b8111828201881017156107a457600080fd5b82525081516020918201929091019080838360005b838110156107d15781810151838201526020016107b9565b50505050905090810190601f1680156107fe5780820380516001836020036101000a031916815260200191505b50604052505050905090565b6033546001600160a01b031633146108345760405162461bcd60e51b815260040161052e906114ee565b61083e6000610e85565b565b609a546040805163c187645360e01b815233600482015290516000926001600160a01b03169163c1876453916024808301926020929190829003018186803b15801561088b57600080fd5b505afa15801561089f573d6000803e3d6000fd5b505050506040513d60208110156108b557600080fd5b5051610908576040805162461bcd60e51b815260206004820152601b60248201527f63616c6c696e6720746f6b656e20697320756e61636365707465640000000000604482015290519081900360640190fd5b6099546040805163a3af99d360e01b81526001600160a01b03888116600483015291519190921691600091839163a3af99d39160248083019286929190829003018186803b15801561095957600080fd5b505afa15801561096d573d6000803e3d6000fd5b505050506040513d6000823e601f3d908101601f1916820160405260c081101561099657600080fd5b815160208301516040808501516060860180519251949693959194939182019284600160201b8211156109c857600080fd5b9083019060208201858111156109dd57600080fd5b8251600160201b8111828201881017156109f657600080fd5b82525081516020918201929091019080838360005b83811015610a23578181015183820152602001610a0b565b50505050905090810190601f168015610a505780820380516001836020036101000a031916815260200191505b50604052509495505050506001600160a01b03831615159150610abc9050576040805162461bcd60e51b815260206004820152601c60248201527f43616c6c6572206973206e6f7420612070726570616964206361726400000000604482015290519081900360640190fd5b60008060008088886080811015610ad257600080fd5b813591602081013591810190606081016040820135600160201b811115610af857600080fd5b820183602082011115610b0a57600080fd5b803590602001918460018302840111600160201b83111715610b2b57600080fd5b91908080601f0160208091040260200160405190810160405280939291908181526020018383808284376000920191909152509295949360208101935035915050600160201b811115610b7d57600080fd5b820183602082011115610b8f57600080fd5b803590602001918460018302840111600160201b83111715610bb057600080fd5b91908080601f016020809104026020016040519081016040528093929190818152602001838380828437600081840152601f19601f82011690508083019250505050505050919291929050505093509350935093506000610c16838d338e898988610ed7565b9050610c2181611000565b9c9b505050505050505050505050565b6033546000906001600160a01b03163314610c5e5760405162461bcd60e51b815260040161052e906114ee565b83609b848460405180838380828437919091019485525050604080516020948190038501812080546001600160a01b0319166001600160a01b039788161790559489166000818152609c8652829020805460ff191660011790558552928401838152928401869052507fa06939166614fd57d68baeeb04385cb07f69c6b1d2fd88ae1f36b9da990ea44492879287925086919060608201848480828437600083820152604051601f909101601f1916909201829003965090945050505050a15060019392505050565b600054610100900460ff16610d425760005460ff1615610d46565b303b155b610da95760405162461bcd60e51b815260206004820152602e60248201527f496e697469616c697a61626c653a20636f6e747261637420697320616c72656160448201526d191e481a5b9a5d1a585b1a5e995960921b606482015260840161052e565b600054610100900460ff16158015610dcb576000805461ffff19166101011790555b610dd482611280565b8015610de6576000805461ff00191690555b5050565b6033546001600160a01b03163314610e145760405162461bcd60e51b815260040161052e906114ee565b6001600160a01b038116610e795760405162461bcd60e51b815260206004820152602660248201527f4f776e61626c653a206e6577206f776e657220697320746865207a65726f206160448201526564647265737360d01b606482015260840161052e565b610e8281610e85565b50565b603380546001600160a01b038381166001600160a01b0319831681179093556040519116919082907f8be0079c531659141344cd1fd0a4f28419497f9722a3daafe3b4186f6b6457e090600090a35050565b610f346040518061010001604052806060815260200160006001600160a01b0316815260200160006001600160a01b0316815260200160008152602001600081526020016000815260200160008019168152602001606081525090565b6000886040516020018082805190602001908083835b60208310610f695780518252601f199092019160209182019101610f4a565b6001836020036101000a0380198251168184511680821785525050505050509050019150506040516020818303038152906040528051906020012090506040518061010001604052808a8152602001896001600160a01b03168152602001886001600160a01b0316815260200187815260200186815260200185815260200182815260200184815250915050979650505050505050565b600061101e8260400151836060015184608001518560a001516112c8565b506000609b83600001516040518082805190602001908083835b602083106110575780518252601f199092019160209182019101611038565b51815160001960209485036101000a019081169019919091161790529201948552506040519384900301909220546001600160a01b031692505050806110dc576040805162461bcd60e51b81526020600482015260156024820152743737903430b7323632b9103337b91030b1ba34b7b760591b604482015290519081900360640190fd5b82604001516001600160a01b0316634000aea0828560600151866020015187608001518860e0015160405160200180846001600160a01b0316815260200183815260200180602001828103825283818151815260200191508051906020019080838360005b83811015611159578181015183820152602001611141565b50505050905090810190601f1680156111865780820380516001836020036101000a031916815260200191505b509450505050506040516020818303038152906040526040518463ffffffff1660e01b815260040180846001600160a01b0316815260200183815260200180602001828103825283818151815260200191508051906020019080838360005b838110156111fd5781810151838201526020016111e5565b50505050905090810190601f16801561122a5780820380516001836020036101000a031916815260200191505b50945050505050602060405180830381600087803b15801561124b57600080fd5b505af115801561125f573d6000803e3d6000fd5b505050506040513d602081101561127557600080fd5b506001949350505050565b600054610100900460ff166112a75760405162461bcd60e51b815260040161052e90611523565b6112af611460565b336001600160a01b03821614610e8257610e8281610e85565b6098546040805163b990e1cd60e01b81526001600160a01b0387811660048301526024820186905260448201859052915160009392909216918391839163b990e1cd91606480820192602092909190829003018186803b15801561132b57600080fd5b505afa15801561133f573d6000803e3d6000fd5b505050506040513d602081101561135557600080fd5b505190508581146113975760405162461bcd60e51b815260040180806020018281038252602d81526020018061159c602d913960400191505060405180910390fd5b816001600160a01b03166330650a0588866040518363ffffffff1660e01b815260040180836001600160a01b031681526020018281526020019250505060206040518083038186803b1580156113ec57600080fd5b505afa158015611400573d6000803e3d6000fd5b505050506040513d602081101561141657600080fd5b50516114535760405162461bcd60e51b815260040180806020018281038252602d81526020018061156f602d913960400191505060405180910390fd5b5060019695505050505050565b600054610100900460ff166114875760405162461bcd60e51b815260040161052e90611523565b61148f611497565b61083e6114be565b600054610100900460ff1661083e5760405162461bcd60e51b815260040161052e90611523565b600054610100900460ff166114e55760405162461bcd60e51b815260040161052e90611523565b61083e33610e85565b6020808252818101527f4f776e61626c653a2063616c6c6572206973206e6f7420746865206f776e6572604082015260600190565b6020808252602b908201527f496e697469616c697a61626c653a20636f6e7472616374206973206e6f74206960408201526a6e697469616c697a696e6760a81b60608201526080019056fe7265717565737465642072617465206973206265796f6e642074686520616c6c6f7761626c6520626f756e6473616d6f756e7420726563656976656420646f6573206e6f74206d61746368207265717565737465642072617465a26469706673582212205810eba0e666bc45172a89eba7d3152f02c7a03fcb14a5ad0351786525f49cea64736f6c63430008090033",
  "linkReferences": {},
  "deployedLinkReferences": {}
}