{
  "_format": "hh-sol-artifact-1",
  "contractName": "BridgeUtils",
  "sourceName": "contracts/BridgeUtils.sol",
  "abi": [
    {
      "anonymous": false,
      "inputs": [
        {
          "indexed": true,
          "internalType": "address",
          "name": "previousOwner",
          "type": "address"
        },
        {
          "indexed": true,
          "internalType": "address",
          "name": "newOwner",
          "type": "address"
        }
      ],
      "name": "OwnershipTransferred",
      "type": "event"
    },
    {
      "anonymous": false,
      "inputs": [],
      "name": "Setup",
      "type": "event"
    },
    {
      "anonymous": false,
      "inputs": [
        {
          "indexed": false,
          "internalType": "address",
          "name": "token",
          "type": "address"
        }
      ],
      "name": "TokenAdded",
      "type": "event"
    },
    {
      "inputs": [
        {
          "internalType": "address",
          "name": "tokenAddr",
          "type": "address"
        }
      ],
      "name": "addToken",
      "outputs": [
        {
          "internalType": "bool",
          "name": "",
          "type": "bool"
        }
      ],
      "stateMutability": "nonpayable",
      "type": "function"
    },
    {
      "inputs": [],
      "name": "bridgeMediator",
      "outputs": [
        {
          "internalType": "address",
          "name": "",
          "type": "address"
        }
      ],
      "stateMutability": "view",
      "type": "function"
    },
    {
      "inputs": [],
      "name": "cardpayVersion",
      "outputs": [
        {
          "internalType": "string",
          "name": "",
          "type": "string"
        }
      ],
      "stateMutability": "view",
      "type": "function"
    },
    {
      "inputs": [],
      "name": "exchange",
      "outputs": [
        {
          "internalType": "address",
          "name": "",
          "type": "address"
        }
      ],
      "stateMutability": "view",
      "type": "function"
    },
    {
      "inputs": [
        {
          "internalType": "address",
          "name": "owner",
          "type": "address"
        }
      ],
      "name": "initialize",
      "outputs": [],
      "stateMutability": "nonpayable",
      "type": "function"
    },
    {
      "inputs": [
        {
          "internalType": "address",
          "name": "supplier",
          "type": "address"
        }
      ],
      "name": "isRegistered",
      "outputs": [
        {
          "internalType": "bool",
          "name": "",
          "type": "bool"
        }
      ],
      "stateMutability": "view",
      "type": "function"
    },
    {
      "inputs": [],
      "name": "owner",
      "outputs": [
        {
          "internalType": "address",
          "name": "",
          "type": "address"
        }
      ],
      "stateMutability": "view",
      "type": "function"
    },
    {
      "inputs": [
        {
          "internalType": "address",
          "name": "supplier",
          "type": "address"
        }
      ],
      "name": "registerSupplier",
      "outputs": [
        {
          "internalType": "address",
          "name": "",
          "type": "address"
        }
      ],
      "stateMutability": "nonpayable",
      "type": "function"
    },
    {
      "inputs": [],
      "name": "renounceOwnership",
      "outputs": [],
      "stateMutability": "nonpayable",
      "type": "function"
    },
    {
      "inputs": [
        {
          "internalType": "address",
          "name": "supplier",
          "type": "address"
        }
      ],
      "name": "safeForSupplier",
      "outputs": [
        {
          "internalType": "address",
          "name": "",
          "type": "address"
        }
      ],
      "stateMutability": "view",
      "type": "function"
    },
    {
      "inputs": [
        {
          "internalType": "address",
          "name": "_tokenManager",
          "type": "address"
        },
        {
          "internalType": "address",
          "name": "_supplierManager",
          "type": "address"
        },
        {
          "internalType": "address",
          "name": "_exchange",
          "type": "address"
        },
        {
          "internalType": "address",
          "name": "_bridgeMediator",
          "type": "address"
        },
        {
          "internalType": "address",
          "name": "_versionManager",
          "type": "address"
        }
      ],
      "name": "setup",
      "outputs": [
        {
          "internalType": "bool",
          "name": "",
          "type": "bool"
        }
      ],
      "stateMutability": "nonpayable",
      "type": "function"
    },
    {
      "inputs": [],
      "name": "supplierManager",
      "outputs": [
        {
          "internalType": "address",
          "name": "",
          "type": "address"
        }
      ],
      "stateMutability": "view",
      "type": "function"
    },
    {
      "inputs": [],
      "name": "tokenManager",
      "outputs": [
        {
          "internalType": "address",
          "name": "",
          "type": "address"
        }
      ],
      "stateMutability": "view",
      "type": "function"
    },
    {
      "inputs": [
        {
          "internalType": "address",
          "name": "newOwner",
          "type": "address"
        }
      ],
      "name": "transferOwnership",
      "outputs": [],
      "stateMutability": "nonpayable",
      "type": "function"
    },
    {
      "inputs": [],
      "name": "versionManager",
      "outputs": [
        {
          "internalType": "address",
          "name": "",
          "type": "address"
        }
      ],
      "stateMutability": "view",
      "type": "function"
    }
  ],
  "bytecode": "0x608060405234801561001057600080fd5b50610c4e806100206000396000f3fe608060405234801561001057600080fd5b50600436106100f55760003560e01c8063c4d66de811610097578063ebc2783811610066578063ebc27838146102b9578063f2fde38b14610301578063f7acc3cf14610327578063fff3f2c91461033a57600080fd5b8063c4d66de814610234578063cf7f5e5f1461025a578063d2f7265a14610280578063d48bfca71461029357600080fd5b80636f5fac40116100d35780636f5fac4014610162578063715018a6146101df5780638da5cb5b146101e9578063c3c5a547146101fa57600080fd5b80630499a8c6146100fa5780632a709b141461013c57806361e2f8641461014f575b600080fd5b6101206004803603602081101561011057600080fd5b50356001600160a01b031661034d565b604080516001600160a01b039092168252519081900360200190f35b609854610120906001600160a01b031681565b609b54610120906001600160a01b031681565b61016a6103d0565b6040805160208082528351818301528351919283929083019185019080838360005b838110156101a457818101518382015260200161018c565b50505050905090810190601f1680156101d15780820380516001836020036101000a031916815260200191505b509250505060405180910390f35b6101e7610507565b005b6033546001600160a01b0316610120565b6102206004803603602081101561021057600080fd5b50356001600160a01b0316610546565b604080519115158252519081900360200190f35b6101e76004803603602081101561024a57600080fd5b50356001600160a01b0316610597565b6101206004803603602081101561027057600080fd5b50356001600160a01b031661065a565b609a54610120906001600160a01b031681565b610220600480360360208110156102a957600080fd5b50356001600160a01b031661071f565b610220600480360360a08110156102cf57600080fd5b506001600160a01b03813581169160208101358216916040820135811691606081013582169160809091013516610790565b6101e76004803603602081101561031757600080fd5b50356001600160a01b0316610848565b609954610120906001600160a01b031681565b609c54610120906001600160a01b031681565b609b546040805163024cd46360e11b81526001600160a01b03848116600483015291516000939290921691630499a8c691602480820192602092909190829003018186803b15801561039e57600080fd5b505afa1580156103b2573d6000803e3d6000fd5b505050506040513d60208110156103c857600080fd5b505192915050565b609c546040805163054fd4d560e41b815290516060926001600160a01b0316916354fd4d50916004808301926000929190829003018186803b15801561041557600080fd5b505afa158015610429573d6000803e3d6000fd5b505050506040513d6000823e601f3d908101601f19168201604052602081101561045257600080fd5b810190808051604051939291908464010000000082111561047257600080fd5b90830190602082018581111561048757600080fd5b82516401000000008111828201881017156104a157600080fd5b82525081516020918201929091019080838360005b838110156104ce5781810151838201526020016104b6565b50505050905090810190601f1680156104fb5780820380516001836020036101000a031916815260200191505b50604052505050905090565b6033546001600160a01b0316331461053a5760405162461bcd60e51b815260040161053190610b98565b60405180910390fd5b61054460006108e3565b565b609b546040805163c3c5a54760e01b81526001600160a01b0384811660048301529151600093929092169163c3c5a54791602480820192602092909190829003018186803b15801561039e57600080fd5b600054610100900460ff166105b25760005460ff16156105b6565b303b155b6106195760405162461bcd60e51b815260206004820152602e60248201527f496e697469616c697a61626c653a20636f6e747261637420697320616c72656160448201526d191e481a5b9a5d1a585b1a5e995960921b6064820152608401610531565b600054610100900460ff1615801561063b576000805461ffff19166101011790555b61064482610935565b8015610656576000805461ff00191690555b5050565b6099546000906001600160a01b031633146106bc576040805162461bcd60e51b815260206004820152601f60248201527f63616c6c6572206973206e6f74206120627269646765206d65646961746f7200604482015290519081900360640190fd5b609b546040805163cf7f5e5f60e01b81526001600160a01b0385811660048301529151919092169163cf7f5e5f9160248083019260209291908290030181600087803b15801561070b57600080fd5b505af11580156103b2573d6000803e3d6000fd5b6099546000906001600160a01b03163314610781576040805162461bcd60e51b815260206004820152601f60248201527f63616c6c6572206973206e6f74206120627269646765206d65646961746f7200604482015290519081900360640190fd5b61078a8261097d565b92915050565b6033546000906001600160a01b031633146107bd5760405162461bcd60e51b815260040161053190610b98565b609a80546001600160a01b03199081166001600160a01b0387811691909117909255609b80548216888416179055609880548216898416179055609980548216868416179055609c80549091169184169190911790556040517f587930504fa5b1062f394d90f9dac9ecadd354ed23a97af9ea4e44dff4870a8490600090a150600195945050505050565b6033546001600160a01b031633146108725760405162461bcd60e51b815260040161053190610b98565b6001600160a01b0381166108d75760405162461bcd60e51b815260206004820152602660248201527f4f776e61626c653a206e6577206f776e657220697320746865207a65726f206160448201526564647265737360d01b6064820152608401610531565b6108e0816108e3565b50565b603380546001600160a01b038381166001600160a01b0319831681179093556040519116919082907f8be0079c531659141344cd1fd0a4f28419497f9722a3daafe3b4186f6b6457e090600090a35050565b600054610100900460ff1661095c5760405162461bcd60e51b815260040161053190610bcd565b610964610b0a565b336001600160a01b038216146108e0576108e0816108e3565b609a5460408051631bdbd80d60e21b81526001600160a01b03848116600483015291516000939290921691636f6f603491602480820192602092909190829003018186803b1580156109ce57600080fd5b505afa1580156109e2573d6000803e3d6000fd5b505050506040513d60208110156109f857600080fd5b5051610a4b576040805162461bcd60e51b815260206004820152601c60248201527f4e6f2065786368616e67652065786973747320666f7220746f6b656e00000000604482015290519081900360640190fd5b60985460408051631320138560e01b81526001600160a01b0385811660048301529151919092169163132013859160248083019260209291908290030181600087803b158015610a9a57600080fd5b505af1158015610aae573d6000803e3d6000fd5b505050506040513d6020811015610ac457600080fd5b5050604080516001600160a01b038416815290517f784c8f4dbf0ffedd6e72c76501c545a70f8b203b30a26ce542bf92ba87c248a49181900360200190a1506001919050565b600054610100900460ff16610b315760405162461bcd60e51b815260040161053190610bcd565b610b39610b41565b610544610b68565b600054610100900460ff166105445760405162461bcd60e51b815260040161053190610bcd565b600054610100900460ff16610b8f5760405162461bcd60e51b815260040161053190610bcd565b610544336108e3565b6020808252818101527f4f776e61626c653a2063616c6c6572206973206e6f7420746865206f776e6572604082015260600190565b6020808252602b908201527f496e697469616c697a61626c653a20636f6e7472616374206973206e6f74206960408201526a6e697469616c697a696e6760a81b60608201526080019056fea2646970667358221220b7473d5b9f06baaf7e26c372affca6d795460b3fe63ed3aabdd70e7fee19a14664736f6c63430008090033",
  "linkReferences": {},
  "deployedLinkReferences": {}
}