{
  "_format": "hh-sol-artifact-1",
  "contractName": "Exchange",
  "sourceName": "contracts/Exchange.sol",
  "abi": [
    {
      "anonymous": false,
      "inputs": [
        {
          "indexed": true,
          "internalType": "string",
          "name": "tokenSymbol",
          "type": "string"
        },
        {
          "indexed": false,
          "internalType": "address",
          "name": "feed",
          "type": "address"
        }
      ],
      "name": "ExchangeCreated",
      "type": "event"
    },
    {
      "anonymous": false,
      "inputs": [
        {
          "indexed": true,
          "internalType": "address",
          "name": "previousOwner",
          "type": "address"
        },
        {
          "indexed": true,
          "internalType": "address",
          "name": "newOwner",
          "type": "address"
        }
      ],
      "name": "OwnershipTransferred",
      "type": "event"
    },
    {
      "anonymous": false,
      "inputs": [],
      "name": "Setup",
      "type": "event"
    },
    {
      "inputs": [],
      "name": "cardTokenSymbol",
      "outputs": [
        {
          "internalType": "string",
          "name": "",
          "type": "string"
        }
      ],
      "stateMutability": "view",
      "type": "function"
    },
    {
      "inputs": [],
      "name": "cardpayVersion",
      "outputs": [
        {
          "internalType": "string",
          "name": "",
          "type": "string"
        }
      ],
      "stateMutability": "view",
      "type": "function"
    },
    {
      "inputs": [
        {
          "internalType": "address",
          "name": "token",
          "type": "address"
        },
        {
          "internalType": "uint256",
          "name": "amount",
          "type": "uint256"
        }
      ],
      "name": "convertFromCARD",
      "outputs": [
        {
          "internalType": "uint256",
          "name": "",
          "type": "uint256"
        }
      ],
      "stateMutability": "view",
      "type": "function"
    },
    {
      "inputs": [
        {
          "internalType": "address",
          "name": "token",
          "type": "address"
        },
        {
          "internalType": "uint256",
          "name": "amount",
          "type": "uint256"
        }
      ],
      "name": "convertFromSpend",
      "outputs": [
        {
          "internalType": "uint256",
          "name": "",
          "type": "uint256"
        }
      ],
      "stateMutability": "view",
      "type": "function"
    },
    {
      "inputs": [
        {
          "internalType": "address",
          "name": "token",
          "type": "address"
        },
        {
          "internalType": "uint256",
          "name": "amount",
          "type": "uint256"
        },
        {
          "internalType": "uint256",
          "name": "usdRate",
          "type": "uint256"
        }
      ],
      "name": "convertFromSpendWithRate",
      "outputs": [
        {
          "internalType": "uint256",
          "name": "",
          "type": "uint256"
        }
      ],
      "stateMutability": "view",
      "type": "function"
    },
    {
      "inputs": [
        {
          "internalType": "address",
          "name": "token",
          "type": "address"
        },
        {
          "internalType": "uint256",
          "name": "amount",
          "type": "uint256"
        }
      ],
      "name": "convertToSpend",
      "outputs": [
        {
          "internalType": "uint256",
          "name": "",
          "type": "uint256"
        }
      ],
      "stateMutability": "view",
      "type": "function"
    },
    {
      "inputs": [
        {
          "internalType": "address",
          "name": "token",
          "type": "address"
        },
        {
          "internalType": "uint256",
          "name": "amount",
          "type": "uint256"
        },
        {
          "internalType": "uint256",
          "name": "usdRate",
          "type": "uint256"
        }
      ],
      "name": "convertToSpendWithRate",
      "outputs": [
        {
          "internalType": "uint256",
          "name": "",
          "type": "uint256"
        }
      ],
      "stateMutability": "view",
      "type": "function"
    },
    {
      "inputs": [
        {
          "internalType": "string",
          "name": "tokenSymbol",
          "type": "string"
        },
        {
          "internalType": "address",
          "name": "feed",
          "type": "address"
        }
      ],
      "name": "createExchange",
      "outputs": [],
      "stateMutability": "nonpayable",
      "type": "function"
    },
    {
      "inputs": [],
      "name": "exchangeRateDecimals",
      "outputs": [
        {
          "internalType": "uint8",
          "name": "",
          "type": "uint8"
        }
      ],
      "stateMutability": "pure",
      "type": "function"
    },
    {
      "inputs": [
        {
          "internalType": "address",
          "name": "token",
          "type": "address"
        }
      ],
      "name": "exchangeRateOf",
      "outputs": [
        {
          "internalType": "uint256",
          "name": "price",
          "type": "uint256"
        },
        {
          "internalType": "uint8",
          "name": "decimals",
          "type": "uint8"
        }
      ],
      "stateMutability": "view",
      "type": "function"
    },
    {
      "inputs": [
        {
          "internalType": "bytes32",
          "name": "",
          "type": "bytes32"
        }
      ],
      "name": "exchanges",
      "outputs": [
        {
          "internalType": "bool",
          "name": "exists",
          "type": "bool"
        },
        {
          "internalType": "string",
          "name": "tokenSymbol",
          "type": "string"
        },
        {
          "internalType": "address",
          "name": "feed",
          "type": "address"
        }
      ],
      "stateMutability": "view",
      "type": "function"
    },
    {
      "inputs": [
        {
          "internalType": "address",
          "name": "token",
          "type": "address"
        }
      ],
      "name": "hasExchange",
      "outputs": [
        {
          "internalType": "bool",
          "name": "",
          "type": "bool"
        }
      ],
      "stateMutability": "view",
      "type": "function"
    },
    {
      "inputs": [
        {
          "internalType": "address",
          "name": "owner",
          "type": "address"
        }
      ],
      "name": "initialize",
      "outputs": [],
      "stateMutability": "nonpayable",
      "type": "function"
    },
    {
      "inputs": [
        {
          "internalType": "address",
          "name": "token",
          "type": "address"
        },
        {
          "internalType": "uint256",
          "name": "requestedRate",
          "type": "uint256"
        }
      ],
      "name": "isAllowableRate",
      "outputs": [
        {
          "internalType": "bool",
          "name": "",
          "type": "bool"
        }
      ],
      "stateMutability": "view",
      "type": "function"
    },
    {
      "inputs": [],
      "name": "owner",
      "outputs": [
        {
          "internalType": "address",
          "name": "",
          "type": "address"
        }
      ],
      "stateMutability": "view",
      "type": "function"
    },
    {
      "inputs": [],
      "name": "rateDriftPercentage",
      "outputs": [
        {
          "internalType": "uint256",
          "name": "",
          "type": "uint256"
        }
      ],
      "stateMutability": "view",
      "type": "function"
    },
    {
      "inputs": [],
      "name": "renounceOwnership",
      "outputs": [],
      "stateMutability": "nonpayable",
      "type": "function"
    },
    {
      "inputs": [
        {
          "internalType": "uint256",
          "name": "_rateDriftPercentage",
          "type": "uint256"
        },
        {
          "internalType": "address",
          "name": "_versionManager",
          "type": "address"
        },
        {
          "internalType": "string",
          "name": "_cardTokenSymbol",
          "type": "string"
        }
      ],
      "name": "setup",
      "outputs": [],
      "stateMutability": "nonpayable",
      "type": "function"
    },
    {
      "inputs": [
        {
          "internalType": "address",
          "name": "newOwner",
          "type": "address"
        }
      ],
      "name": "transferOwnership",
      "outputs": [],
      "stateMutability": "nonpayable",
      "type": "function"
    },
    {
      "inputs": [],
      "name": "versionManager",
      "outputs": [
        {
          "internalType": "address",
          "name": "",
          "type": "address"
        }
      ],
      "stateMutability": "view",
      "type": "function"
    }
  ],
  "bytecode": "0x608060405234801561001057600080fd5b50611b70806100206000396000f3fe608060405234801561001057600080fd5b506004361061012c5760003560e01c80638d760172116100ad578063c33c6fca11610071578063c33c6fca14610479578063c4d66de8146104a5578063d482dda6146104cb578063f2fde38b14610579578063fff3f2c91461059f57600080fd5b80638d7601721461033d5780638da5cb5b14610369578063a9caad6714610392578063b40f759614610415578063b990e1cd1461044757600080fd5b80636f5fac40116100f45780636f5fac40146102495780636f6f6034146102c6578063715018a6146102ec57806380be1152146102f457806382feaa93146102fc57600080fd5b806302e720d9146101315780632b5136011461014c57806330650a051461016457806337b1511a146101a457806351f14b09146101d0575b600080fd5b61013a60995481565b60408051918252519081900360200190f35b60086040805160ff9092168252519081900360200190f35b6101906004803603604081101561017a57600080fd5b506001600160a01b0381351690602001356105b2565b604080519115158252519081900360200190f35b61013a600480360360408110156101ba57600080fd5b506001600160a01b03813516906020013561061b565b610247600480360360408110156101e657600080fd5b810190602081018135600160201b81111561020057600080fd5b82018360208201111561021257600080fd5b803590602001918460018302840111600160201b8311171561023357600080fd5b9193509150356001600160a01b03166106dd565b005b6102516107ea565b6040805160208082528351818301528351919283929083019185019080838360005b8381101561028b578181015183820152602001610273565b50505050905090810190601f1680156102b85780820380516001836020036101000a031916815260200191505b509250505060405180910390f35b610190600480360360208110156102dc57600080fd5b50356001600160a01b031661091f565b610247610a68565b610251610a9e565b6103226004803603602081101561031257600080fd5b50356001600160a01b0316610b2c565b6040805192835260ff90911660208301528051918290030190f35b61013a6004803603604081101561035357600080fd5b506001600160a01b038135169060200135610e6b565b6033546001600160a01b03165b604080516001600160a01b039092168252519081900360200190f35b610247600480360360608110156103a857600080fd5b8135916001600160a01b0360208201351691810190606081016040820135600160201b8111156103d757600080fd5b8201836020820111156103e957600080fd5b803590602001918460018302840111600160201b8311171561040a57600080fd5b509092509050611148565b61013a6004803603606081101561042b57600080fd5b506001600160a01b0381351690602081013590604001356111ce565b61013a6004803603606081101561045d57600080fd5b506001600160a01b038135169060208101359060400135611324565b61013a6004803603604081101561048f57600080fd5b506001600160a01b038135169060200135611467565b610247600480360360208110156104bb57600080fd5b50356001600160a01b03166114cf565b6104e8600480360360208110156104e157600080fd5b5035611592565b60405180841515815260200180602001836001600160a01b03168152602001828103825284818151815260200191508051906020019080838360005b8381101561053c578181015183820152602001610524565b50505050905090810190601f1680156105695780820380516001836020036101000a031916815260200191505b5094505050505060405180910390f35b6102476004803603602081101561058f57600080fd5b50356001600160a01b031661164a565b609a54610376906001600160a01b031681565b6000806105be84610b2c565b50905060008382116105d9576105d482856118bc565b6105e3565b6105e384836118bc565b9050600a6000836105f56008846119b7565b6105ff90856119cd565b61060991906119ec565b60995410159450505050505b92915050565b600080600061062985610b2c565b91509150610635600890565b60ff168160ff16146106785760405162461bcd60e51b8152600401808060200182810382526029815260200180611b126029913960400191505060405180910390fd5b600082116106c9576040805162461bcd60e51b8152602060048201526019602482015278065786368616e676520726174652063616e6e6f74206265203603c1b604482015290519081900360640190fd5b6106d48585846111ce565b95945050505050565b6033546001600160a01b031633146107105760405162461bcd60e51b815260040161070790611a0e565b60405180910390fd5b600083836040518083838082843760408051939091018390039092206000818152609860205292909220805460ff19166001908117825592965061075f9550909101925087915086905061180d565b506000818152609860205260409081902060020180546001600160a01b0319166001600160a01b038516179055518490849080838380828437604080519390910183900383206001600160a01b038916845290519095507f597bc20dd85297180fc9cde3ba243f4b221d3c1e35a6e3bbd8d297685a3eadda945091829003602001925050a250505050565b609a546040805163054fd4d560e41b815290516060926001600160a01b0316916354fd4d50916004808301926000929190829003018186803b15801561082f57600080fd5b505afa158015610843573d6000803e3d6000fd5b505050506040513d6000823e601f3d908101601f19168201604052602081101561086c57600080fd5b8101908080516040519392919084600160201b82111561088b57600080fd5b9083019060208201858111156108a057600080fd5b8251600160201b8111828201881017156108b957600080fd5b82525081516020918201929091019080838360005b838110156108e65781810151838201526020016108ce565b50505050905090810190601f1680156109135780820380516001836020036101000a031916815260200191505b50604052505050905090565b600080826001600160a01b03166395d89b416040518163ffffffff1660e01b815260040160006040518083038186803b15801561095b57600080fd5b505afa15801561096f573d6000803e3d6000fd5b505050506040513d6000823e601f3d908101601f19168201604052602081101561099857600080fd5b8101908080516040519392919084600160201b8211156109b757600080fd5b9083019060208201858111156109cc57600080fd5b8251600160201b8111828201881017156109e557600080fd5b82525081516020918201929091019080838360005b83811015610a125781810151838201526020016109fa565b50505050905090810190601f168015610a3f5780820380516001836020036101000a031916815260200191505b5060409081528451602095860120600090815260989095529093205460ff169695505050505050565b6033546001600160a01b03163314610a925760405162461bcd60e51b815260040161070790611a0e565b610a9c60006116e5565b565b609b8054610aab90611a43565b80601f0160208091040260200160405190810160405280929190818152602001828054610ad790611a43565b8015610b245780601f10610af957610100808354040283529160200191610b24565b820191906000526020600020905b815481529060010190602001808311610b0757829003601f168201915b505050505081565b600080610b388361091f565b610b89576040805162461bcd60e51b815260206004820152601c60248201527f6e6f2065786368616e67652065786973747320666f7220746f6b656e00000000604482015290519081900360640190fd5b600060986000856001600160a01b03166395d89b416040518163ffffffff1660e01b815260040160006040518083038186803b158015610bc857600080fd5b505afa158015610bdc573d6000803e3d6000fd5b505050506040513d6000823e601f3d908101601f191682016040526020811015610c0557600080fd5b8101908080516040519392919084600160201b821115610c2457600080fd5b908301906020820185811115610c3957600080fd5b8251600160201b811182820188101715610c5257600080fd5b82525081516020918201929091019080838360005b83811015610c7f578181015183820152602001610c67565b50505050905090810190601f168015610cac5780820380516001836020036101000a031916815260200191505b5060409081528451602095860120865285850196909652505050908201600020825160608101909352805460ff16151583526001810180549192840191610cf290611a43565b80601f0160208091040260200160405190810160405280929190818152602001828054610d1e90611a43565b8015610d6b5780601f10610d4057610100808354040283529160200191610d6b565b820191906000526020600020905b815481529060010190602001808311610d4e57829003601f168201915b5050509183525050600291909101546001600160a01b03908116602092830152604080840151815163313ce56760e01b81529151949550939184169263313ce56792600480840193829003018186803b158015610dc757600080fd5b505afa158015610ddb573d6000803e3d6000fd5b505050506040513d6020811015610df157600080fd5b50516040805163330cd54360e11b815281519295506001600160a01b03841692636619aa8692600480840193919291829003018186803b158015610e3457600080fd5b505afa158015610e48573d6000803e3d6000fd5b505050506040513d6040811015610e5e57600080fd5b5051959294509192505050565b600080609b8054610e7b90611a43565b905011610ecf576040805162461bcd60e51b815260206004820152601960248201527f6361726420746f6b656e2073796d626f6c206e6f742073657400000000000000604482015290519081900360640190fd5b6000609b60405180828054610ee390611a43565b8015610f265780601f10610f04576101008083540402835291820191610f26565b820191906000526020600020905b815481529060010190602001808311610f12575b5050604080519182900390912060008181526098602052919091205490935060ff169150610f9d9050576040805162461bcd60e51b815260206004820181905260248201527f6e6f2065786368616e67652065786973747320666f7220434152442e43505844604482015290519081900360640190fd5b610fa68461091f565b610ff7576040805162461bcd60e51b815260206004820152601c60248201527f6e6f2065786368616e67652065786973747320666f7220746f6b656e00000000604482015290519081900360640190fd5b600081815260986020908152604080832060020154815163313ce56760e01b815291516001600160a01b039091169392849263313ce5679260048083019392829003018186803b15801561104a57600080fd5b505afa15801561105e573d6000803e3d6000fd5b505050506040513d602081101561107457600080fd5b50516040805163330cd54360e11b815281519293506000926001600160a01b03861692636619aa869260048082019391829003018186803b1580156110b857600080fd5b505afa1580156110cc573d6000803e3d6000fd5b505050506040513d60408110156110e257600080fd5b5051905060006110f282886119cd565b90506000806111008a610b2c565b9092509050600a61111186826119b7565b61111b90846119cd565b61112583836119b7565b61112f90866119cd565b61113991906119ec565b9b9a5050505050505050505050565b6033546001600160a01b031633146111725760405162461bcd60e51b815260040161070790611a0e565b6099849055609a80546001600160a01b0319166001600160a01b03851617905561119e609b838361180d565b506040517f587930504fa5b1062f394d90f9dac9ecadd354ed23a97af9ea4e44dff4870a8490600090a150505050565b6000808211611220576040805162461bcd60e51b8152602060048201526019602482015278065786368616e676520726174652063616e6e6f74206265203603c1b604482015290519081900360640190fd5b600060026008866001600160a01b031663313ce5676040518163ffffffff1660e01b815260040160206040518083038186803b15801561125f57600080fd5b505afa158015611273573d6000803e3d6000fd5b505050506040513d602081101561128957600080fd5b50516112959190611a7e565b61129f9190611aa3565b9050601e8160ff1611156112fa576040805162461bcd60e51b815260206004820152601b60248201527f6578706f6e656e74206f766572666c6f77206973206c696b656c790000000000604482015290519081900360640190fd5b600a61130682826119b7565b61131085876119cd565b61131a91906119ec565b9695505050505050565b6000808211611376576040805162461bcd60e51b8152602060048201526019602482015278065786368616e676520726174652063616e6e6f74206265203603c1b604482015290519081900360640190fd5b600060026008866001600160a01b031663313ce5676040518163ffffffff1660e01b815260040160206040518083038186803b1580156113b557600080fd5b505afa1580156113c9573d6000803e3d6000fd5b505050506040513d60208110156113df57600080fd5b50516113eb9190611a7e565b6113f59190611aa3565b9050601e8160ff161115611450576040805162461bcd60e51b815260206004820152601b60248201527f6578706f6e656e74206f766572666c6f77206973206c696b656c790000000000604482015290519081900360640190fd5b600a8361145d83836119b7565b61131090876119cd565b600080600061147585610b2c565b91509150611481600890565b60ff168160ff16146114c45760405162461bcd60e51b8152600401808060200182810382526029815260200180611b126029913960400191505060405180910390fd5b6106d4858584611324565b600054610100900460ff166114ea5760005460ff16156114ee565b303b155b6115515760405162461bcd60e51b815260206004820152602e60248201527f496e697469616c697a61626c653a20636f6e747261637420697320616c72656160448201526d191e481a5b9a5d1a585b1a5e995960921b6064820152608401610707565b600054610100900460ff16158015611573576000805461ffff19166101011790555b61157c82611737565b801561158e576000805461ff00191690555b5050565b6098602052600090815260409020805460018201805460ff90921692916115b890611a43565b80601f01602080910402602001604051908101604052809291908181526020018280546115e490611a43565b80156116315780601f1061160657610100808354040283529160200191611631565b820191906000526020600020905b81548152906001019060200180831161161457829003601f168201915b505050600290930154919250506001600160a01b031683565b6033546001600160a01b031633146116745760405162461bcd60e51b815260040161070790611a0e565b6001600160a01b0381166116d95760405162461bcd60e51b815260206004820152602660248201527f4f776e61626c653a206e6577206f776e657220697320746865207a65726f206160448201526564647265737360d01b6064820152608401610707565b6116e2816116e5565b50565b603380546001600160a01b038381166001600160a01b0319831681179093556040519116919082907f8be0079c531659141344cd1fd0a4f28419497f9722a3daafe3b4186f6b6457e090600090a35050565b600054610100900460ff1661175e5760405162461bcd60e51b815260040161070790611ac6565b61176661177f565b336001600160a01b038216146116e2576116e2816116e5565b600054610100900460ff166117a65760405162461bcd60e51b815260040161070790611ac6565b6117ae6117b6565b610a9c6117dd565b600054610100900460ff16610a9c5760405162461bcd60e51b815260040161070790611ac6565b600054610100900460ff166118045760405162461bcd60e51b815260040161070790611ac6565b610a9c336116e5565b82805461181990611a43565b90600052602060002090601f01602090048101928261183b5760008555611881565b82601f106118545782800160ff19823516178555611881565b82800160010185558215611881579182015b82811115611881578235825591602001919060010190611866565b5061188d929150611891565b5090565b5b8082111561188d5760008155600101611892565b634e487b7160e01b600052601160045260246000fd5b6000828210156118ce576118ce6118a6565b500390565b600181815b8085111561190e5781600019048211156118f4576118f46118a6565b8085161561190157918102915b93841c93908002906118d8565b509250929050565b60008261192557506001610615565b8161193257506000610615565b816001811461194857600281146119525761196e565b6001915050610615565b60ff841115611963576119636118a6565b50506001821b610615565b5060208310610133831016604e8410600b8410161715611991575081810a610615565b61199b83836118d3565b80600019048211156119af576119af6118a6565b029392505050565b60006119c660ff841683611916565b9392505050565b60008160001904831182151516156119e7576119e76118a6565b500290565b600082611a0957634e487b7160e01b600052601260045260246000fd5b500490565b6020808252818101527f4f776e61626c653a2063616c6c6572206973206e6f7420746865206f776e6572604082015260600190565b600181811c90821680611a5757607f821691505b60208210811415611a7857634e487b7160e01b600052602260045260246000fd5b50919050565b600060ff821660ff84168060ff03821115611a9b57611a9b6118a6565b019392505050565b600060ff821660ff841680821015611abd57611abd6118a6565b90039392505050565b6020808252602b908201527f496e697469616c697a61626c653a20636f6e7472616374206973206e6f74206960408201526a6e697469616c697a696e6760a81b60608201526080019056fe756e657870656374656420646563696d616c732076616c756520666f7220746f6b656e207072696365a2646970667358221220c3105ac25da666e152ac404c627112d85bf571e4873b10e27e0913bf251a88b364736f6c63430008090033",
  "linkReferences": {},
  "deployedLinkReferences": {}
}