{
  "_format": "hh-sol-artifact-1",
  "contractName": "MerchantManager",
  "sourceName": "contracts/MerchantManager.sol",
  "abi": [
    {
      "anonymous": false,
      "inputs": [
        {
          "indexed": false,
          "internalType": "address",
          "name": "merchant",
          "type": "address"
        },
        {
          "indexed": false,
          "internalType": "address",
          "name": "merchantSafe",
          "type": "address"
        },
        {
          "indexed": false,
          "internalType": "string",
          "name": "infoDID",
          "type": "string"
        }
      ],
      "name": "MerchantCreation",
      "type": "event"
    },
    {
      "anonymous": false,
      "inputs": [
        {
          "indexed": true,
          "internalType": "address",
          "name": "previousOwner",
          "type": "address"
        },
        {
          "indexed": true,
          "internalType": "address",
          "name": "newOwner",
          "type": "address"
        }
      ],
      "name": "OwnershipTransferred",
      "type": "event"
    },
    {
      "anonymous": false,
      "inputs": [],
      "name": "Setup",
      "type": "event"
    },
    {
      "inputs": [],
      "name": "actionDispatcher",
      "outputs": [
        {
          "internalType": "address",
          "name": "",
          "type": "address"
        }
      ],
      "stateMutability": "view",
      "type": "function"
    },
    {
      "inputs": [],
      "name": "cardpayVersion",
      "outputs": [
        {
          "internalType": "string",
          "name": "",
          "type": "string"
        }
      ],
      "stateMutability": "view",
      "type": "function"
    },
    {
      "inputs": [],
      "name": "deprecatedMerchantManager",
      "outputs": [
        {
          "internalType": "address",
          "name": "",
          "type": "address"
        }
      ],
      "stateMutability": "view",
      "type": "function"
    },
    {
      "inputs": [],
      "name": "getMerchantAddresses",
      "outputs": [
        {
          "internalType": "address[]",
          "name": "",
          "type": "address[]"
        }
      ],
      "stateMutability": "view",
      "type": "function"
    },
    {
      "inputs": [],
      "name": "gnosisProxyFactory",
      "outputs": [
        {
          "internalType": "address",
          "name": "",
          "type": "address"
        }
      ],
      "stateMutability": "view",
      "type": "function"
    },
    {
      "inputs": [],
      "name": "gnosisSafe",
      "outputs": [
        {
          "internalType": "address",
          "name": "",
          "type": "address"
        }
      ],
      "stateMutability": "view",
      "type": "function"
    },
    {
      "inputs": [
        {
          "internalType": "address",
          "name": "owner",
          "type": "address"
        }
      ],
      "name": "initialize",
      "outputs": [],
      "stateMutability": "nonpayable",
      "type": "function"
    },
    {
      "inputs": [
        {
          "internalType": "address",
          "name": "merchantSafe",
          "type": "address"
        }
      ],
      "name": "isMerchantSafe",
      "outputs": [
        {
          "internalType": "bool",
          "name": "",
          "type": "bool"
        }
      ],
      "stateMutability": "view",
      "type": "function"
    },
    {
      "inputs": [
        {
          "internalType": "address",
          "name": "",
          "type": "address"
        }
      ],
      "name": "merchantSafeInfoDIDs",
      "outputs": [
        {
          "internalType": "string",
          "name": "",
          "type": "string"
        }
      ],
      "stateMutability": "view",
      "type": "function"
    },
    {
      "inputs": [
        {
          "internalType": "address",
          "name": "",
          "type": "address"
        }
      ],
      "name": "merchantSafes",
      "outputs": [
        {
          "internalType": "address",
          "name": "",
          "type": "address"
        }
      ],
      "stateMutability": "view",
      "type": "function"
    },
    {
      "inputs": [
        {
          "internalType": "address",
          "name": "merchant",
          "type": "address"
        }
      ],
      "name": "merchantSafesForMerchant",
      "outputs": [
        {
          "internalType": "address[]",
          "name": "",
          "type": "address[]"
        }
      ],
      "stateMutability": "view",
      "type": "function"
    },
    {
      "inputs": [],
      "name": "owner",
      "outputs": [
        {
          "internalType": "address",
          "name": "",
          "type": "address"
        }
      ],
      "stateMutability": "view",
      "type": "function"
    },
    {
      "inputs": [
        {
          "internalType": "address",
          "name": "merchant",
          "type": "address"
        },
        {
          "internalType": "string",
          "name": "infoDID",
          "type": "string"
        }
      ],
      "name": "registerMerchant",
      "outputs": [
        {
          "internalType": "address",
          "name": "",
          "type": "address"
        }
      ],
      "stateMutability": "nonpayable",
      "type": "function"
    },
    {
      "inputs": [],
      "name": "renounceOwnership",
      "outputs": [],
      "stateMutability": "nonpayable",
      "type": "function"
    },
    {
      "inputs": [
        {
          "internalType": "address",
          "name": "_actionDispatcher",
          "type": "address"
        },
        {
          "internalType": "address",
          "name": "_gsMasterCopy",
          "type": "address"
        },
        {
          "internalType": "address",
          "name": "_gsProxyFactory",
          "type": "address"
        },
        {
          "internalType": "address",
          "name": "_versionManager",
          "type": "address"
        }
      ],
      "name": "setup",
      "outputs": [],
      "stateMutability": "nonpayable",
      "type": "function"
    },
    {
      "inputs": [
        {
          "internalType": "address",
          "name": "newOwner",
          "type": "address"
        }
      ],
      "name": "transferOwnership",
      "outputs": [],
      "stateMutability": "nonpayable",
      "type": "function"
    },
    {
      "inputs": [],
      "name": "versionManager",
      "outputs": [
        {
          "internalType": "address",
          "name": "",
          "type": "address"
        }
      ],
      "stateMutability": "view",
      "type": "function"
    }
  ],
  "bytecode": "0x608060405234801561001057600080fd5b50611176806100206000396000f3fe608060405234801561001057600080fd5b506004361061010b5760003560e01c80638da5cb5b116100a2578063b991304e11610071578063b991304e14610395578063c4d66de8146103e1578063f16e307514610407578063f2fde38b1461041a578063fff3f2c91461044057600080fd5b80638da5cb5b146102bb578063a6c8a384146102cc578063a84173ae1461034c578063b956ab081461035f57600080fd5b80636f5fac40116100de5780636f5fac4014610290578063715018a614610298578063777bb10f146102a0578063831b9138146102a857600080fd5b80631372caec146101105780633df7b38c146101ab57806354c35a3c146101da57806354dcd2a01461021a575b600080fd5b6101366004803603602081101561012657600080fd5b50356001600160a01b0316610453565b6040805160208082528351818301528351919283929083019185019080838360005b83811015610170578181015183820152602001610158565b50505050905090810190601f16801561019d5780820380516001836020036101000a031916815260200191505b509250505060405180910390f35b60cd546101be906001600160a01b031681565b604080516001600160a01b039092168252519081900360200190f35b610218600480360360808110156101f057600080fd5b506001600160a01b0381358116916020810135821691604082013581169160600135166104ed565b005b6102406004803603602081101561023057600080fd5b50356001600160a01b0316610599565b60408051602080825283518183015283519192839290830191858101910280838360005b8381101561027c578181015183820152602001610264565b505050509050019250505060405180910390f35b6101366105c3565b6102186106fa565b610240610730565b60cc546101be906001600160a01b031681565b6033546001600160a01b03166101be565b6101be600480360360408110156102e257600080fd5b6001600160a01b03823516919081019060408101602082013564010000000081111561030d57600080fd5b82018360208201111561031f57600080fd5b8035906020019184600183028401116401000000008311171561034157600080fd5b509092509050610741565b6098546101be906001600160a01b031681565b6101be6004803603602081101561037557600080fd5b5060cf6020526001600160a01b0390358116600090815260409020541681565b6103cd600480360360208110156103ab57600080fd5b50356001600160a01b03908116600090815260cf602052604090205416151590565b604080519115158252519081900360200190f35b610218600480360360208110156103f757600080fd5b50356001600160a01b031661097e565b6099546101be906001600160a01b031681565b6102186004803603602081101561043057600080fd5b50356001600160a01b0316610a41565b60d1546101be906001600160a01b031681565b60d0602052600090815260409020805461046c90611039565b80601f016020809104026020016040519081016040528092919081815260200182805461049890611039565b80156104e55780601f106104ba576101008083540402835291602001916104e5565b820191906000526020600020905b8154815290600101906020018083116104c857829003601f168201915b505050505081565b6033546001600160a01b031633146105205760405162461bcd60e51b815260040161051790611074565b60405180910390fd5b60cd80546001600160a01b03199081166001600160a01b038781169190911790925560d180548216848416179055609980548216858416179055609880549091169185169190911790556040517f587930504fa5b1062f394d90f9dac9ecadd354ed23a97af9ea4e44dff4870a8490600090a150505050565b6001600160a01b038116600090815260ce602052604090206060906105bd90610adc565b92915050565b60d1546040805163054fd4d560e41b815290516060926001600160a01b0316916354fd4d50916004808301926000929190829003018186803b15801561060857600080fd5b505afa15801561061c573d6000803e3d6000fd5b505050506040513d6000823e601f3d908101601f19168201604052602081101561064557600080fd5b810190808051604051939291908464010000000082111561066557600080fd5b90830190602082018581111561067a57600080fd5b825164010000000081118282018810171561069457600080fd5b82525081516020918201929091019080838360005b838110156106c15781810151838201526020016106a9565b50505050905090810190601f1680156106ee5780820380516001836020036101000a031916815260200191505b50604052505050905090565b6033546001600160a01b031633146107245760405162461bcd60e51b815260040161051790611074565b61072e6000610af0565b565b606061073c60d2610adc565b905090565b6033546000906001600160a01b03163314806107d0575060cd54604080516346ea87af60e01b815233600482015290516001600160a01b03909216916346ea87af91602480820192602092909190829003018186803b1580156107a357600080fd5b505afa1580156107b7573d6000803e3d6000fd5b505050506040513d60208110156107cd57600080fd5b50515b61080b5760405162461bcd60e51b815260040180806020018281038252603681526020018061110b6036913960400191505060405180910390fd5b6001600160a01b038416610866576040805162461bcd60e51b815260206004820152601860248201527f7a65726f2061646472657373206e6f7420616c6c6f7765640000000000000000604482015290519081900360640190fd5b600061087185610b42565b6001600160a01b03818116600090815260cf6020526040902080546001600160a01b03191691881691909117905590506108ac60d286610ba6565b506001600160a01b038516600090815260ce602052604090206108cf9082610ba6565b506001600160a01b038116600090815260d0602052604090206108f3908585610fa0565b507fae13e2f004fee588f118fbad2cfbc6d8060126070936b7fb4f8e857e63cb3a078582868660405180856001600160a01b03168152602001846001600160a01b03168152602001806020018281038252848482818152602001925080828437600083820152604051601f909101601f191690920182900397509095505050505050a1949350505050565b600054610100900460ff166109995760005460ff161561099d565b303b155b610a005760405162461bcd60e51b815260206004820152602e60248201527f496e697469616c697a61626c653a20636f6e747261637420697320616c72656160448201526d191e481a5b9a5d1a585b1a5e995960921b6064820152608401610517565b600054610100900460ff16158015610a22576000805461ffff19166101011790555b610a2b82610bbb565b8015610a3d576000805461ff00191690555b5050565b6033546001600160a01b03163314610a6b5760405162461bcd60e51b815260040161051790611074565b6001600160a01b038116610ad05760405162461bcd60e51b815260206004820152602660248201527f4f776e61626c653a206e6577206f776e657220697320746865207a65726f206160448201526564647265737360d01b6064820152608401610517565b610ad981610af0565b50565b60606000610ae983610c03565b9392505050565b603380546001600160a01b038381166001600160a01b0319831681179093556040519116919082907f8be0079c531659141344cd1fd0a4f28419497f9722a3daafe3b4186f6b6457e090600090a35050565b604080516001808252818301909252600091829190602080830190803683370190505090508281600081518110610b7b57610b7b6110a9565b60200260200101906001600160a01b031690816001600160a01b031681525050610ae9816001610c5f565b6000610ae9836001600160a01b038416610ec3565b600054610100900460ff16610be25760405162461bcd60e51b8152600401610517906110bf565b610bea610f12565b336001600160a01b03821614610ad957610ad981610af0565b606081600001805480602002602001604051908101604052809291908181526020018280548015610c5357602002820191906000526020600020905b815481526020019060010190808311610c3f575b50505050509050919050565b60008063b63e800d60e01b848460008060008060006040516024018080602001888152602001876001600160a01b0316815260200180602001876001600160a01b03168152602001866001600160a01b03168152602001858152602001846001600160a01b0316815260200183810383528a818151815260200191508051906020019060200280838360005b83811015610d03578181015183820152602001610ceb565b505050509050018381038252600081526020019950505050505050505050604051602081830303815290604052906001600160e01b0319166020820180516001600160e01b03838183161783525050505090506000609960009054906101000a90046001600160a01b03166001600160a01b03166361b69abd609860009054906101000a90046001600160a01b0316846040518363ffffffff1660e01b815260040180836001600160a01b0316815260200180602001828103825283818151815260200191508051906020019080838360005b83811015610dee578181015183820152602001610dd6565b50505050905090810190601f168015610e1b5780820380516001836020036101000a031916815260200191505b509350505050602060405180830381600087803b158015610e3b57600080fd5b505af1158015610e4f573d6000803e3d6000fd5b505050506040513d6020811015610e6557600080fd5b505190506001600160a01b038116610ebb576040805162461bcd60e51b815260206004820152601460248201527310dc99585d1948184814d859994819985a5b195960621b604482015290519081900360640190fd5b949350505050565b6000818152600183016020526040812054610f0a575081546001818101845560008481526020808220909301849055845484825282860190935260409020919091556105bd565b5060006105bd565b600054610100900460ff16610f395760405162461bcd60e51b8152600401610517906110bf565b610f41610f49565b61072e610f70565b600054610100900460ff1661072e5760405162461bcd60e51b8152600401610517906110bf565b600054610100900460ff16610f975760405162461bcd60e51b8152600401610517906110bf565b61072e33610af0565b828054610fac90611039565b90600052602060002090601f016020900481019282610fce5760008555611014565b82601f10610fe75782800160ff19823516178555611014565b82800160010185558215611014579182015b82811115611014578235825591602001919060010190610ff9565b50611020929150611024565b5090565b5b808211156110205760008155600101611025565b600181811c9082168061104d57607f821691505b6020821081141561106e57634e487b7160e01b600052602260045260246000fd5b50919050565b6020808252818101527f4f776e61626c653a2063616c6c6572206973206e6f7420746865206f776e6572604082015260600190565b634e487b7160e01b600052603260045260246000fd5b6020808252602b908201527f496e697469616c697a61626c653a20636f6e7472616374206973206e6f74206960408201526a6e697469616c697a696e6760a81b60608201526080019056fe63616c6c6572206973206e6f742061207265676973746572656420616374696f6e2068616e646c6572206e6f7220616e206f776e6572a2646970667358221220181b24a8a14a0cf32269c1b67deabe27add62d946d47d5e8f7dcea99119a44c064736f6c63430008090033",
  "linkReferences": {},
  "deployedLinkReferences": {}
}