{
  "_format": "hh-sol-artifact-1",
  "contractName": "PrepaidCardMarket",
  "sourceName": "contracts/PrepaidCardMarket.sol",
  "abi": [
    {
      "anonymous": false,
      "inputs": [
        {
          "indexed": false,
          "internalType": "address",
          "name": "issuer",
          "type": "address"
        },
        {
          "indexed": false,
          "internalType": "address",
          "name": "issuingToken",
          "type": "address"
        },
        {
          "indexed": false,
          "internalType": "bytes32",
          "name": "sku",
          "type": "bytes32"
        },
        {
          "indexed": false,
          "internalType": "uint256",
          "name": "askPrice",
          "type": "uint256"
        }
      ],
      "name": "AskSet",
      "type": "event"
    },
    {
      "anonymous": false,
      "inputs": [
        {
          "indexed": false,
          "internalType": "address",
          "name": "prepaidCard",
          "type": "address"
        },
        {
          "indexed": false,
          "internalType": "address",
          "name": "issuer",
          "type": "address"
        },
        {
          "indexed": false,
          "internalType": "bytes32",
          "name": "sku",
          "type": "bytes32"
        }
      ],
      "name": "ItemRemoved",
      "type": "event"
    },
    {
      "anonymous": false,
      "inputs": [
        {
          "indexed": false,
          "internalType": "address",
          "name": "prepaidCard",
          "type": "address"
        },
        {
          "indexed": false,
          "internalType": "address",
          "name": "issuer",
          "type": "address"
        },
        {
          "indexed": false,
          "internalType": "address",
          "name": "issuingToken",
          "type": "address"
        },
        {
          "indexed": false,
          "internalType": "uint256",
          "name": "faceValue",
          "type": "uint256"
        },
        {
          "indexed": false,
          "internalType": "string",
          "name": "customizationDID",
          "type": "string"
        },
        {
          "indexed": false,
          "internalType": "bytes32",
          "name": "sku",
          "type": "bytes32"
        }
      ],
      "name": "ItemSet",
      "type": "event"
    },
    {
      "anonymous": false,
      "inputs": [
        {
          "indexed": true,
          "internalType": "address",
          "name": "previousOwner",
          "type": "address"
        },
        {
          "indexed": true,
          "internalType": "address",
          "name": "newOwner",
          "type": "address"
        }
      ],
      "name": "OwnershipTransferred",
      "type": "event"
    },
    {
      "anonymous": false,
      "inputs": [
        {
          "indexed": false,
          "internalType": "bool",
          "name": "paused",
          "type": "bool"
        }
      ],
      "name": "PausedToggled",
      "type": "event"
    },
    {
      "anonymous": false,
      "inputs": [
        {
          "indexed": false,
          "internalType": "address",
          "name": "prepaidCard",
          "type": "address"
        },
        {
          "indexed": false,
          "internalType": "address",
          "name": "customer",
          "type": "address"
        },
        {
          "indexed": false,
          "internalType": "bytes32",
          "name": "sku",
          "type": "bytes32"
        },
        {
          "indexed": false,
          "internalType": "uint256",
          "name": "askPrice",
          "type": "uint256"
        }
      ],
      "name": "ProvisionedPrepaidCard",
      "type": "event"
    },
    {
      "anonymous": false,
      "inputs": [],
      "name": "Setup",
      "type": "event"
    },
    {
      "inputs": [],
      "name": "actionDispatcher",
      "outputs": [
        {
          "internalType": "address",
          "name": "",
          "type": "address"
        }
      ],
      "stateMutability": "view",
      "type": "function"
    },
    {
      "inputs": [
        {
          "internalType": "bytes32",
          "name": "",
          "type": "bytes32"
        }
      ],
      "name": "asks",
      "outputs": [
        {
          "internalType": "uint256",
          "name": "",
          "type": "uint256"
        }
      ],
      "stateMutability": "view",
      "type": "function"
    },
    {
      "inputs": [],
      "name": "cardpayVersion",
      "outputs": [
        {
          "internalType": "string",
          "name": "",
          "type": "string"
        }
      ],
      "stateMutability": "view",
      "type": "function"
    },
    {
      "inputs": [
        {
          "internalType": "bytes32",
          "name": "sku",
          "type": "bytes32"
        }
      ],
      "name": "getInventory",
      "outputs": [
        {
          "internalType": "address[]",
          "name": "",
          "type": "address[]"
        }
      ],
      "stateMutability": "view",
      "type": "function"
    },
    {
      "inputs": [
        {
          "internalType": "bytes32",
          "name": "sku",
          "type": "bytes32"
        }
      ],
      "name": "getQuantity",
      "outputs": [
        {
          "internalType": "uint256",
          "name": "",
          "type": "uint256"
        }
      ],
      "stateMutability": "view",
      "type": "function"
    },
    {
      "inputs": [
        {
          "internalType": "address",
          "name": "issuer",
          "type": "address"
        },
        {
          "internalType": "address",
          "name": "token",
          "type": "address"
        },
        {
          "internalType": "uint256",
          "name": "faceValue",
          "type": "uint256"
        },
        {
          "internalType": "string",
          "name": "customizationDID",
          "type": "string"
        }
      ],
      "name": "getSKU",
      "outputs": [
        {
          "internalType": "bytes32",
          "name": "",
          "type": "bytes32"
        }
      ],
      "stateMutability": "pure",
      "type": "function"
    },
    {
      "inputs": [
        {
          "internalType": "bytes32",
          "name": "sku",
          "type": "bytes32"
        }
      ],
      "name": "getSkuInfo",
      "outputs": [
        {
          "internalType": "address",
          "name": "issuer",
          "type": "address"
        },
        {
          "internalType": "address",
          "name": "issuingToken",
          "type": "address"
        },
        {
          "internalType": "uint256",
          "name": "faceValue",
          "type": "uint256"
        },
        {
          "internalType": "string",
          "name": "customizationDID",
          "type": "string"
        }
      ],
      "stateMutability": "view",
      "type": "function"
    },
    {
      "inputs": [
        {
          "internalType": "address",
          "name": "owner",
          "type": "address"
        }
      ],
      "name": "initialize",
      "outputs": [],
      "stateMutability": "nonpayable",
      "type": "function"
    },
    {
      "inputs": [
        {
          "internalType": "bytes",
          "name": "",
          "type": "bytes"
        },
        {
          "internalType": "bytes",
          "name": "signature",
          "type": "bytes"
        }
      ],
      "name": "isValidSignature",
      "outputs": [
        {
          "internalType": "bytes4",
          "name": "",
          "type": "bytes4"
        }
      ],
      "stateMutability": "view",
      "type": "function"
    },
    {
      "inputs": [],
      "name": "owner",
      "outputs": [
        {
          "internalType": "address",
          "name": "",
          "type": "address"
        }
      ],
      "stateMutability": "view",
      "type": "function"
    },
    {
      "inputs": [],
      "name": "paused",
      "outputs": [
        {
          "internalType": "bool",
          "name": "",
          "type": "bool"
        }
      ],
      "stateMutability": "view",
      "type": "function"
    },
    {
      "inputs": [],
      "name": "prepaidCardManagerAddress",
      "outputs": [
        {
          "internalType": "address",
          "name": "",
          "type": "address"
        }
      ],
      "stateMutability": "view",
      "type": "function"
    },
    {
      "inputs": [
        {
          "internalType": "address",
          "name": "customer",
          "type": "address"
        },
        {
          "internalType": "bytes32",
          "name": "sku",
          "type": "bytes32"
        }
      ],
      "name": "provisionPrepaidCard",
      "outputs": [
        {
          "internalType": "bool",
          "name": "",
          "type": "bool"
        }
      ],
      "stateMutability": "nonpayable",
      "type": "function"
    },
    {
      "inputs": [
        {
          "internalType": "address",
          "name": "",
          "type": "address"
        }
      ],
      "name": "provisionedCards",
      "outputs": [
        {
          "internalType": "address",
          "name": "",
          "type": "address"
        }
      ],
      "stateMutability": "view",
      "type": "function"
    },
    {
      "inputs": [],
      "name": "provisioner",
      "outputs": [
        {
          "internalType": "address",
          "name": "",
          "type": "address"
        }
      ],
      "stateMutability": "view",
      "type": "function"
    },
    {
      "inputs": [
        {
          "internalType": "address",
          "name": "issuer",
          "type": "address"
        },
        {
          "internalType": "address[]",
          "name": "prepaidCards",
          "type": "address[]"
        }
      ],
      "name": "removeItems",
      "outputs": [
        {
          "internalType": "bool",
          "name": "",
          "type": "bool"
        }
      ],
      "stateMutability": "nonpayable",
      "type": "function"
    },
    {
      "inputs": [],
      "name": "renounceOwnership",
      "outputs": [],
      "stateMutability": "nonpayable",
      "type": "function"
    },
    {
      "inputs": [
        {
          "internalType": "address",
          "name": "issuer",
          "type": "address"
        },
        {
          "internalType": "bytes32",
          "name": "sku",
          "type": "bytes32"
        },
        {
          "internalType": "uint256",
          "name": "askPrice",
          "type": "uint256"
        }
      ],
      "name": "setAsk",
      "outputs": [
        {
          "internalType": "bool",
          "name": "",
          "type": "bool"
        }
      ],
      "stateMutability": "nonpayable",
      "type": "function"
    },
    {
      "inputs": [
        {
          "internalType": "address",
          "name": "issuer",
          "type": "address"
        },
        {
          "internalType": "address",
          "name": "prepaidCard",
          "type": "address"
        }
      ],
      "name": "setItem",
      "outputs": [
        {
          "internalType": "bool",
          "name": "",
          "type": "bool"
        }
      ],
      "stateMutability": "nonpayable",
      "type": "function"
    },
    {
      "inputs": [
        {
          "internalType": "bool",
          "name": "_paused",
          "type": "bool"
        }
      ],
      "name": "setPaused",
      "outputs": [],
      "stateMutability": "nonpayable",
      "type": "function"
    },
    {
      "inputs": [
        {
          "internalType": "address",
          "name": "_prepaidCardManager",
          "type": "address"
        },
        {
          "internalType": "address",
          "name": "_actionDispatcher",
          "type": "address"
        },
        {
          "internalType": "address",
          "name": "_provisioner",
          "type": "address"
        },
        {
          "internalType": "address",
          "name": "_versionManager",
          "type": "address"
        }
      ],
      "name": "setup",
      "outputs": [],
      "stateMutability": "nonpayable",
      "type": "function"
    },
    {
      "inputs": [
        {
          "internalType": "address",
          "name": "prepaidCard",
          "type": "address"
        }
      ],
      "name": "skuForPrepaidCard",
      "outputs": [
        {
          "internalType": "bytes32",
          "name": "",
          "type": "bytes32"
        }
      ],
      "stateMutability": "view",
      "type": "function"
    },
    {
      "inputs": [
        {
          "internalType": "bytes32",
          "name": "",
          "type": "bytes32"
        }
      ],
      "name": "skus",
      "outputs": [
        {
          "internalType": "address",
          "name": "issuer",
          "type": "address"
        },
        {
          "internalType": "address",
          "name": "issuingToken",
          "type": "address"
        },
        {
          "internalType": "uint256",
          "name": "faceValue",
          "type": "uint256"
        },
        {
          "internalType": "string",
          "name": "customizationDID",
          "type": "string"
        }
      ],
      "stateMutability": "view",
      "type": "function"
    },
    {
      "inputs": [
        {
          "internalType": "address",
          "name": "newOwner",
          "type": "address"
        }
      ],
      "name": "transferOwnership",
      "outputs": [],
      "stateMutability": "nonpayable",
      "type": "function"
    },
    {
      "inputs": [],
      "name": "versionManager",
      "outputs": [
        {
          "internalType": "address",
          "name": "",
          "type": "address"
        }
      ],
      "stateMutability": "view",
      "type": "function"
    }
  ],
  "bytecode": "0x608060405234801561001057600080fd5b5061286d806100206000396000f3fe608060405234801561001057600080fd5b50600436106101735760003560e01c80637bdb60ec116100de578063dac6f7a011610097578063f2fde38b11610071578063f2fde38b146107b8578063fc8d95a9146107de578063fe2e8c9c14610814578063fff3f2c91461083e57600080fd5b8063dac6f7a014610747578063e159f6e514610764578063ec6aec821461078a57600080fd5b80637bdb60ec146105c95780637e94eab9146105fb5780638da5cb5b1461060e578063c4d66de81461061f578063d900f90f14610645578063d930e3f11461071b57600080fd5b80633df7b38c116101305780633df7b38c146104c957806354c35a3c146104dc5780635c975abb1461051a5780636adf1af4146105275780636f5fac4014610544578063715018a6146105c157600080fd5b806302b743b614610178578063168fb437146101a757806316c38b3c1461021457806320c13b0b146102355780632a8a45bc1461037b5780633bd0e4af14610437575b600080fd5b60995461018b906001600160a01b031681565b604080516001600160a01b039092168252519081900360200190f35b6101c4600480360360208110156101bd57600080fd5b5035610856565b60408051602080825283518183015283519192839290830191858101910280838360005b838110156102005781810151838201526020016101e8565b505050509050019250505060405180910390f35b6102336004803603602081101561022a57600080fd5b50351515610876565b005b61035e6004803603604081101561024b57600080fd5b810190602081018135600160201b81111561026557600080fd5b82018360208201111561027757600080fd5b803590602001918460018302840111600160201b8311171561029857600080fd5b91908080601f0160208091040260200160405190810160405280939291908181526020018383808284376000920191909152509295949360208101935035915050600160201b8111156102ea57600080fd5b8201836020820111156102fc57600080fd5b803590602001918460018302840111600160201b8311171561031d57600080fd5b91908080601f0160208091040260200160405190810160405280939291908181526020018383808284376000920191909152509295506108f0945050505050565b604080516001600160e01b03199092168252519081900360200190f35b6103986004803603602081101561039157600080fd5b5035610937565b60405180856001600160a01b03168152602001846001600160a01b0316815260200183815260200180602001828103825283818151815260200191508051906020019080838360005b838110156103f95781810151838201526020016103e1565b50505050905090810190601f1680156104265780820380516001836020036101000a031916815260200191505b509550505050505060405180910390f35b6104b56004803603604081101561044d57600080fd5b6001600160a01b038235169190810190604081016020820135600160201b81111561047757600080fd5b82018360208201111561048957600080fd5b803590602001918460208302840111600160201b831117156104aa57600080fd5b5090925090506109fd565b604080519115158252519081900360200190f35b609a5461018b906001600160a01b031681565b610233600480360360808110156104f257600080fd5b506001600160a01b038135811691602081013582169160408201358116916060013516610e44565b60a1546104b59060ff1681565b6103986004803603602081101561053d57600080fd5b5035610ef6565b61054c610fb5565b6040805160208082528351818301528351919283929083019185019080838360005b8381101561058657818101518382015260200161056e565b50505050905090810190601f1680156105b35780820380516001836020036101000a031916815260200191505b509250505060405180910390f35b6102336110f5565b6104b5600480360360608110156105df57600080fd5b506001600160a01b03813516906020810135906040013561112b565b609b5461018b906001600160a01b031681565b6033546001600160a01b031661018b565b6102336004803603602081101561063557600080fd5b50356001600160a01b0316611323565b6107096004803603608081101561065b57600080fd5b6001600160a01b03823581169260208101359091169160408201359190810190608081016060820135600160201b81111561069557600080fd5b8201836020820111156106a757600080fd5b803590602001918460018302840111600160201b831117156106c857600080fd5b91908080601f0160208091040260200160405190810160405280939291908181526020018383808284376000920191909152509295506113f5945050505050565b60408051918252519081900360200190f35b6104b56004803603604081101561073157600080fd5b506001600160a01b03813516906020013561149f565b6107096004803603602081101561075d57600080fd5b5035611816565b6107096004803603602081101561077a57600080fd5b50356001600160a01b031661182d565b6104b5600480360360408110156107a057600080fd5b506001600160a01b0381358116916020013516611ad2565b610233600480360360208110156107ce57600080fd5b50356001600160a01b0316611db4565b61018b600480360360208110156107f457600080fd5b50609f6020526001600160a01b0390358116600090815260409020541681565b6107096004803603602081101561082a57600080fd5b50609d602052356000908152604090205481565b60a15461018b9061010090046001600160a01b031681565b6000818152609c6020526040902060609061087090611e4f565b92915050565b6033546001600160a01b031633146108a95760405162461bcd60e51b81526004016108a0906125ef565b60405180910390fd5b60a1805482151560ff19909116811790915560408051918252517fda88b5dfaac55549d4ddddd43a09d4b911233df354952ebc9ac2041aa18534369181900360200190a150565b8051602080830191909120600090815260a0909152604081205460ff16801561091c575060a15460ff16155b610927576000610930565b6320c13b0b60e01b5b9392505050565b6000818152609e60205260409020805460018201546002830154600390930180546001600160a01b039384169492909316926060919061097690612624565b80601f01602080910402602001604051908101604052809291908181526020018280546109a290612624565b80156109ef5780601f106109c4576101008083540402835291602001916109ef565b820191906000526020600020905b8154815290600101906020018083116109d257829003601f168201915b505050505090509193509193565b609a54604080516346ea87af60e01b815233600482015290516000926001600160a01b0316916346ea87af916024808301926020929190829003018186803b158015610a4857600080fd5b505afa158015610a5c573d6000803e3d6000fd5b505050506040513d6020811015610a7257600080fd5b5051610aaf5760405162461bcd60e51b815260040180806020018281038252602981526020018061280f6029913960400191505060405180910390fd5b6099546040805163c438fcd160e01b815290516001600160a01b0390921691829163c438fcd1916004808301926020929190829003018186803b158015610af557600080fd5b505afa158015610b09573d6000803e3d6000fd5b505050506040513d6020811015610b1f57600080fd5b505160ff16831115610b71576040805162461bcd60e51b8152602060048201526016602482015275746f6f206d616e79207072657061696420636172647360501b604482015290519081900360640190fd5b60005b83811015610e3857610ba786868684818110610b9257610b9261265f565b905060200201356001600160a01b0316611e5c565b50506000610bd6868684818110610bc057610bc061265f565b905060200201356001600160a01b031688612197565b90506000610c04878785818110610bef57610bef61265f565b905060200201356001600160a01b031661182d565b9050610c4c878785818110610c1b57610c1b61265f565b905060200201356001600160a01b0316609c600084815260200190815260200160002061222690919063ffffffff16565b508151602080840191909120600090815260a090915260409020805460ff191660011790556001600160a01b038416639e625f6c888886818110610c9257610c9261265f565b905060200201356001600160a01b03168a856040518463ffffffff1660e01b815260040180846001600160a01b03168152602001836001600160a01b0316815260200180602001828103825283818151815260200191508051906020019080838360005b83811015610d0e578181015183820152602001610cf6565b50505050905090810190601f168015610d3b5780820380516001836020036101000a031916815260200191505b50945050505050602060405180830381600087803b158015610d5c57600080fd5b505af1158015610d70573d6000803e3d6000fd5b505050506040513d6020811015610d8657600080fd5b50508151602083810191909120600090815260a090915260409020805460ff191690557f675a7682d2273c0b09856ea2ce245e02bd9fe19a63d454c26b5d059f0cbd7d46878785818110610ddc57610ddc61265f565b905060200201356001600160a01b0316898360405180846001600160a01b03168152602001836001600160a01b03168152602001828152602001935050505060405180910390a150508080610e309061268b565b915050610b74565b50600195945050505050565b6033546001600160a01b03163314610e6e5760405162461bcd60e51b81526004016108a0906125ef565b609980546001600160a01b038087166001600160a01b031992831617909255609b8054858416908316179055609a8054868416921691909117905560a1805491831661010002610100600160a81b03199092169190911790556040517f587930504fa5b1062f394d90f9dac9ecadd354ed23a97af9ea4e44dff4870a8490600090a150505050565b609e6020526000908152604090208054600182015460028301546003840180546001600160a01b039485169594909316939192610f3290612624565b80601f0160208091040260200160405190810160405280929190818152602001828054610f5e90612624565b8015610fab5780601f10610f8057610100808354040283529160200191610fab565b820191906000526020600020905b815481529060010190602001808311610f8e57829003601f168201915b5050505050905084565b606060a160019054906101000a90046001600160a01b03166001600160a01b03166354fd4d506040518163ffffffff1660e01b815260040160006040518083038186803b15801561100557600080fd5b505afa158015611019573d6000803e3d6000fd5b505050506040513d6000823e601f3d908101601f19168201604052602081101561104257600080fd5b8101908080516040519392919084600160201b82111561106157600080fd5b90830190602082018581111561107657600080fd5b8251600160201b81118282018810171561108f57600080fd5b82525081516020918201929091019080838360005b838110156110bc5781810151838201526020016110a4565b50505050905090810190601f1680156110e95780820380516001836020036101000a031916815260200191505b50604052505050905090565b6033546001600160a01b0316331461111f5760405162461bcd60e51b81526004016108a0906125ef565b611129600061223b565b565b609a54604080516346ea87af60e01b815233600482015290516000926001600160a01b0316916346ea87af916024808301926020929190829003018186803b15801561117657600080fd5b505afa15801561118a573d6000803e3d6000fd5b505050506040513d60208110156111a057600080fd5b50516111dd5760405162461bcd60e51b815260040180806020018281038252602981526020018061280f6029913960400191505060405180910390fd5b6000838152609e60205260409020546001600160a01b0316611239576040805162461bcd60e51b815260206004820152601060248201526f4e6f6e2d6578697374656e7420534b5560801b604482015290519081900360640190fd5b6000838152609e60205260409020546001600160a01b038581169116146112a7576040805162461bcd60e51b815260206004820152601760248201527f534b55206e6f74206f776e656420627920697373756572000000000000000000604482015290519081900360640190fd5b6000838152609d60209081526040808320859055609e8252918290206001015482516001600160a01b038089168252909116918101919091528082018590526060810184905290517fbc8bd59a4606291d9b298d84319afe2f447c584b80a8c63a2ca96fe0c450f3a99181900360800190a15060019392505050565b600054610100900460ff1661133e5760005460ff1615611342565b303b155b6113a55760405162461bcd60e51b815260206004820152602e60248201527f496e697469616c697a61626c653a20636f6e747261637420697320616c72656160448201526d191e481a5b9a5d1a585b1a5e995960921b60648201526084016108a0565b600054610100900460ff161580156113c7576000805461ffff19166101011790555b600060985560a1805460ff191690556113df8261228d565b80156113f1576000805461ff00191690555b5050565b60008484848460405160200180856001600160a01b031660601b8152601401846001600160a01b031660601b815260140183815260200182805190602001908083835b602083106114575780518252601f199092019160209182019101611438565b6001836020036101000a038019825116818451168082178552505050505050905001945050505050604051602081830303815290604052805190602001209050949350505050565b6033546000906001600160a01b03163314806114c55750609b546001600160a01b031633145b6115005760405162461bcd60e51b815260040180806020018281038252602b815260200180612782602b913960400191505060405180910390fd5b60a15460ff161561154d576040805162461bcd60e51b815260206004820152601260248201527110dbdb9d1c9858dd081a5cc81c185d5cd95960721b604482015290519081900360640190fd5b6000828152609c60205260408120611564906122d5565b116115b6576040805162461bcd60e51b815260206004820152601d60248201527f4e6f206d6f7265207072657061696420636172647320666f7220736b75000000604482015290519081900360640190fd5b6000828152609d602052604090205461160d576040805162461bcd60e51b81526020600482015260146024820152734e6f2061736b20707269636520666f7220736b7560601b604482015290519081900360640190fd5b6000828152609c6020526040812061162590826122df565b6001600160a01b038181166000908152609f6020526040812080546001600160a01b031916928816929092179091559091506116618286612197565b8051602080830191909120600090815260a082526040808220805460ff19166001179055878252609c9092522090915061169b9083612226565b5060995460405163279897db60e21b81526001600160a01b038481166004830190815288821660248401526060604484019081528551606485015285519290941693639e625f6c9387938b93889390929091608490910190602085019080838360005b838110156117165781810151838201526020016116fe565b50505050905090810190601f1680156117435780820380516001836020036101000a031916815260200191505b50945050505050602060405180830381600087803b15801561176457600080fd5b505af1158015611778573d6000803e3d6000fd5b505050506040513d602081101561178e57600080fd5b50508051602082810191909120600090815260a082526040808220805460ff19169055868252609d8352908190205481516001600160a01b0380871682528916938101939093528282018790526060830152517f0b8c2b259c69d8ed4e06c6a0aa4718aee57a24e91d84667d5078ec36a345ca099181900360800190a1506001949350505050565b6000818152609c60205260408120610870906122d5565b609954604080516306f8f85960e31b81526001600160a01b0384811660048301529151600093929092169182916337c7c2c8916024808301926020929190829003018186803b15801561187f57600080fd5b505afa158015611893573d6000803e3d6000fd5b505050506040513d60208110156118a957600080fd5b5051156118e75760405162461bcd60e51b81526004018080602001828103825260238152602001806127ad6023913960400191505060405180910390fd5b6000806000836001600160a01b031663a3af99d3876040518263ffffffff1660e01b815260040180826001600160a01b0316815260200191505060006040518083038186803b15801561193957600080fd5b505afa15801561194d573d6000803e3d6000fd5b505050506040513d6000823e601f3d908101601f1916820160405260c081101561197657600080fd5b815160208301516040808501516060860180519251949693959194939182019284600160201b8211156119a857600080fd5b9083019060208201858111156119bd57600080fd5b8251600160201b8111828201881017156119d657600080fd5b82525081516020918201929091019080838360005b83811015611a035781810151838201526020016119eb565b50505050905090810190601f168015611a305780820380516001836020036101000a031916815260200191505b5060408181526314db2ef160e01b82526001600160a01b038f811660048401529051989b50969950939750600096958b16956314db2ef1955060248086019560209550919350908390030190508186803b158015611a8d57600080fd5b505afa158015611aa1573d6000803e3d6000fd5b505050506040513d6020811015611ab757600080fd5b50519050611ac7848483856113f5565b979650505050505050565b609a54604080516346ea87af60e01b815233600482015290516000926001600160a01b0316916346ea87af916024808301926020929190829003018186803b158015611b1d57600080fd5b505afa158015611b31573d6000803e3d6000fd5b505050506040513d6020811015611b4757600080fd5b505180611b5e57506099546001600160a01b031633145b611b995760405162461bcd60e51b815260040180806020018281038252603f8152602001806127d0603f913960400191505060405180910390fd5b600080611ba68585611e5c565b609954604080516314db2ef160e01b81526001600160a01b0389811660048301529151949650929450169160009183916314db2ef191602480820192602092909190829003018186803b158015611bfc57600080fd5b505afa158015611c10573d6000803e3d6000fd5b505050506040513d6020811015611c2657600080fd5b505190506000611c38888684876113f5565b6000818152609e60205260409020549091506001600160a01b0316611cb1576000818152609e6020908152604090912080546001600160a01b03808c166001600160a01b0319928316178355600183018054918a1691909216179055600281018490558551611caf92600390920191870190612556565b505b6000818152609c60205260409020611cc990886122eb565b507f7287326de51f05ed57945d2f9faa0fa61c01c04d88e50e441f6de3f7f6a1574487898785888660405180876001600160a01b03168152602001866001600160a01b03168152602001856001600160a01b0316815260200184815260200180602001838152602001828103825284818151815260200191508051906020019080838360005b83811015611d67578181015183820152602001611d4f565b50505050905090810190601f168015611d945780820380516001836020036101000a031916815260200191505b5097505050505050505060405180910390a1506001979650505050505050565b6033546001600160a01b03163314611dde5760405162461bcd60e51b81526004016108a0906125ef565b6001600160a01b038116611e435760405162461bcd60e51b815260206004820152602660248201527f4f776e61626c653a206e6577206f776e657220697320746865207a65726f206160448201526564647265737360d01b60648201526084016108a0565b611e4c8161223b565b50565b6060600061093083612300565b6099546040805163a3af99d360e01b81526001600160a01b038481166004830152915160009360609316918491839163a3af99d39160248083019286929190829003018186803b158015611eaf57600080fd5b505afa158015611ec3573d6000803e3d6000fd5b505050506040513d6000823e601f3d908101601f1916820160405260c0811015611eec57600080fd5b815160208301516040808501516060860180519251949693959194939182019284600160201b821115611f1e57600080fd5b908301906020820185811115611f3357600080fd5b8251600160201b811182820188101715611f4c57600080fd5b82525081516020918201929091019080838360005b83811015611f79578181015183820152602001611f61565b50505050905090810190601f168015611fa65780820380516001836020036101000a031916815260200191505b50604081815263cd10fd4b60e01b82526001600160a01b038e811660048401529051979c50949a5096975030969389169563cd10fd4b955060248086019560209550919350908390030190508186803b15801561200257600080fd5b505afa158015612016573d6000803e3d6000fd5b505050506040513d602081101561202c57600080fd5b50516001600160a01b0316146120735760405162461bcd60e51b815260040180806020018281038252602d81526020018061271f602d913960400191505060405180910390fd5b856001600160a01b0316816001600160a01b0316146120c35760405162461bcd60e51b815260040180806020018281038252603681526020018061274c6036913960400191505060405180910390fd5b816001600160a01b03166337c7c2c8866040518263ffffffff1660e01b815260040180826001600160a01b0316815260200191505060206040518083038186803b15801561211057600080fd5b505afa158015612124573d6000803e3d6000fd5b505050506040513d602081101561213a57600080fd5b50511561218e576040805162461bcd60e51b815260206004820152601a60248201527f50726570616964206361726420686173206265656e2075736564000000000000604482015290519081900360640190fd5b50509250929050565b6098805460609160006121a98361268b565b90915550506098546040805130606090811b6020808401919091526bffffffffffffffffffffffff1997821b8816603484015295901b9095166048860152605c8086019290925280518086039092018252607c8501815281519190930120609c808501919091528251808503909101815260bc9093019091525090565b6000610930836001600160a01b03841661235c565b603380546001600160a01b038381166001600160a01b0319831681179093556040519116919082907f8be0079c531659141344cd1fd0a4f28419497f9722a3daafe3b4186f6b6457e090600090a35050565b600054610100900460ff166122b45760405162461bcd60e51b81526004016108a0906126a6565b6122bc61244f565b336001600160a01b03821614611e4c57611e4c8161223b565b6000610870825490565b60006109308383612486565b6000610930836001600160a01b0384166124b0565b60608160000180548060200260200160405190810160405280929190818152602001828054801561235057602002820191906000526020600020905b81548152602001906001019080831161233c575b50505050509050919050565b600081815260018301602052604081205480156124455760006123806001836126f1565b8554909150600090612394906001906126f1565b90508181146123f95760008660000182815481106123b4576123b461265f565b90600052602060002001549050808760000184815481106123d7576123d761265f565b6000918252602080832090910192909255918252600188019052604090208390555b855486908061240a5761240a612708565b600190038181906000526020600020016000905590558560010160008681526020019081526020016000206000905560019350505050610870565b6000915050610870565b600054610100900460ff166124765760405162461bcd60e51b81526004016108a0906126a6565b61247e6124ff565b611129612526565b600082600001828154811061249d5761249d61265f565b9060005260206000200154905092915050565b60008181526001830160205260408120546124f757508154600181810184556000848152602080822090930184905584548482528286019093526040902091909155610870565b506000610870565b600054610100900460ff166111295760405162461bcd60e51b81526004016108a0906126a6565b600054610100900460ff1661254d5760405162461bcd60e51b81526004016108a0906126a6565b6111293361223b565b82805461256290612624565b90600052602060002090601f01602090048101928261258457600085556125ca565b82601f1061259d57805160ff19168380011785556125ca565b828001600101855582156125ca579182015b828111156125ca5782518255916020019190600101906125af565b506125d69291506125da565b5090565b5b808211156125d657600081556001016125db565b6020808252818101527f4f776e61626c653a2063616c6c6572206973206e6f7420746865206f776e6572604082015260600190565b600181811c9082168061263857607f821691505b6020821081141561265957634e487b7160e01b600052602260045260246000fd5b50919050565b634e487b7160e01b600052603260045260246000fd5b634e487b7160e01b600052601160045260246000fd5b600060001982141561269f5761269f612675565b5060010190565b6020808252602b908201527f496e697469616c697a61626c653a20636f6e7472616374206973206e6f74206960408201526a6e697469616c697a696e6760a81b606082015260800190565b60008282101561270357612703612675565b500390565b634e487b7160e01b600052603160045260246000fdfe4d61726b657420636f6e747261637420646f6573206e6f74206f776e207468652070726570616964206361726453706563696669656420697373756572206973206e6f742074686520697373756572206f66207468652070726570616964206361726463616c6c6572206973206e6f74207468652070726f766973696f6e6572206e6f7220746865206f776e657243616e27742067657420534b5520666f7220757365642070726570616964206361726463616c6c6572206973206e6f742061207265676973746572656420616374696f6e2068616e646c6572206f722050726570616964436172644d616e6167657263616c6c6572206973206e6f742061207265676973746572656420616374696f6e2068616e646c6572a26469706673582212206155405d363240de5b978cf3e4d9850730d00fcfc37ee8a5c4b314aa01f091fe64736f6c63430008090033",
  "linkReferences": {},
  "deployedLinkReferences": {}
}