{
  "_format": "hh-sol-artifact-1",
  "contractName": "RevenuePool",
  "sourceName": "contracts/RevenuePool.sol",
  "abi": [
    {
      "anonymous": false,
      "inputs": [
        {
          "indexed": false,
          "internalType": "address",
          "name": "merchantSafe",
          "type": "address"
        },
        {
          "indexed": false,
          "internalType": "address",
          "name": "payableToken",
          "type": "address"
        },
        {
          "indexed": false,
          "internalType": "uint256",
          "name": "amount",
          "type": "uint256"
        }
      ],
      "name": "MerchantClaim",
      "type": "event"
    },
    {
      "anonymous": false,
      "inputs": [
        {
          "indexed": true,
          "internalType": "address",
          "name": "previousOwner",
          "type": "address"
        },
        {
          "indexed": true,
          "internalType": "address",
          "name": "newOwner",
          "type": "address"
        }
      ],
      "name": "OwnershipTransferred",
      "type": "event"
    },
    {
      "anonymous": false,
      "inputs": [],
      "name": "Setup",
      "type": "event"
    },
    {
      "inputs": [],
      "name": "actionDispatcher",
      "outputs": [
        {
          "internalType": "address",
          "name": "",
          "type": "address"
        }
      ],
      "stateMutability": "view",
      "type": "function"
    },
    {
      "inputs": [
        {
          "internalType": "address",
          "name": "merchantSafe",
          "type": "address"
        },
        {
          "internalType": "address",
          "name": "token",
          "type": "address"
        },
        {
          "internalType": "uint256",
          "name": "amount",
          "type": "uint256"
        }
      ],
      "name": "addToMerchantBalance",
      "outputs": [
        {
          "internalType": "uint256",
          "name": "",
          "type": "uint256"
        }
      ],
      "stateMutability": "nonpayable",
      "type": "function"
    },
    {
      "inputs": [],
      "name": "cardpayVersion",
      "outputs": [
        {
          "internalType": "string",
          "name": "",
          "type": "string"
        }
      ],
      "stateMutability": "view",
      "type": "function"
    },
    {
      "inputs": [
        {
          "internalType": "address",
          "name": "payableToken",
          "type": "address"
        },
        {
          "internalType": "uint256",
          "name": "amount",
          "type": "uint256"
        }
      ],
      "name": "claimRevenue",
      "outputs": [
        {
          "internalType": "bool",
          "name": "",
          "type": "bool"
        }
      ],
      "stateMutability": "nonpayable",
      "type": "function"
    },
    {
      "inputs": [],
      "name": "exchangeAddress",
      "outputs": [
        {
          "internalType": "address",
          "name": "",
          "type": "address"
        }
      ],
      "stateMutability": "view",
      "type": "function"
    },
    {
      "inputs": [
        {
          "internalType": "address",
          "name": "owner",
          "type": "address"
        }
      ],
      "name": "initialize",
      "outputs": [],
      "stateMutability": "nonpayable",
      "type": "function"
    },
    {
      "inputs": [],
      "name": "merchantFeeDecimals",
      "outputs": [
        {
          "internalType": "uint8",
          "name": "",
          "type": "uint8"
        }
      ],
      "stateMutability": "pure",
      "type": "function"
    },
    {
      "inputs": [],
      "name": "merchantFeePercentage",
      "outputs": [
        {
          "internalType": "uint256",
          "name": "",
          "type": "uint256"
        }
      ],
      "stateMutability": "view",
      "type": "function"
    },
    {
      "inputs": [],
      "name": "merchantFeeReceiver",
      "outputs": [
        {
          "internalType": "address payable",
          "name": "",
          "type": "address"
        }
      ],
      "stateMutability": "view",
      "type": "function"
    },
    {
      "inputs": [],
      "name": "merchantManager",
      "outputs": [
        {
          "internalType": "address",
          "name": "",
          "type": "address"
        }
      ],
      "stateMutability": "view",
      "type": "function"
    },
    {
      "inputs": [],
      "name": "merchantRegistrationFeeInSPEND",
      "outputs": [
        {
          "internalType": "uint256",
          "name": "",
          "type": "uint256"
        }
      ],
      "stateMutability": "view",
      "type": "function"
    },
    {
      "inputs": [],
      "name": "owner",
      "outputs": [
        {
          "internalType": "address",
          "name": "",
          "type": "address"
        }
      ],
      "stateMutability": "view",
      "type": "function"
    },
    {
      "inputs": [],
      "name": "prepaidCardManager",
      "outputs": [
        {
          "internalType": "address payable",
          "name": "",
          "type": "address"
        }
      ],
      "stateMutability": "view",
      "type": "function"
    },
    {
      "inputs": [],
      "name": "renounceOwnership",
      "outputs": [],
      "stateMutability": "nonpayable",
      "type": "function"
    },
    {
      "inputs": [
        {
          "internalType": "address",
          "name": "merchantSafe",
          "type": "address"
        },
        {
          "internalType": "address",
          "name": "token",
          "type": "address"
        }
      ],
      "name": "revenueBalance",
      "outputs": [
        {
          "internalType": "uint256",
          "name": "",
          "type": "uint256"
        }
      ],
      "stateMutability": "view",
      "type": "function"
    },
    {
      "inputs": [
        {
          "internalType": "address",
          "name": "merchantSafe",
          "type": "address"
        }
      ],
      "name": "revenueTokens",
      "outputs": [
        {
          "internalType": "address[]",
          "name": "",
          "type": "address[]"
        }
      ],
      "stateMutability": "view",
      "type": "function"
    },
    {
      "inputs": [
        {
          "internalType": "address",
          "name": "_exchangeAddress",
          "type": "address"
        },
        {
          "internalType": "address",
          "name": "_merchantManager",
          "type": "address"
        },
        {
          "internalType": "address",
          "name": "_actionDispatcher",
          "type": "address"
        },
        {
          "internalType": "address payable",
          "name": "_prepaidCardManager",
          "type": "address"
        },
        {
          "internalType": "address payable",
          "name": "_merchantFeeReceiver",
          "type": "address"
        },
        {
          "internalType": "uint256",
          "name": "_merchantFeePercentage",
          "type": "uint256"
        },
        {
          "internalType": "uint256",
          "name": "_merchantRegistrationFeeInSPEND",
          "type": "uint256"
        },
        {
          "internalType": "address",
          "name": "_versionManager",
          "type": "address"
        }
      ],
      "name": "setup",
      "outputs": [],
      "stateMutability": "nonpayable",
      "type": "function"
    },
    {
      "inputs": [
        {
          "internalType": "address",
          "name": "newOwner",
          "type": "address"
        }
      ],
      "name": "transferOwnership",
      "outputs": [],
      "stateMutability": "nonpayable",
      "type": "function"
    },
    {
      "inputs": [],
      "name": "versionManager",
      "outputs": [
        {
          "internalType": "address",
          "name": "",
          "type": "address"
        }
      ],
      "stateMutability": "view",
      "type": "function"
    }
  ],
  "bytecode": "0x608060405234801561001057600080fd5b50610faf806100206000396000f3fe608060405234801561001057600080fd5b50600436106101215760003560e01c80638da5cb5b116100ad578063ca50de5f11610071578063ca50de5f146103a4578063cd4517eb146103da578063f2fde38b1461041a578063f98781ed14610440578063fff3f2c91461045357600080fd5b80638da5cb5b146102995780639cd01605146102aa578063a22fdd8b146102bd578063a4949d9114610333578063c4d66de81461037e57600080fd5b80636b18a91b116100f45780636b18a91b146101e05780636f5fac40146101f8578063715018a61461027557806378ac64011461027d5780637d68dfd91461029057600080fd5b80630ae7a5a8146101265780633df7b38c146101555780634be8beae146101685780634c0f507b14610183575b600080fd5b609b54610139906001600160a01b031681565b604080516001600160a01b039092168252519081900360200190f35b609d54610139906001600160a01b031681565b610171609a5481565b60408051918252519081900360200190f35b6101de600480360361010081101561019a57600080fd5b506001600160a01b038135811691602081013582169160408201358116916060810135821691608082013581169160a08101359160c08201359160e0013516610466565b005b60086040805160ff9092168252519081900360200190f35b6102006105d2565b6040805160208082528351818301528351919283929083019185019080838360005b8381101561023a578181015183820152602001610222565b50505050905090810190601f1680156102675780820380516001836020036101000a031916815260200191505b509250505060405180910390f35b6101de610709565b609e54610139906001600160a01b031681565b61017160995481565b6033546001600160a01b0316610139565b609c54610139906001600160a01b031681565b6102e3600480360360208110156102d357600080fd5b50356001600160a01b031661073f565b60408051602080825283518183015283519192839290830191858101910280838360005b8381101561031f578181015183820152602001610307565b505050509050019250505060405180910390f35b6101716004803603604081101561034957600080fd5b506001600160a01b03813581166000908152609f60209081526040808320948201359093168252600290930190925290205490565b6101de6004803603602081101561039457600080fd5b50356001600160a01b0316610769565b610171600480360360608110156103ba57600080fd5b506001600160a01b0381358116916020810135909116906040013561082c565b610406600480360360408110156103f057600080fd5b506001600160a01b038135169060200135610982565b604080519115158252519081900360200190f35b6101de6004803603602081101561043057600080fd5b50356001600160a01b0316610a5c565b609854610139906001600160a01b031681565b60a054610139906001600160a01b031681565b6033546001600160a01b031633146104995760405162461bcd60e51b815260040161049090610e62565b60405180910390fd5b6001600160a01b0384166104f4576040805162461bcd60e51b815260206004820152601b60248201527f6d65726368616e744665655265636569766572206e6f74207365740000000000604482015290519081900360640190fd5b600082116105335760405162461bcd60e51b8152600401808060200182810382526029815260200180610f286029913960400191505060405180910390fd5b609e80546001600160a01b03199081166001600160a01b038a811691909117909255609d80548216898416179055609c805482168b8416179055609b805482168884161790556098805482168784161790556099859055609a84905560a080549091169183169190911790556040517f587930504fa5b1062f394d90f9dac9ecadd354ed23a97af9ea4e44dff4870a8490600090a15050505050505050565b60a0546040805163054fd4d560e41b815290516060926001600160a01b0316916354fd4d50916004808301926000929190829003018186803b15801561061757600080fd5b505afa15801561062b573d6000803e3d6000fd5b505050506040513d6000823e601f3d908101601f19168201604052602081101561065457600080fd5b810190808051604051939291908464010000000082111561067457600080fd5b90830190602082018581111561068957600080fd5b82516401000000008111828201881017156106a357600080fd5b82525081516020918201929091019080838360005b838110156106d05781810151838201526020016106b8565b50505050905090810190601f1680156106fd5780820380516001836020036101000a031916815260200191505b50604052505050905090565b6033546001600160a01b031633146107335760405162461bcd60e51b815260040161049090610e62565b61073d6000610af7565b565b6001600160a01b0381166000908152609f6020526040902060609061076390610b49565b92915050565b600054610100900460ff166107845760005460ff1615610788565b303b155b6107eb5760405162461bcd60e51b815260206004820152602e60248201527f496e697469616c697a61626c653a20636f6e747261637420697320616c72656160448201526d191e481a5b9a5d1a585b1a5e995960921b6064820152608401610490565b600054610100900460ff1615801561080d576000805461ffff19166101011790555b61081682610b56565b8015610828576000805461ff00191690555b5050565b609d54604080516346ea87af60e01b815233600482015290516000926001600160a01b0316916346ea87af916024808301926020929190829003018186803b15801561087757600080fd5b505afa15801561088b573d6000803e3d6000fd5b505050506040513d60208110156108a157600080fd5b50516108de5760405162461bcd60e51b8152600401808060200182810382526029815260200180610f516029913960400191505060405180910390fd5b6001600160a01b038085166000908152609f6020908152604080832093871683526002909301905220546109128382610ead565b6001600160a01b038087166000818152609f60208181526040808420958b16845260028601825283209590955591905290915261094f9085610b9e565b505050506001600160a01b039182166000908152609f602090815260408083209390941682526002909201909152205490565b609e5460408051635cc8982760e11b815233600482015290516000926001600160a01b03169163b991304e916024808301926020929190829003018186803b1580156109cd57600080fd5b505afa1580156109e1573d6000803e3d6000fd5b505050506040513d60208110156109f757600080fd5b5051610a4a576040805162461bcd60e51b815260206004820152601d60248201527f63616c6c6572206973206e6f742061206d65726368616e742073616665000000604482015290519081900360640190fd5b610a55338484610bb3565b9392505050565b6033546001600160a01b03163314610a865760405162461bcd60e51b815260040161049090610e62565b6001600160a01b038116610aeb5760405162461bcd60e51b815260206004820152602660248201527f4f776e61626c653a206e6577206f776e657220697320746865207a65726f206160448201526564647265737360d01b6064820152608401610490565b610af481610af7565b50565b603380546001600160a01b038381166001600160a01b0319831681179093556040519116919082907f8be0079c531659141344cd1fd0a4f28419497f9722a3daafe3b4186f6b6457e090600090a35050565b60606000610a5583610d29565b600054610100900460ff16610b7d5760405162461bcd60e51b815260040161049090610ec5565b610b85610d85565b336001600160a01b03821614610af457610af481610af7565b6000610a55836001600160a01b038416610dbc565b6001600160a01b038084166000908152609f602090815260408083209386168352600290930190529081205480831115610c29576040805162461bcd60e51b8152602060048201526012602482015271496e73756666696369656e742066756e647360701b604482015290519081900360640190fd5b610c338382610f10565b6001600160a01b038087166000818152609f60209081526040808320948a1680845260029095018252808320869055805163a9059cbb60e01b815260048101949094526024840189905251949550929363a9059cbb936044808501949193918390030190829087803b158015610ca857600080fd5b505af1158015610cbc573d6000803e3d6000fd5b505050506040513d6020811015610cd257600080fd5b5050604080516001600160a01b0380881682528616602082015280820185905290517f87a05fcd726f0051db4afbd50a8d836db517f5f27c612c9138481f649e972f3c9181900360600190a1506001949350505050565b606081600001805480602002602001604051908101604052809291908181526020018280548015610d7957602002820191906000526020600020905b815481526020019060010190808311610d65575b50505050509050919050565b600054610100900460ff16610dac5760405162461bcd60e51b815260040161049090610ec5565b610db4610e0b565b61073d610e32565b6000818152600183016020526040812054610e0357508154600181810184556000848152602080822090930184905584548482528286019093526040902091909155610763565b506000610763565b600054610100900460ff1661073d5760405162461bcd60e51b815260040161049090610ec5565b600054610100900460ff16610e595760405162461bcd60e51b815260040161049090610ec5565b61073d33610af7565b6020808252818101527f4f776e61626c653a2063616c6c6572206973206e6f7420746865206f776e6572604082015260600190565b634e487b7160e01b600052601160045260246000fd5b60008219821115610ec057610ec0610e97565b500190565b6020808252602b908201527f496e697469616c697a61626c653a20636f6e7472616374206973206e6f74206960408201526a6e697469616c697a696e6760a81b606082015260800190565b600082821015610f2257610f22610e97565b50039056fe6d65726368616e74526567697374726174696f6e466565496e5350454e44206973206e6f742073657463616c6c6572206973206e6f742061207265676973746572656420616374696f6e2068616e646c6572a2646970667358221220d1bc6880aa4916951c3dca7f3eb93a00a362fe2ee81d9ba37cd8dcf51924d21764736f6c63430008090033",
  "linkReferences": {},
  "deployedLinkReferences": {}
}