{
  "_format": "hh-sol-artifact-1",
  "contractName": "RewardPool",
  "sourceName": "contracts/RewardPool.sol",
  "abi": [
    {
      "anonymous": false,
      "inputs": [
        {
          "indexed": false,
          "internalType": "bytes32",
          "name": "payeeRoot",
          "type": "bytes32"
        },
        {
          "indexed": false,
          "internalType": "address",
          "name": "rewardProgramID",
          "type": "address"
        },
        {
          "indexed": false,
          "internalType": "uint256",
          "name": "paymentCycle",
          "type": "uint256"
        }
      ],
      "name": "MerkleRootSubmission",
      "type": "event"
    },
    {
      "anonymous": false,
      "inputs": [
        {
          "indexed": true,
          "internalType": "address",
          "name": "previousOwner",
          "type": "address"
        },
        {
          "indexed": true,
          "internalType": "address",
          "name": "newOwner",
          "type": "address"
        }
      ],
      "name": "OwnershipTransferred",
      "type": "event"
    },
    {
      "anonymous": false,
      "inputs": [
        {
          "indexed": false,
          "internalType": "address",
          "name": "rewardProgramID",
          "type": "address"
        },
        {
          "indexed": false,
          "internalType": "address",
          "name": "sender",
          "type": "address"
        },
        {
          "indexed": false,
          "internalType": "address",
          "name": "tokenAddress",
          "type": "address"
        },
        {
          "indexed": false,
          "internalType": "uint256",
          "name": "amount",
          "type": "uint256"
        }
      ],
      "name": "RewardTokensAdded",
      "type": "event"
    },
    {
      "anonymous": false,
      "inputs": [
        {
          "indexed": false,
          "internalType": "address",
          "name": "rewardProgramID",
          "type": "address"
        },
        {
          "indexed": false,
          "internalType": "address",
          "name": "token",
          "type": "address"
        },
        {
          "indexed": false,
          "internalType": "uint256",
          "name": "amount",
          "type": "uint256"
        },
        {
          "indexed": false,
          "internalType": "address",
          "name": "rewardProgramAdmin",
          "type": "address"
        }
      ],
      "name": "RewardTokensRecovered",
      "type": "event"
    },
    {
      "anonymous": false,
      "inputs": [
        {
          "indexed": false,
          "internalType": "address",
          "name": "rewardProgramID",
          "type": "address"
        },
        {
          "indexed": false,
          "internalType": "address",
          "name": "rewardee",
          "type": "address"
        },
        {
          "indexed": false,
          "internalType": "address",
          "name": "rewardSafe",
          "type": "address"
        },
        {
          "indexed": false,
          "internalType": "address",
          "name": "token",
          "type": "address"
        },
        {
          "indexed": false,
          "internalType": "uint256",
          "name": "amount",
          "type": "uint256"
        },
        {
          "indexed": false,
          "internalType": "bytes",
          "name": "leaf",
          "type": "bytes"
        }
      ],
      "name": "RewardeeClaim",
      "type": "event"
    },
    {
      "anonymous": false,
      "inputs": [
        {
          "indexed": false,
          "internalType": "address",
          "name": "tally",
          "type": "address"
        },
        {
          "indexed": false,
          "internalType": "address",
          "name": "rewardManager",
          "type": "address"
        },
        {
          "indexed": false,
          "internalType": "address",
          "name": "tokenManager",
          "type": "address"
        }
      ],
      "name": "Setup",
      "type": "event"
    },
    {
      "inputs": [],
      "name": "cardpayVersion",
      "outputs": [
        {
          "internalType": "string",
          "name": "",
          "type": "string"
        }
      ],
      "stateMutability": "view",
      "type": "function"
    },
    {
      "inputs": [
        {
          "internalType": "bytes",
          "name": "leaf",
          "type": "bytes"
        },
        {
          "internalType": "bytes32[]",
          "name": "proof",
          "type": "bytes32[]"
        },
        {
          "internalType": "bool",
          "name": "acceptPartialClaim",
          "type": "bool"
        }
      ],
      "name": "claim",
      "outputs": [
        {
          "internalType": "bool",
          "name": "",
          "type": "bool"
        }
      ],
      "stateMutability": "nonpayable",
      "type": "function"
    },
    {
      "inputs": [
        {
          "internalType": "bytes",
          "name": "leaf",
          "type": "bytes"
        }
      ],
      "name": "claimed",
      "outputs": [
        {
          "internalType": "bool",
          "name": "",
          "type": "bool"
        }
      ],
      "stateMutability": "view",
      "type": "function"
    },
    {
      "inputs": [
        {
          "internalType": "address",
          "name": "owner",
          "type": "address"
        }
      ],
      "name": "initialize",
      "outputs": [],
      "stateMutability": "nonpayable",
      "type": "function"
    },
    {
      "inputs": [
        {
          "internalType": "address",
          "name": "from",
          "type": "address"
        },
        {
          "internalType": "uint256",
          "name": "amount",
          "type": "uint256"
        },
        {
          "internalType": "bytes",
          "name": "data",
          "type": "bytes"
        }
      ],
      "name": "onTokenTransfer",
      "outputs": [
        {
          "internalType": "bool",
          "name": "",
          "type": "bool"
        }
      ],
      "stateMutability": "nonpayable",
      "type": "function"
    },
    {
      "inputs": [],
      "name": "owner",
      "outputs": [
        {
          "internalType": "address",
          "name": "",
          "type": "address"
        }
      ],
      "stateMutability": "view",
      "type": "function"
    },
    {
      "inputs": [
        {
          "internalType": "address",
          "name": "",
          "type": "address"
        },
        {
          "internalType": "uint256",
          "name": "",
          "type": "uint256"
        }
      ],
      "name": "payeeRoots",
      "outputs": [
        {
          "internalType": "bytes32",
          "name": "",
          "type": "bytes32"
        }
      ],
      "stateMutability": "view",
      "type": "function"
    },
    {
      "inputs": [
        {
          "internalType": "address",
          "name": "rewardProgramID",
          "type": "address"
        },
        {
          "internalType": "address",
          "name": "token",
          "type": "address"
        },
        {
          "internalType": "uint256",
          "name": "amount",
          "type": "uint256"
        }
      ],
      "name": "recoverTokens",
      "outputs": [
        {
          "internalType": "bool",
          "name": "",
          "type": "bool"
        }
      ],
      "stateMutability": "nonpayable",
      "type": "function"
    },
    {
      "inputs": [],
      "name": "renounceOwnership",
      "outputs": [],
      "stateMutability": "nonpayable",
      "type": "function"
    },
    {
      "inputs": [
        {
          "internalType": "address",
          "name": "",
          "type": "address"
        },
        {
          "internalType": "address",
          "name": "",
          "type": "address"
        }
      ],
      "name": "rewardBalance",
      "outputs": [
        {
          "internalType": "uint256",
          "name": "",
          "type": "uint256"
        }
      ],
      "stateMutability": "view",
      "type": "function"
    },
    {
      "inputs": [],
      "name": "rewardManager",
      "outputs": [
        {
          "internalType": "address",
          "name": "",
          "type": "address"
        }
      ],
      "stateMutability": "view",
      "type": "function"
    },
    {
      "inputs": [
        {
          "internalType": "address",
          "name": "_tally",
          "type": "address"
        },
        {
          "internalType": "address",
          "name": "_rewardManager",
          "type": "address"
        },
        {
          "internalType": "address",
          "name": "_tokenManager",
          "type": "address"
        },
        {
          "internalType": "address",
          "name": "_versionManager",
          "type": "address"
        }
      ],
      "name": "setup",
      "outputs": [],
      "stateMutability": "nonpayable",
      "type": "function"
    },
    {
      "inputs": [
        {
          "internalType": "address",
          "name": "rewardProgramID",
          "type": "address"
        },
        {
          "internalType": "uint256",
          "name": "paymentCycle",
          "type": "uint256"
        },
        {
          "internalType": "bytes32",
          "name": "payeeRoot",
          "type": "bytes32"
        }
      ],
      "name": "submitPayeeMerkleRoot",
      "outputs": [
        {
          "internalType": "bool",
          "name": "",
          "type": "bool"
        }
      ],
      "stateMutability": "nonpayable",
      "type": "function"
    },
    {
      "inputs": [],
      "name": "tally",
      "outputs": [
        {
          "internalType": "address",
          "name": "",
          "type": "address"
        }
      ],
      "stateMutability": "view",
      "type": "function"
    },
    {
      "inputs": [],
      "name": "tokenManager",
      "outputs": [
        {
          "internalType": "address",
          "name": "",
          "type": "address"
        }
      ],
      "stateMutability": "view",
      "type": "function"
    },
    {
      "inputs": [
        {
          "internalType": "address",
          "name": "newOwner",
          "type": "address"
        }
      ],
      "name": "transferOwnership",
      "outputs": [],
      "stateMutability": "nonpayable",
      "type": "function"
    },
    {
      "inputs": [
        {
          "internalType": "bytes",
          "name": "leaf",
          "type": "bytes"
        },
        {
          "internalType": "bytes32[]",
          "name": "proof",
          "type": "bytes32[]"
        }
      ],
      "name": "valid",
      "outputs": [
        {
          "internalType": "bool",
          "name": "",
          "type": "bool"
        }
      ],
      "stateMutability": "view",
      "type": "function"
    },
    {
      "inputs": [],
      "name": "versionManager",
      "outputs": [
        {
          "internalType": "address",
          "name": "",
          "type": "address"
        }
      ],
      "stateMutability": "view",
      "type": "function"
    }
  ],
  "bytecode": "0x608060405234801561001057600080fd5b50612279806100206000396000f3fe608060405234801561001057600080fd5b50600436106101165760003560e01c80638da5cb5b116100a2578063bbac408c11610071578063bbac408c1461049c578063c4d66de814610540578063c85af72114610566578063f2fde38b1461068c578063fff3f2c9146106b257600080fd5b80638da5cb5b146103045780639e7b081414610315578063a4c0ed36146103d5578063aca2efc71461045857600080fd5b80635f3e849f116100e95780635f3e849f146101b057806367c5e51b146101fa5780636f5fac401461024d578063715018a6146102ca57806375dafbd9146102d257600080fd5b80630f4ef8a61461011b5780632a709b141461014a578063410673e51461015d57806354c35a3c14610170575b600080fd5b60995461012e906001600160a01b031681565b604080516001600160a01b039092168252519081900360200190f35b609a5461012e906001600160a01b031681565b60985461012e906001600160a01b031681565b6101ae6004803603608081101561018657600080fd5b506001600160a01b0381358116916020810135821691604082013581169160600135166106c5565b005b6101e6600480360360608110156101c657600080fd5b506001600160a01b03813581169160208101359091169060400135610829565b604080519115158252519081900360200190f35b61023b6004803603604081101561021057600080fd5b50609c602090815281356001600160a01b031660009081526040808220835292909101358152205481565b60408051918252519081900360200190f35b610255610ae1565b6040805160208082528351818301528351919283929083019185019080838360005b8381101561028f578181015183820152602001610277565b50505050905090810190601f1680156102bc5780820380516001836020036101000a031916815260200191505b509250505060405180910390f35b6101ae610c16565b6101e6600480360360608110156102e857600080fd5b506001600160a01b038135169060208101359060400135610c4c565b6065546001600160a01b031661012e565b6101e66004803603606081101561032b57600080fd5b810190602081018135600160201b81111561034557600080fd5b82018360208201111561035757600080fd5b803590602001918460018302840111600160201b8311171561037857600080fd5b919390929091602081019035600160201b81111561039557600080fd5b8201836020820111156103a757600080fd5b803590602001918460208302840111600160201b831117156103c857600080fd5b9193509150351515610e26565b6101e6600480360360608110156103eb57600080fd5b6001600160a01b0382351691602081013591810190606081016040820135600160201b81111561041a57600080fd5b82018360208201111561042c57600080fd5b803590602001918460018302840111600160201b8311171561044d57600080fd5b50909250905061136e565b61023b6004803603604081101561046e57600080fd5b50609d60209081526001600160a01b0382358116600090815260408082208452929093013516825290205481565b6101e6600480360360208110156104b257600080fd5b810190602081018135600160201b8111156104cc57600080fd5b8201836020820111156104de57600080fd5b803590602001918460018302840111600160201b831117156104ff57600080fd5b91908080601f0160208091040260200160405190810160405280939291908181526020018383808284376000920191909152509295506115c8945050505050565b6101ae6004803603602081101561055657600080fd5b50356001600160a01b03166115e5565b6101e66004803603604081101561057c57600080fd5b810190602081018135600160201b81111561059657600080fd5b8201836020820111156105a857600080fd5b803590602001918460018302840111600160201b831117156105c957600080fd5b91908080601f0160208091040260200160405190810160405280939291908181526020018383808284376000920191909152509295949360208101935035915050600160201b81111561061b57600080fd5b82018360208201111561062d57600080fd5b803590602001918460208302840111600160201b8311171561064e57600080fd5b9190808060200260200160405190810160405280939291908181526020018383602002808284376000920191909152509295506116a8945050505050565b6101ae600480360360208110156106a257600080fd5b50356001600160a01b031661180e565b609e5461012e906001600160a01b031681565b6065546001600160a01b031633146106f85760405162461bcd60e51b81526004016106ef90611f48565b60405180910390fd5b609880546001600160a01b038087166001600160a01b0319928316811790935560998054878316908416179055609a8054868316908416179055609e805491851691909216179055610791576040805162461bcd60e51b815260206004820181905260248201527f54616c6c792073686f756c64206e6f74206265207a65726f2061646472657373604482015290519081900360640190fd5b6099546001600160a01b03166107d85760405162461bcd60e51b815260040180806020018281038252602981526020018061203f6029913960400191505060405180910390fd5b604080516001600160a01b038087168252808616602083015284168183015290517f99566d155bc7902033d8db6b0f091f12209d9651abdae3aad004632bd3e657b59181900360600190a150505050565b6099546040805163606be33b60e01b81526001600160a01b03868116600483015291516000938493169163606be33b916024808301926020929190829003018186803b15801561087857600080fd5b505afa15801561088c573d6000803e3d6000fd5b505050506040513d60208110156108a257600080fd5b505190506001600160a01b0381166108eb5760405162461bcd60e51b81526004018080602001828103825260238152602001806121816023913960400191505060405180910390fd5b806001600160a01b03166108fe336118a9565b6001600160a01b0316146109435760405162461bcd60e51b81526004018080602001828103825260298152602001806121a46029913960400191505060405180910390fd5b6001600160a01b038086166000908152609d60209081526040808320938816835292905220548311156109bd576040805162461bcd60e51b815260206004820152601d60248201527f6e6f7420656e6f75676820746f6b656e7320746f207769746864726177000000604482015290519081900360640190fd5b6001600160a01b038086166000908152609d60209081526040808320938816835292905220546109ee908490611f93565b6001600160a01b038087166000818152609d602090815260408083208a861680855290835292819020959095558451928352820152808301869052908316606082015290517fd38f5e3f5601db8ab1ebf315162a27dde21e2c8db52d81581794a5c2055c3bfa9181900360800190a16040805163a9059cbb60e01b81523360048201526024810185905290516001600160a01b0386169163a9059cbb9160448083019260209291908290030181600087803b158015610aac57600080fd5b505af1158015610ac0573d6000803e3d6000fd5b505050506040513d6020811015610ad657600080fd5b505195945050505050565b609e546040805163054fd4d560e41b815290516060926001600160a01b0316916354fd4d50916004808301926000929190829003018186803b158015610b2657600080fd5b505afa158015610b3a573d6000803e3d6000fd5b505050506040513d6000823e601f3d908101601f191682016040526020811015610b6357600080fd5b8101908080516040519392919084600160201b821115610b8257600080fd5b908301906020820185811115610b9757600080fd5b8251600160201b811182820188101715610bb057600080fd5b82525081516020918201929091019080838360005b83811015610bdd578181015183820152602001610bc5565b50505050905090810190601f168015610c0a5780820380516001836020036101000a031916815260200191505b50604052505050905090565b6065546001600160a01b03163314610c405760405162461bcd60e51b81526004016106ef90611f48565b610c4a60006119ee565b565b6098546000906001600160a01b03163314610ca4576040805162461bcd60e51b815260206004820152601360248201527243616c6c6572206973206e6f742074616c6c7960681b604482015290519081900360640190fd5b60995460408051632549560760e21b81526001600160a01b03878116600483015291519190921691639525581c916024808301926020929190829003018186803b158015610cf157600080fd5b505afa158015610d05573d6000803e3d6000fd5b505050506040513d6020811015610d1b57600080fd5b5051610d585760405162461bcd60e51b81526004018080602001828103825260368152602001806120686036913960400191505060405180910390fd5b6001600160a01b0384166000908152609c6020908152604080832086845290915290205415610db85760405162461bcd60e51b815260040180806020018281038252603581526020018061214c6035913960400191505060405180910390fd5b6001600160a01b0384166000818152609c60209081526040808320878452825291829020859055815185815290810192909252818101859052517f72e470b0531f41c06072c2e35cc71e1b62730d1884c1f93c67a8c81acce97d1f9181900360600190a15060019392505050565b60008060008060008060008b8b60e0811015610e4157600080fd5b6001600160a01b03823581169260208101359260408201359260608301359260808101359260a08201359092169181019060e0810160c0820135600160201b811115610e8c57600080fd5b820183602082011115610e9e57600080fd5b803590602001918460018302840111600160201b83111715610ebf57600080fd5b91908080601f016020809104026020016040519081016040528093929190818152602001838380828437600081840152601f19601f8201169050808301925050505050505091929192905050509650965096509650965050955060008311610f585760405162461bcd60e51b815260040180806020018281038252603d8152602001806121cd603d913960400191505060405180910390fd5b82600114610fad576040805162461bcd60e51b815260206004820181905260248201527f546f6b656e20747970652063757272656e746c7920756e737570706f72746564604482015290519081900360640190fd5b84431015610fec5760405162461bcd60e51b815260040180806020018281038252602f8152602001806120f9602f913960400191505060405180910390fd5b83431061102a5760405162461bcd60e51b815260040180806020018281038252602481526020018061209e6024913960400191505060405180910390fd5b6110ab8c8c8080601f016020809104026020016040519081016040528093929190818152602001838380828437600081840152601f19601f820116905080830192505050505050508b8b808060200260200160405190810160405280939291908181526020018383602002808284376000920191909152506116a892505050565b6110ef576040805162461bcd60e51b815260206004820152601060248201526f141c9bdbd9881a5cc81a5b9d985b1a5960821b604482015290519081900360640190fd5b61112e8c8c8080601f0160208091040260200160405190810160405280939291908181526020018383808284376000920191909152506115c892505050565b15611180576040805162461bcd60e51b815260206004820152601f60248201527f5265776172642068617320616c7265616479206265656e20636c61696d656400604482015290519081900360640190fd5b60995460408051639fa6412d60e01b815233600482015290516000926001600160a01b031691639fa6412d916024808301926020929190829003018186803b1580156111cb57600080fd5b505afa1580156111df573d6000803e3d6000fd5b505050506040513d60208110156111f557600080fd5b505190506001600160a01b0380821690841614611259576040805162461bcd60e51b815260206004820152601c60248201527f43616e206f6e6c7920626520636c61696d656420627920706179656500000000604482015290519081900360640190fd5b6099546040805160016262bb9d60e01b031981523360048201526001600160a01b038a811660248301529151919092169163ff9d4463916044808301926020929190829003018186803b1580156112af57600080fd5b505afa1580156112c3573d6000803e3d6000fd5b505050506040513d60208110156112d957600080fd5b50516113165760405162461bcd60e51b81526004018080602001828103825260378152602001806120c26037913960400191505060405180910390fd5b61135b8d8d8080601f0160208091040260200160405190810160405280939291908181526020018383808284376000920191909152508b92508591508690508d611a40565b5060019c9b505050505050505050505050565b609a546040805163c187645360e01b815233600482015290516000926001600160a01b03169163c1876453916024808301926020929190829003018186803b1580156113b957600080fd5b505afa1580156113cd573d6000803e3d6000fd5b505050506040513d60208110156113e357600080fd5b5051611436576040805162461bcd60e51b815260206004820152601b60248201527f63616c6c696e6720746f6b656e20697320756e61636365707465640000000000604482015290519081900360640190fd5b60008383602081101561144857600080fd5b5060995460408051632549560760e21b815292356001600160a01b0390811660048501819052915191945090911691639525581c916024808301926020929190829003018186803b15801561149c57600080fd5b505afa1580156114b0573d6000803e3d6000fd5b505050506040513d60208110156114c657600080fd5b5051611519576040805162461bcd60e51b815260206004820152601b60248201527f7265776172642070726f6772616d206973206e6f7420666f756e640000000000604482015290519081900360640190fd5b6001600160a01b0381166000908152609d60209081526040808320338452909152902054611548908690611faa565b6001600160a01b038083166000818152609d602090815260408083203380855290835292819020959095558451928352928a1692820192909252808301919091526060810187905290517f2968c49363fa6a705eb57f01eddd0a245fac83807bdc4d2ff1f29918ca6eb5ce9181900360800190a150600195945050505050565b80516020918201206000908152609b909152604090205460ff1690565b600054610100900460ff166116005760005460ff1615611604565b303b155b6116675760405162461bcd60e51b815260206004820152602e60248201527f496e697469616c697a61626c653a20636f6e747261637420697320616c72656160448201526d191e481a5b9a5d1a585b1a5e995960921b60648201526084016106ef565b600054610100900460ff16158015611689576000805461ffff19166101011790555b61169282611db0565b80156116a4576000805461ff00191690555b5050565b60008060008060008680602001905160e08110156116c557600080fd5b815160208301516040808501516060860151608087015160a088015160c08901805195519799969894979396929591948301929184600160201b82111561170b57600080fd5b90830190602082018581111561172057600080fd5b8251600160201b81118282018810171561173957600080fd5b82525081516020918201929091019080838360005b8381101561176657818101518382015260200161174e565b50505050905090810190601f1680156117935780820380516001836020036101000a031916815260200191505b5060405250505050505093509350935093508143101580156117b457508043105b156117ff576001600160a01b0384166000908152609c602090815260408083208684528252909120548851918901919091206117f39088908390611df8565b95505050505050611808565b60009450505050505b92915050565b6065546001600160a01b031633146118385760405162461bcd60e51b81526004016106ef90611f48565b6001600160a01b03811661189d5760405162461bcd60e51b815260206004820152602660248201527f4f776e61626c653a206e6577206f776e657220697320746865207a65726f206160448201526564647265737360d01b60648201526084016106ef565b6118a6816119ee565b50565b600080826001600160a01b031663a0e67e2b6040518163ffffffff1660e01b815260040160006040518083038186803b1580156118e557600080fd5b505afa1580156118f9573d6000803e3d6000fd5b505050506040513d6000823e601f3d908101601f19168201604052602081101561192257600080fd5b8101908080516040519392919084600160201b82111561194157600080fd5b90830190602082018581111561195657600080fd5b82518660208202830111600160201b8211171561197257600080fd5b82525081516020918201928201910280838360005b8381101561199f578181015183820152602001611987565b5050505090500160405250505090508051600214156119db57806001815181106119cb576119cb611fc2565b6020026020010151915050919050565b806000815181106119cb576119cb611fc2565b606580546001600160a01b038381166001600160a01b0319831681179093556040519116919082907f8be0079c531659141344cd1fd0a4f28419497f9722a3daafe3b4186f6b6457e090600090a35050565b600080838060200190516040811015611a5857600080fd5b5080516020918201516001600160a01b03808a166000908152609d855260408082209285168252919094529092205490935090915080611adf576040805162461bcd60e51b815260206004820152601f60248201527f5265776172642070726f6772616d2062616c616e636520697320656d70747900604482015290519081900360640190fd5b838015611aeb57508181105b15611af4578091505b81836001600160a01b03166370a08231306040518263ffffffff1660e01b815260040180826001600160a01b0316815260200191505060206040518083038186803b158015611b4257600080fd5b505afa158015611b56573d6000803e3d6000fd5b505050506040513d6020811015611b6c57600080fd5b50511015611bab5760405162461bcd60e51b81526004018080602001828103825260248152602001806121286024913960400191505060405180910390fd5b81811015611bea5760405162461bcd60e51b815260040180806020018281038252603a81526020018061220a603a913960400191505060405180910390fd5b87516020808a01919091206000908152609b90915260409020805460ff19166001179055611c188282611f93565b6001600160a01b038089166000908152609d6020908152604080832093881680845293825280832094909455835163a9059cbb60e01b8152336004820152602481018790529351929363a9059cbb9360448083019491928390030190829087803b158015611c8557600080fd5b505af1158015611c99573d6000803e3d6000fd5b505050506040513d6020811015611caf57600080fd5b8101908080519060200190929190505050507f8e20063bcc312924910c43239c7d725338c265f445d2db5015e98e97380d701287873386868d60405180876001600160a01b03168152602001866001600160a01b03168152602001856001600160a01b03168152602001846001600160a01b0316815260200183815260200180602001828103825283818151815260200191508051906020019080838360005b83811015611d67578181015183820152602001611d4f565b50505050905090810190601f168015611d945780820380516001836020036101000a031916815260200191505b5097505050505050505060405180910390a15050505050505050565b600054610100900460ff16611dd75760405162461bcd60e51b81526004016106ef90611fd8565b611ddf611e0e565b336001600160a01b038216146118a6576118a6816119ee565b600082611e058584611e45565b14949350505050565b600054610100900460ff16611e355760405162461bcd60e51b81526004016106ef90611fd8565b611e3d611ef1565b610c4a611f18565b600081815b8451811015611ee9576000858281518110611e6757611e67611fc2565b60200260200101519050808311611ea9576040805160208101859052908101829052606001604051602081830303815290604052805190602001209250611ed6565b60408051602081018390529081018490526060016040516020818303038152906040528051906020012092505b5080611ee181612023565b915050611e4a565b509392505050565b600054610100900460ff16610c4a5760405162461bcd60e51b81526004016106ef90611fd8565b600054610100900460ff16611f3f5760405162461bcd60e51b81526004016106ef90611fd8565b610c4a336119ee565b6020808252818101527f4f776e61626c653a2063616c6c6572206973206e6f7420746865206f776e6572604082015260600190565b634e487b7160e01b600052601160045260246000fd5b600082821015611fa557611fa5611f7d565b500390565b60008219821115611fbd57611fbd611f7d565b500190565b634e487b7160e01b600052603260045260246000fd5b6020808252602b908201527f496e697469616c697a61626c653a20636f6e7472616374206973206e6f74206960408201526a6e697469616c697a696e6760a81b606082015260800190565b600060001982141561203757612037611f7d565b506001019056fe526577617264204d616e616765722073686f756c64206e6f74206265207a65726f206164647265737343616e206f6e6c79207375626d6974206120726f6f7420666f7220612072656769737465726564207265776172642070726f6772616d43616e206f6e6c7920626520636c61696d6564206265666f726520656e6420626c6f636b63616e206f6e6c7920776974686472617720666f7220736166652072656769737465726564206f6e207265776172642070726f6772616d43616e206f6e6c7920626520636c61696d6564206f6e206f722061667465722074686520737461727420626c6f636b52657761726420706f6f6c2068617320696e73756666696369656e742062616c616e6365506179656520726f6f7420616c7265616479207375626d697474656420666f7220746869732070726f6772616d2026206379636c657265776172642070726f6772616d2061646d696e20646f6573206e6f742065786973746f776e6572206f662073616665206973206e6f74207265776172642070726f6772616d2061646d696e4e6f6e2d636c61696d61626c652070726f6f662c207573652076616c6964286c6561662c2070726f6f662920746f20636865636b2076616c69646974795265776172642070726f6772616d2068617320696e73756666696369656e742062616c616e636520696e736964652072657761726420706f6f6ca2646970667358221220c8a5b63bbbd2ab8a385b0932e6f119ed421219173bd8d34ce1e3d5a4580ea7a964736f6c63430008090033",
  "linkReferences": {},
  "deployedLinkReferences": {}
}