{
  "_format": "hh-sol-artifact-1",
  "contractName": "RewardManager",
  "sourceName": "contracts/RewardManager.sol",
  "abi": [
    {
      "anonymous": false,
      "inputs": [
        {
          "indexed": true,
          "internalType": "address",
          "name": "previousOwner",
          "type": "address"
        },
        {
          "indexed": true,
          "internalType": "address",
          "name": "newOwner",
          "type": "address"
        }
      ],
      "name": "OwnershipTransferred",
      "type": "event"
    },
    {
      "anonymous": false,
      "inputs": [
        {
          "indexed": false,
          "internalType": "address",
          "name": "rewardProgramID",
          "type": "address"
        },
        {
          "indexed": false,
          "internalType": "address",
          "name": "newAdmin",
          "type": "address"
        }
      ],
      "name": "RewardProgramAdminUpdated",
      "type": "event"
    },
    {
      "anonymous": false,
      "inputs": [
        {
          "indexed": false,
          "internalType": "address",
          "name": "rewardProgramID",
          "type": "address"
        },
        {
          "indexed": false,
          "internalType": "address",
          "name": "admin",
          "type": "address"
        }
      ],
      "name": "RewardProgramCreated",
      "type": "event"
    },
    {
      "anonymous": false,
      "inputs": [
        {
          "indexed": false,
          "internalType": "address",
          "name": "rewardProgramID",
          "type": "address"
        }
      ],
      "name": "RewardProgramLocked",
      "type": "event"
    },
    {
      "anonymous": false,
      "inputs": [
        {
          "indexed": false,
          "internalType": "address",
          "name": "rewardProgramID",
          "type": "address"
        }
      ],
      "name": "RewardProgramRemoved",
      "type": "event"
    },
    {
      "anonymous": false,
      "inputs": [
        {
          "indexed": false,
          "internalType": "address",
          "name": "rewardProgramID",
          "type": "address"
        },
        {
          "indexed": false,
          "internalType": "bytes",
          "name": "blob",
          "type": "bytes"
        }
      ],
      "name": "RewardRuleAdded",
      "type": "event"
    },
    {
      "anonymous": false,
      "inputs": [
        {
          "indexed": false,
          "internalType": "address",
          "name": "rewardProgramID",
          "type": "address"
        },
        {
          "indexed": false,
          "internalType": "address",
          "name": "rewardee",
          "type": "address"
        },
        {
          "indexed": false,
          "internalType": "address",
          "name": "rewardSafe",
          "type": "address"
        }
      ],
      "name": "RewardeeRegistered",
      "type": "event"
    },
    {
      "anonymous": false,
      "inputs": [],
      "name": "Setup",
      "type": "event"
    },
    {
      "inputs": [],
      "name": "actionDispatcher",
      "outputs": [
        {
          "internalType": "address",
          "name": "",
          "type": "address"
        }
      ],
      "stateMutability": "view",
      "type": "function"
    },
    {
      "inputs": [
        {
          "internalType": "address",
          "name": "rewardProgramID",
          "type": "address"
        },
        {
          "internalType": "bytes",
          "name": "blob",
          "type": "bytes"
        }
      ],
      "name": "addRewardRule",
      "outputs": [],
      "stateMutability": "nonpayable",
      "type": "function"
    },
    {
      "inputs": [],
      "name": "cardpayVersion",
      "outputs": [
        {
          "internalType": "string",
          "name": "",
          "type": "string"
        }
      ],
      "stateMutability": "view",
      "type": "function"
    },
    {
      "inputs": [
        {
          "internalType": "bytes",
          "name": "signature",
          "type": "bytes"
        }
      ],
      "name": "encodeTransactionData",
      "outputs": [
        {
          "internalType": "address",
          "name": "",
          "type": "address"
        },
        {
          "internalType": "bytes",
          "name": "",
          "type": "bytes"
        },
        {
          "internalType": "enum Enum.Operation",
          "name": "",
          "type": "uint8"
        },
        {
          "internalType": "bytes",
          "name": "",
          "type": "bytes"
        }
      ],
      "stateMutability": "view",
      "type": "function"
    },
    {
      "inputs": [],
      "name": "getEip1271Contracts",
      "outputs": [
        {
          "internalType": "address[]",
          "name": "",
          "type": "address[]"
        }
      ],
      "stateMutability": "view",
      "type": "function"
    },
    {
      "inputs": [
        {
          "internalType": "address payable",
          "name": "rewardSafe",
          "type": "address"
        }
      ],
      "name": "getRewardSafeOwner",
      "outputs": [
        {
          "internalType": "address",
          "name": "",
          "type": "address"
        }
      ],
      "stateMutability": "view",
      "type": "function"
    },
    {
      "inputs": [],
      "name": "gnosisProxyFactory",
      "outputs": [
        {
          "internalType": "address",
          "name": "",
          "type": "address"
        }
      ],
      "stateMutability": "view",
      "type": "function"
    },
    {
      "inputs": [],
      "name": "gnosisSafe",
      "outputs": [
        {
          "internalType": "address",
          "name": "",
          "type": "address"
        }
      ],
      "stateMutability": "view",
      "type": "function"
    },
    {
      "inputs": [],
      "name": "governanceAdmin",
      "outputs": [
        {
          "internalType": "address",
          "name": "",
          "type": "address"
        }
      ],
      "stateMutability": "view",
      "type": "function"
    },
    {
      "inputs": [
        {
          "internalType": "address",
          "name": "owner",
          "type": "address"
        }
      ],
      "name": "initialize",
      "outputs": [],
      "stateMutability": "nonpayable",
      "type": "function"
    },
    {
      "inputs": [
        {
          "internalType": "address",
          "name": "rewardProgramID",
          "type": "address"
        }
      ],
      "name": "isRewardProgram",
      "outputs": [
        {
          "internalType": "bool",
          "name": "",
          "type": "bool"
        }
      ],
      "stateMutability": "view",
      "type": "function"
    },
    {
      "inputs": [
        {
          "internalType": "address payable",
          "name": "rewardSafe",
          "type": "address"
        },
        {
          "internalType": "address",
          "name": "rewardProgramID",
          "type": "address"
        }
      ],
      "name": "isValidRewardSafe",
      "outputs": [
        {
          "internalType": "bool",
          "name": "",
          "type": "bool"
        }
      ],
      "stateMutability": "view",
      "type": "function"
    },
    {
      "inputs": [
        {
          "internalType": "bytes",
          "name": "data",
          "type": "bytes"
        },
        {
          "internalType": "bytes",
          "name": "signature",
          "type": "bytes"
        }
      ],
      "name": "isValidSignature",
      "outputs": [
        {
          "internalType": "bytes4",
          "name": "",
          "type": "bytes4"
        }
      ],
      "stateMutability": "view",
      "type": "function"
    },
    {
      "inputs": [
        {
          "internalType": "address",
          "name": "tokenAddress",
          "type": "address"
        }
      ],
      "name": "isValidToken",
      "outputs": [
        {
          "internalType": "bool",
          "name": "",
          "type": "bool"
        }
      ],
      "stateMutability": "view",
      "type": "function"
    },
    {
      "inputs": [
        {
          "internalType": "address",
          "name": "rewardProgramID",
          "type": "address"
        }
      ],
      "name": "lockRewardProgram",
      "outputs": [],
      "stateMutability": "nonpayable",
      "type": "function"
    },
    {
      "inputs": [
        {
          "internalType": "address",
          "name": "",
          "type": "address"
        },
        {
          "internalType": "address",
          "name": "",
          "type": "address"
        }
      ],
      "name": "ownedRewardSafes",
      "outputs": [
        {
          "internalType": "address",
          "name": "",
          "type": "address"
        }
      ],
      "stateMutability": "view",
      "type": "function"
    },
    {
      "inputs": [],
      "name": "owner",
      "outputs": [
        {
          "internalType": "address",
          "name": "",
          "type": "address"
        }
      ],
      "stateMutability": "view",
      "type": "function"
    },
    {
      "inputs": [
        {
          "internalType": "address",
          "name": "admin",
          "type": "address"
        },
        {
          "internalType": "address",
          "name": "rewardProgramID",
          "type": "address"
        }
      ],
      "name": "registerRewardProgram",
      "outputs": [],
      "stateMutability": "nonpayable",
      "type": "function"
    },
    {
      "inputs": [
        {
          "internalType": "address",
          "name": "rewardProgramID",
          "type": "address"
        },
        {
          "internalType": "address",
          "name": "prepaidCardOwner",
          "type": "address"
        }
      ],
      "name": "registerRewardee",
      "outputs": [
        {
          "internalType": "address",
          "name": "",
          "type": "address"
        }
      ],
      "stateMutability": "nonpayable",
      "type": "function"
    },
    {
      "inputs": [
        {
          "internalType": "address",
          "name": "rewardProgramID",
          "type": "address"
        }
      ],
      "name": "removeRewardProgram",
      "outputs": [],
      "stateMutability": "nonpayable",
      "type": "function"
    },
    {
      "inputs": [],
      "name": "renounceOwnership",
      "outputs": [],
      "stateMutability": "nonpayable",
      "type": "function"
    },
    {
      "inputs": [],
      "name": "rewardFeeReceiver",
      "outputs": [
        {
          "internalType": "address payable",
          "name": "",
          "type": "address"
        }
      ],
      "stateMutability": "view",
      "type": "function"
    },
    {
      "inputs": [
        {
          "internalType": "address",
          "name": "",
          "type": "address"
        }
      ],
      "name": "rewardProgramAdmins",
      "outputs": [
        {
          "internalType": "address",
          "name": "",
          "type": "address"
        }
      ],
      "stateMutability": "view",
      "type": "function"
    },
    {
      "inputs": [
        {
          "internalType": "address",
          "name": "",
          "type": "address"
        }
      ],
      "name": "rewardProgramLocked",
      "outputs": [
        {
          "internalType": "bool",
          "name": "",
          "type": "bool"
        }
      ],
      "stateMutability": "view",
      "type": "function"
    },
    {
      "inputs": [],
      "name": "rewardProgramRegistrationFeeInSPEND",
      "outputs": [
        {
          "internalType": "uint256",
          "name": "",
          "type": "uint256"
        }
      ],
      "stateMutability": "view",
      "type": "function"
    },
    {
      "inputs": [
        {
          "internalType": "address",
          "name": "",
          "type": "address"
        }
      ],
      "name": "rewardProgramsForRewardSafes",
      "outputs": [
        {
          "internalType": "address",
          "name": "",
          "type": "address"
        }
      ],
      "stateMutability": "view",
      "type": "function"
    },
    {
      "inputs": [
        {
          "internalType": "address",
          "name": "",
          "type": "address"
        }
      ],
      "name": "rule",
      "outputs": [
        {
          "internalType": "bytes",
          "name": "",
          "type": "bytes"
        }
      ],
      "stateMutability": "view",
      "type": "function"
    },
    {
      "inputs": [],
      "name": "safeDelegateImplementation",
      "outputs": [
        {
          "internalType": "address",
          "name": "",
          "type": "address"
        }
      ],
      "stateMutability": "view",
      "type": "function"
    },
    {
      "inputs": [
        {
          "internalType": "address",
          "name": "_actionDispatcher",
          "type": "address"
        },
        {
          "internalType": "address",
          "name": "_gsMasterCopy",
          "type": "address"
        },
        {
          "internalType": "address",
          "name": "_gsProxyFactory",
          "type": "address"
        },
        {
          "internalType": "address payable",
          "name": "_rewardFeeReceiver",
          "type": "address"
        },
        {
          "internalType": "uint256",
          "name": "_rewardProgramRegistrationFeeInSPEND",
          "type": "uint256"
        },
        {
          "internalType": "address[]",
          "name": "_eip1271Contracts",
          "type": "address[]"
        },
        {
          "internalType": "address",
          "name": "_governanceAdmin",
          "type": "address"
        },
        {
          "internalType": "address",
          "name": "_safeDelegateImplementation",
          "type": "address"
        },
        {
          "internalType": "address",
          "name": "_versionManager",
          "type": "address"
        }
      ],
      "name": "setup",
      "outputs": [],
      "stateMutability": "nonpayable",
      "type": "function"
    },
    {
      "inputs": [
        {
          "internalType": "address",
          "name": "newOwner",
          "type": "address"
        }
      ],
      "name": "transferOwnership",
      "outputs": [],
      "stateMutability": "nonpayable",
      "type": "function"
    },
    {
      "inputs": [
        {
          "internalType": "address",
          "name": "rewardProgramID",
          "type": "address"
        },
        {
          "internalType": "address",
          "name": "newAdmin",
          "type": "address"
        }
      ],
      "name": "updateAdmin",
      "outputs": [],
      "stateMutability": "nonpayable",
      "type": "function"
    },
    {
      "inputs": [],
      "name": "versionManager",
      "outputs": [
        {
          "internalType": "address",
          "name": "",
          "type": "address"
        }
      ],
      "stateMutability": "view",
      "type": "function"
    },
    {
      "inputs": [
        {
          "internalType": "address",
          "name": "newOwner",
          "type": "address"
        }
      ],
      "name": "willTransferRewardSafe",
      "outputs": [],
      "stateMutability": "nonpayable",
      "type": "function"
    }
  ],
  "bytecode": "0x608060405234801561001057600080fd5b50612ca5806100206000396000f3fe608060405234801561001057600080fd5b50600436106101fa5760003560e01c8063855a5b3e1161011a578063a84173ae116100ad578063ea98c6c31161007c578063ea98c6c314610a45578063f16e307514610a60578063f2fde38b14610a73578063ff9d446314610a99578063fff3f2c914610ac757600080fd5b8063a84173ae146109b8578063c1876453146109cb578063c4d66de8146109f1578063dc81b77014610a1757600080fd5b80639525581c116100e95780639525581c1461078c57806398f0d1d6146107b25780639fa6412d146107e8578063a3b69c811461080e57600080fd5b8063855a5b3e146106e95780638cb9b63c1461070f5780638da5cb5b14610755578063945233e21461076657600080fd5b80634d76893111610192578063643f8a9b11610161578063643f8a9b146105875780636f5fac401461063e578063715018a6146106bb5780637b045865146106c357600080fd5b80634d7689311461049a5780634e1b0357146104ad57806359b311ed1461052b578063606be33b1461055157600080fd5b80632708ab6a116101ce5780632708ab6a146103d25780633050dfa7146103e55780633b7052671461043d5780633df7b38c1461048757600080fd5b806258f6b8146101ff57806309e1e5ab1461022e5780631bb37c651461025e57806320c13b0b1461028c575b600080fd5b60d054610212906001600160a01b031681565b604080516001600160a01b039092168252519081900360200190f35b61025c6004803603604081101561024457600080fd5b506001600160a01b0381358116916020013516610ada565b005b61025c6004803603604081101561027457600080fd5b506001600160a01b0381358116916020013516610c4a565b6103b5600480360360408110156102a257600080fd5b810190602081018135600160201b8111156102bc57600080fd5b8201836020820111156102ce57600080fd5b803590602001918460018302840111600160201b831117156102ef57600080fd5b91908080601f0160208091040260200160405190810160405280939291908181526020018383808284376000920191909152509295949360208101935035915050600160201b81111561034157600080fd5b82018360208201111561035357600080fd5b803590602001918460018302840111600160201b8311171561037457600080fd5b91908080601f016020809104026020016040519081016040528093929190818152602001838380828437600092019190915250929550610d69945050505050565b604080516001600160e01b03199092168252519081900360200190f35b60db54610212906001600160a01b031681565b6103ed610efd565b60408051602080825283518183015283519192839290830191858101910280838360005b83811015610429578181015183820152602001610411565b505050509050019250505060405180910390f35b6104736004803603602081101561045357600080fd5b5060d8602052356001600160a01b03166000908152604090205460ff1681565b604080519115158252519081900360200190f35b60cd54610212906001600160a01b031681565b60cf54610212906001600160a01b031681565b61025c600480360360408110156104c357600080fd5b6001600160a01b038235169190810190604081016020820135600160201b8111156104ed57600080fd5b8201836020820111156104ff57600080fd5b803590602001918460018302840111600160201b8311171561052057600080fd5b509092509050610f0e565b61025c6004803603602081101561054157600080fd5b50356001600160a01b031661105a565b6102126004803603602081101561056757600080fd5b5060d76020526001600160a01b0390358116600090815260409020541681565b61025c600480360361012081101561059e57600080fd5b6001600160a01b038235811692602081013582169260408201358316926060830135169160808101359181019060c0810160a0820135600160201b8111156105e557600080fd5b8201836020820111156105f757600080fd5b803590602001918460208302840111600160201b8311171561061857600080fd5b91935091506001600160a01b0381358116916020810135821691604090910135166111ae565b6106466113cb565b6040805160208082528351818301528351919283929083019185019080838360005b83811015610680578181015183820152602001610668565b50505050905090810190601f1680156106ad5780820380516001836020036101000a031916815260200191505b509250505060405180910390f35b61025c611500565b610646600480360360208110156106d957600080fd5b50356001600160a01b0316611536565b61025c600480360360208110156106ff57600080fd5b50356001600160a01b03166115d0565b6102126004803603604081101561072557600080fd5b5060d960209081526001600160a01b03823581166000908152604080822084529290930135811683529120541681565b6033546001600160a01b0316610212565b61025c6004803603602081101561077c57600080fd5b50356001600160a01b03166116e2565b610473600480360360208110156107a257600080fd5b50356001600160a01b03166117d4565b610212600480360360208110156107c857600080fd5b5060da6020526001600160a01b0390358116600090815260409020541681565b610212600480360360208110156107fe57600080fd5b50356001600160a01b03166117e1565b6108b26004803603602081101561082457600080fd5b810190602081018135600160201b81111561083e57600080fd5b82018360208201111561085057600080fd5b803590602001918460018302840111600160201b8311171561087157600080fd5b91908080601f01602080910402602001604051908101604052809392919081815260200183838082843760009201919091525092955061199c945050505050565b60405180856001600160a01b03168152602001806020018460018111156108db576108db612a17565b815260200180602001838103835286818151815260200191508051906020019080838360005b83811015610919578181015183820152602001610901565b50505050905090810190601f1680156109465780820380516001836020036101000a031916815260200191505b50838103825284518152845160209182019186019080838360005b83811015610979578181015183820152602001610961565b50505050905090810190601f1680156109a65780820380516001836020036101000a031916815260200191505b50965050505050505060405180910390f35b609854610212906001600160a01b031681565b610473600480360360208110156109e157600080fd5b50356001600160a01b0316611d28565b61025c60048036036020811015610a0757600080fd5b50356001600160a01b0316611e15565b61021260048036036040811015610a2d57600080fd5b506001600160a01b0381358116916020013516611edd565b610a4e60ce5481565b60408051918252519081900360200190f35b609954610212906001600160a01b031681565b61025c60048036036020811015610a8957600080fd5b50356001600160a01b031661214b565b61047360048036036040811015610aaf57600080fd5b506001600160a01b03813581169160200135166121e6565b60dc54610212906001600160a01b031681565b60cd54604080516346ea87af60e01b815233600482015290516001600160a01b03909216916346ea87af91602480820192602092909190829003018186803b158015610b2557600080fd5b505afa158015610b39573d6000803e3d6000fd5b505050506040513d6020811015610b4f57600080fd5b5051610b8c5760405162461bcd60e51b8152600401808060200182810382526029815260200180612c1c6029913960400191505060405180910390fd5b610b95816117d4565b15610bd15760405162461bcd60e51b8152600401808060200182810382526021815260200180612bc56021913960400191505060405180910390fd5b610bdc60d182612208565b506001600160a01b03818116600081815260d7602090815260409182902080546001600160a01b0319169487169485179055815192835282019290925281517f75481a11632c3c81e03365ea9127429af70c5d9a0804df612768ccfbe9f4e4f4929181900390910190a15050565b60cd54604080516346ea87af60e01b815233600482015290516001600160a01b03909216916346ea87af91602480820192602092909190829003018186803b158015610c9557600080fd5b505afa158015610ca9573d6000803e3d6000fd5b505050506040513d6020811015610cbf57600080fd5b5051610cfc5760405162461bcd60e51b8152600401808060200182810382526029815260200180612c1c6029913960400191505060405180910390fd5b6001600160a01b03828116600081815260d7602090815260409182902080546001600160a01b0319169486169485179055815192835282019290925281517f12168947485d2fdd64e756e7ac862fd8fcbb1f68fb65f34e61aa7f90e98e8fb2929181900390910190a15050565b6000806000806000610d7a8661199c565b9350935093509350610d8c878461221d565b610ddd576040805162461bcd60e51b815260206004820152601760248201527f5369676e61747572652064617461206d69736d61746368000000000000000000604482015290519081900360640190fd5b6001826001811115610df157610df1612a17565b1415610eca5760db546001600160a01b03858116911614610e59576040805162461bcd60e51b815260206004820152601960248201527f496e76616c69642064656c656761746520636f6e747261637400000000000000604482015290519081900360640190fd5b6000610e6482612304565b90506001600160a01b0381163014610eb5576040805162461bcd60e51b815260206004820152600f60248201526e34b73b30b634b21036b0b730b3b2b960891b604482015290519081900360640190fd5b506320c13b0b60e01b9450610ef79350505050565b610ed560d3856123da565b15610eee57506320c13b0b60e01b9350610ef792505050565b50600093505050505b92915050565b6060610f0960d36123fc565b905090565b60cd54604080516346ea87af60e01b815233600482015290516001600160a01b03909216916346ea87af91602480820192602092909190829003018186803b158015610f5957600080fd5b505afa158015610f6d573d6000803e3d6000fd5b505050506040513d6020811015610f8357600080fd5b5051610fc05760405162461bcd60e51b8152600401808060200182810382526029815260200180612c1c6029913960400191505060405180910390fd5b6001600160a01b038316600090815260d660205260409020610fe3908383612948565b507fc56045a9932b364727f3e7ca6a4e0b81b01da675540f27bbf64833026181916683838360405180846001600160a01b03168152602001806020018281038252848482818152602001925080828437600083820152604051601f909101601f1916909201829003965090945050505050a1505050565b6000611065336117e1565b33600090815260da60209081526040808320546001600160a01b03878116855260d9845282852091811680865291909352922054929350909116156110db5760405162461bcd60e51b8152600401808060200182810382526036815260200180612be66036913960400191505060405180910390fd5b6001600160a01b03828116600090815260d9602090815260408083208585168452909152902054163314611156576040805162461bcd60e51b815260206004820152601f60248201527f4f6e6c792063757272656e74206f776e65722063616e207472616e7366657200604482015290519081900360640190fd5b6001600160a01b03918216600090815260d96020818152604080842094861680855294825280842080546001600160a01b03199081169091559690951683529081528382209282529190915220805490911633179055565b6033546001600160a01b031633146111e15760405162461bcd60e51b81526004016111d890612a2d565b60405180910390fd5b6001600160a01b03871661123c576040805162461bcd60e51b815260206004820152601960248201527f7265776172644665655265636569766572206e6f742073657400000000000000604482015290519081900360640190fd5b6000861161127b5760405162461bcd60e51b815260040180806020018281038252602e815260200180612b97602e913960400191505060405180910390fd5b6001600160a01b0382166112c05760405162461bcd60e51b8152600401808060200182810382526022815260200180612b756022913960400191505060405180910390fd5b60cd80546001600160a01b03199081166001600160a01b038d8116919091179092556099805482168b84161790556098805482168c841617905560cf805482168a841617905560ce88905560dc8054821684841617905560d0805490911691851691909117905560005b8481101561137a5761136786868381811061134757611347612a62565b905060200201356001600160a01b031660d361220890919063ffffffff16565b508061137281612a8e565b91505061132a565b5060db80546001600160a01b0319166001600160a01b0384161790556040517f587930504fa5b1062f394d90f9dac9ecadd354ed23a97af9ea4e44dff4870a8490600090a150505050505050505050565b60dc546040805163054fd4d560e41b815290516060926001600160a01b0316916354fd4d50916004808301926000929190829003018186803b15801561141057600080fd5b505afa158015611424573d6000803e3d6000fd5b505050506040513d6000823e601f3d908101601f19168201604052602081101561144d57600080fd5b8101908080516040519392919084600160201b82111561146c57600080fd5b90830190602082018581111561148157600080fd5b8251600160201b81118282018810171561149a57600080fd5b82525081516020918201929091019080838360005b838110156114c75781810151838201526020016114af565b50505050905090810190601f1680156114f45780820380516001836020036101000a031916815260200191505b50604052505050905090565b6033546001600160a01b0316331461152a5760405162461bcd60e51b81526004016111d890612a2d565b6115346000612409565b565b60d6602052600090815260409020805461154f90612aa9565b80601f016020809104026020016040519081016040528092919081815260200182805461157b90612aa9565b80156115c85780601f1061159d576101008083540402835291602001916115c8565b820191906000526020600020905b8154815290600101906020018083116115ab57829003601f168201915b505050505081565b60cd54604080516346ea87af60e01b815233600482015290516001600160a01b03909216916346ea87af91602480820192602092909190829003018186803b15801561161b57600080fd5b505afa15801561162f573d6000803e3d6000fd5b505050506040513d602081101561164557600080fd5b50516116825760405162461bcd60e51b8152600401808060200182810382526029815260200180612c1c6029913960400191505060405180910390fd5b6001600160a01b038116600081815260d86020908152604091829020805460ff19811660ff90911615179055815192835290517f2c54491a92145afdf89e4b446d4069208ed3ddac46a04364bd14ec7a971321e09281900390910190a150565b60d0546001600160a01b03163314611741576040805162461bcd60e51b815260206004820152601e60248201527f63616c6c6572206973206e6f7420676f7665726e616e63652061646d696e0000604482015290519081900360640190fd5b61174c60d18261245b565b506001600160a01b038116600090815260d76020908152604080832080546001600160a01b031916905560d88252808320805460ff1916905560d69091528120611795916129cc565b604080516001600160a01b038316815290517f87e1027e3dc61d1977f39f0dfe911b66a943946b4ceb39210dee01495621de529181900360200190a150565b6000610ef760d1836123da565b600080826001600160a01b031663a0e67e2b6040518163ffffffff1660e01b815260040160006040518083038186803b15801561181d57600080fd5b505afa158015611831573d6000803e3d6000fd5b505050506040513d6000823e601f3d908101601f19168201604052602081101561185a57600080fd5b8101908080516040519392919084600160201b82111561187957600080fd5b90830190602082018581111561188e57600080fd5b82518660208202830111600160201b821117156118aa57600080fd5b82525081516020918201928201910280838360005b838110156118d75781810151838201526020016118bf565b50505050905001604052505050905080516002146119265760405162461bcd60e51b815260040180806020018281038252602b815260200180612c45602b913960400191505060405180910390fd5b306001600160a01b03168160008151811061194357611943612a62565b60200260200101516001600160a01b031614611979578060008151811061196c5761196c612a62565b6020026020010151611995565b8060018151811061198c5761198c612a62565b60200260200101515b9392505050565b60006060600060606000806000806000806000806000808e8060200190516101408110156119c957600080fd5b81516020830151604080850180519151939592948301929184600160201b8211156119f357600080fd5b908301906020820185811115611a0857600080fd5b8251600160201b811182820188101715611a2157600080fd5b82525081516020918201929091019080838360005b83811015611a4e578181015183820152602001611a36565b50505050905090810190601f168015611a7b5780820380516001836020036101000a031916815260200191505b5060405260200180519060200190929190805190602001909291908051906020019092919080519060200190929190805190602001909291908051906020019092919080519060200190929190505050995099509950995099509950995099509950995089336001600160a01b031663e86637db8c8c8c8c60ff166001811115611b0757611b07612a17565b8c8c8c8c8c8c6040518b63ffffffff1660e01b8152600401808b6001600160a01b031681526020018a815260200180602001896001811115611b4b57611b4b612a17565b8152602001888152602001878152602001868152602001856001600160a01b03168152602001846001600160a01b0316815260200183815260200182810382528a818151815260200191508051906020019080838360005b83811015611bbb578181015183820152602001611ba3565b50505050905090810190601f168015611be85780820380516001836020036101000a031916815260200191505b509b50505050505050505050505060006040518083038186803b158015611c0e57600080fd5b505afa158015611c22573d6000803e3d6000fd5b505050506040513d6000823e601f3d908101601f191682016040526020811015611c4b57600080fd5b8101908080516040519392919084600160201b821115611c6a57600080fd5b908301906020820185811115611c7f57600080fd5b8251600160201b811182820188101715611c9857600080fd5b82525081516020918201929091019080838360005b83811015611cc5578181015183820152602001611cad565b50505050905090810190601f168015611cf25780820380516001836020036101000a031916815260200191505b506040525050508860ff166001811115611d0e57611d0e612a17565b8a9d509d509d509d50505050505050505050509193509193565b60cd5460408051630a9c26c560e21b815290516000926001600160a01b031691632a709b14916004808301926020929190829003018186803b158015611d6d57600080fd5b505afa158015611d81573d6000803e3d6000fd5b505050506040513d6020811015611d9757600080fd5b50516040805163c187645360e01b81526001600160a01b0385811660048301529151919092169163c1876453916024808301926020929190829003018186803b158015611de357600080fd5b505afa158015611df7573d6000803e3d6000fd5b505050506040513d6020811015611e0d57600080fd5b505192915050565b600054610100900460ff16611e305760005460ff1615611e34565b303b155b611e975760405162461bcd60e51b815260206004820152602e60248201527f496e697469616c697a61626c653a20636f6e747261637420697320616c72656160448201526d191e481a5b9a5d1a585b1a5e995960921b60648201526084016111d8565b600054610100900460ff16158015611eb9576000805461ffff19166101011790555b600060cc55611ec782612470565b8015611ed9576000805461ff00191690555b5050565b60cd54604080516346ea87af60e01b815233600482015290516000926001600160a01b0316916346ea87af916024808301926020929190829003018186803b158015611f2857600080fd5b505afa158015611f3c573d6000803e3d6000fd5b505050506040513d6020811015611f5257600080fd5b5051611f8f5760405162461bcd60e51b8152600401808060200182810382526029815260200180612c1c6029913960400191505060405180910390fd5b6040805160028082526060820183526000926020830190803683370190505090503081600081518110611fc457611fc4612a62565b60200260200101906001600160a01b031690816001600160a01b0316815250508281600181518110611ff857611ff8612a62565b6001600160a01b03928316602091820292909201810191909152848216600090815260d98252604080822088851683529092522054168015612081576040805162461bcd60e51b815260206004820152601b60248201527f726577617264656520616c726561647920726567697374657265640000000000604482015290519081900360640190fd5b600061208e8360026124b8565b6001600160a01b038716600090815260d5602052604090209091506120b39082612208565b506001600160a01b03808616600081815260d9602090815260408083208b861680855290835281842080549688166001600160a01b0319978816811790915580855260da8452938290208054909616811790955580519485529084019290925282820152517fdcadcca9f0262fffbd67bb6ec216fc575f04b8bbe50f15fe3ef96f05dfbd20839181900360600190a195945050505050565b6033546001600160a01b031633146121755760405162461bcd60e51b81526004016111d890612a2d565b6001600160a01b0381166121da5760405162461bcd60e51b815260206004820152602660248201527f4f776e61626c653a206e6577206f776e657220697320746865207a65726f206160448201526564647265737360d01b60648201526084016111d8565b6121e381612409565b50565b6001600160a01b038116600090815260d56020526040812061199590846123da565b6000611995836001600160a01b03841661271c565b6000816040516020018082805190602001908083835b602083106122525780518252601f199092019160209182019101612233565b6001836020036101000a03801982511681845116808217855250505050505090500191505060405160208183030381529060405280519060200120836040516020018082805190602001908083835b602083106122c05780518252601f1990920191602091820191016122a1565b6001836020036101000a0380198251168184511680821785525050505050509050019150506040516020818303038152906040528051906020012014905092915050565b600060058161231482601f612ae4565b6040805160208082528183019092529192506000919060208201818036833701905050905060005b6123468484612afc565b81116123b9578560016123598684612ae4565b6123639190612afc565b8151811061237357612373612a62565b602001015160f81c60f81b82828151811061239057612390612a62565b60200101906001600160f81b031916908160001a905350806123b181612a8e565b91505061233c565b508080602001905160208110156123cf57600080fd5b505195945050505050565b6001600160a01b03811660009081526001830160205260408120541515611995565b606060006119958361276b565b603380546001600160a01b038381166001600160a01b0319831681179093556040519116919082907f8be0079c531659141344cd1fd0a4f28419497f9722a3daafe3b4186f6b6457e090600090a35050565b6000611995836001600160a01b0384166127c7565b600054610100900460ff166124975760405162461bcd60e51b81526004016111d890612b13565b61249f6128ba565b336001600160a01b038216146121e3576121e381612409565b60008063b63e800d60e01b848460008060008060006040516024018080602001888152602001876001600160a01b0316815260200180602001876001600160a01b03168152602001866001600160a01b03168152602001858152602001846001600160a01b0316815260200183810383528a818151815260200191508051906020019060200280838360005b8381101561255c578181015183820152602001612544565b505050509050018381038252600081526020019950505050505050505050604051602081830303815290604052906001600160e01b0319166020820180516001600160e01b03838183161783525050505090506000609960009054906101000a90046001600160a01b03166001600160a01b03166361b69abd609860009054906101000a90046001600160a01b0316846040518363ffffffff1660e01b815260040180836001600160a01b0316815260200180602001828103825283818151815260200191508051906020019080838360005b8381101561264757818101518382015260200161262f565b50505050905090810190601f1680156126745780820380516001836020036101000a031916815260200191505b509350505050602060405180830381600087803b15801561269457600080fd5b505af11580156126a8573d6000803e3d6000fd5b505050506040513d60208110156126be57600080fd5b505190506001600160a01b038116612714576040805162461bcd60e51b815260206004820152601460248201527310dc99585d1948184814d859994819985a5b195960621b604482015290519081900360640190fd5b949350505050565b600081815260018301602052604081205461276357508154600181810184556000848152602080822090930184905584548482528286019093526040902091909155610ef7565b506000610ef7565b6060816000018054806020026020016040519081016040528092919081815260200182805480156127bb57602002820191906000526020600020905b8154815260200190600101908083116127a7575b50505050509050919050565b600081815260018301602052604081205480156128b05760006127eb600183612afc565b85549091506000906127ff90600190612afc565b905081811461286457600086600001828154811061281f5761281f612a62565b906000526020600020015490508087600001848154811061284257612842612a62565b6000918252602080832090910192909255918252600188019052604090208390555b855486908061287557612875612b5e565b600190038181906000526020600020016000905590558560010160008681526020019081526020016000206000905560019350505050610ef7565b6000915050610ef7565b600054610100900460ff166128e15760405162461bcd60e51b81526004016111d890612b13565b6128e96128f1565b611534612918565b600054610100900460ff166115345760405162461bcd60e51b81526004016111d890612b13565b600054610100900460ff1661293f5760405162461bcd60e51b81526004016111d890612b13565b61153433612409565b82805461295490612aa9565b90600052602060002090601f01602090048101928261297657600085556129bc565b82601f1061298f5782800160ff198235161785556129bc565b828001600101855582156129bc579182015b828111156129bc5782358255916020019190600101906129a1565b506129c8929150612a02565b5090565b5080546129d890612aa9565b6000825580601f106129e8575050565b601f0160209004906000526020600020908101906121e391905b5b808211156129c85760008155600101612a03565b634e487b7160e01b600052602160045260246000fd5b6020808252818101527f4f776e61626c653a2063616c6c6572206973206e6f7420746865206f776e6572604082015260600190565b634e487b7160e01b600052603260045260246000fd5b634e487b7160e01b600052601160045260246000fd5b6000600019821415612aa257612aa2612a78565b5060010190565b600181811c90821680612abd57607f821691505b60208210811415612ade57634e487b7160e01b600052602260045260246000fd5b50919050565b60008219821115612af757612af7612a78565b500190565b600082821015612b0e57612b0e612a78565b500390565b6020808252602b908201527f496e697469616c697a61626c653a20636f6e7472616374206973206e6f74206960408201526a6e697469616c697a696e6760a81b606082015260800190565b634e487b7160e01b600052603160045260246000fdfe7361666544656c6567617465496d706c656d656e746174696f6e206e6f742073657472657761726450726f6772616d526567697374726174696f6e466565496e5350454e44206973206e6f74207365747265776172642070726f6772616d20616c7265616479207265676973746572656443616e6e6f74207472616e7366657220746f206f776e657220776869636820616c72656164792068617320726577617264207361666563616c6c6572206973206e6f742061207265676973746572656420616374696f6e2068616e646c6572756e6578706563746564206e756d626572206f66206f776e65727320666f72207265776172642073616665a264697066735822122085b210226eba8f5305a80c9ed5a9ed27b41d07c0ad5fc619bc986299ea4e7c2e64736f6c63430008090033",
  "linkReferences": {},
  "deployedLinkReferences": {}
}