{
  "_format": "hh-sol-artifact-1",
  "contractName": "RewardSafeDelegateImplementation",
  "sourceName": "contracts/RewardSafeDelegateImplementation.sol",
  "abi": [
    {
      "anonymous": false,
      "inputs": [
        {
          "indexed": false,
          "internalType": "address",
          "name": "rewardSafe",
          "type": "address"
        },
        {
          "indexed": false,
          "internalType": "address",
          "name": "oldOwner",
          "type": "address"
        },
        {
          "indexed": false,
          "internalType": "address",
          "name": "newOwner",
          "type": "address"
        }
      ],
      "name": "RewardSafeTransferred",
      "type": "event"
    },
    {
      "anonymous": false,
      "inputs": [
        {
          "indexed": false,
          "internalType": "address",
          "name": "rewardSafe",
          "type": "address"
        },
        {
          "indexed": false,
          "internalType": "address",
          "name": "token",
          "type": "address"
        },
        {
          "indexed": false,
          "internalType": "uint256",
          "name": "value",
          "type": "uint256"
        }
      ],
      "name": "RewardSafeWithdrawal",
      "type": "event"
    },
    {
      "inputs": [
        {
          "internalType": "address",
          "name": "__trusted__managerContract",
          "type": "address"
        },
        {
          "internalType": "address",
          "name": "__untrusted__prevOwner",
          "type": "address"
        },
        {
          "internalType": "address",
          "name": "__untrusted__oldOwner",
          "type": "address"
        },
        {
          "internalType": "address",
          "name": "__untrusted__newOwner",
          "type": "address"
        }
      ],
      "name": "swapOwner",
      "outputs": [],
      "stateMutability": "nonpayable",
      "type": "function"
    },
    {
      "inputs": [
        {
          "internalType": "address",
          "name": "__trusted__managerContract",
          "type": "address"
        },
        {
          "internalType": "address",
          "name": "__untrusted__token",
          "type": "address"
        },
        {
          "internalType": "address",
          "name": "__untrusted__to",
          "type": "address"
        },
        {
          "internalType": "uint256",
          "name": "__untrusted__value",
          "type": "uint256"
        }
      ],
      "name": "withdraw",
      "outputs": [],
      "stateMutability": "nonpayable",
      "type": "function"
    }
  ],
  "bytecode": "0x608060405234801561001057600080fd5b506103c4806100206000396000f3fe608060405234801561001057600080fd5b50600436106100365760003560e01c80630b620b811461003b5780638156f8d014610079575b600080fd5b6100776004803603608081101561005157600080fd5b506001600160a01b038135811691602081013582169160408201351690606001356100b7565b005b6100776004803603608081101561008f57600080fd5b506001600160a01b038135811691602081013582169160408201358116916060013516610248565b836001600160a01b031663c1876453846040518263ffffffff1660e01b815260040180826001600160a01b0316815260200191505060206040518083038186803b15801561010457600080fd5b505afa158015610118573d6000803e3d6000fd5b505050506040513d602081101561012e57600080fd5b5051610177576040805162461bcd60e51b815260206004820152601360248201527236bab9ba103132903b30b634b2103a37b5b2b760691b604482015290519081900360640190fd5b826001600160a01b031663a9059cbb83836040518363ffffffff1660e01b815260040180836001600160a01b0316815260200182815260200192505050602060405180830381600087803b1580156101ce57600080fd5b505af11580156101e2573d6000803e3d6000fd5b505050506040513d60208110156101f857600080fd5b5050604080513081526001600160a01b038516602082015280820183905290517fceb40f905f03c5a6b077b5a31bc13cd49c983d828e1b9b2469527963b6cf000f9181900360600190a150505050565b836001600160a01b03166359b311ed826040518263ffffffff1660e01b815260040180826001600160a01b03168152602001915050600060405180830381600087803b15801561029757600080fd5b505af11580156102ab573d6000803e3d6000fd5b505050506102b63090565b6001600160a01b031663e318b52b8484846040518463ffffffff1660e01b815260040180846001600160a01b03168152602001836001600160a01b03168152602001826001600160a01b031681526020019350505050600060405180830381600087803b15801561032657600080fd5b505af115801561033a573d6000803e3d6000fd5b5050604080513081526001600160a01b03808716602083015285168183015290517f130a0d0846ce1b00040fb507fa4f750c31f0165aa1637b53535352a12bd296499350908190036060019150a15050505056fea264697066735822122068fe5f341a92022a40219fca9494f974acc0d50303acae0a809693fea5c3680964736f6c63430008090033",
  "linkReferences": {},
  "deployedLinkReferences": {}
}