{
  "_format": "hh-sol-artifact-1",
  "contractName": "SupplierManager",
  "sourceName": "contracts/SupplierManager.sol",
  "abi": [
    {
      "anonymous": false,
      "inputs": [
        {
          "indexed": true,
          "internalType": "address",
          "name": "previousOwner",
          "type": "address"
        },
        {
          "indexed": true,
          "internalType": "address",
          "name": "newOwner",
          "type": "address"
        }
      ],
      "name": "OwnershipTransferred",
      "type": "event"
    },
    {
      "anonymous": false,
      "inputs": [],
      "name": "Setup",
      "type": "event"
    },
    {
      "anonymous": false,
      "inputs": [
        {
          "indexed": false,
          "internalType": "address",
          "name": "supplier",
          "type": "address"
        },
        {
          "indexed": false,
          "internalType": "string",
          "name": "infoDID",
          "type": "string"
        }
      ],
      "name": "SupplierInfoDIDUpdated",
      "type": "event"
    },
    {
      "anonymous": false,
      "inputs": [
        {
          "indexed": false,
          "internalType": "address",
          "name": "supplier",
          "type": "address"
        },
        {
          "indexed": false,
          "internalType": "address",
          "name": "safe",
          "type": "address"
        }
      ],
      "name": "SupplierSafeCreated",
      "type": "event"
    },
    {
      "inputs": [],
      "name": "bridgeUtils",
      "outputs": [
        {
          "internalType": "address",
          "name": "",
          "type": "address"
        }
      ],
      "stateMutability": "view",
      "type": "function"
    },
    {
      "inputs": [],
      "name": "cardpayVersion",
      "outputs": [
        {
          "internalType": "string",
          "name": "",
          "type": "string"
        }
      ],
      "stateMutability": "view",
      "type": "function"
    },
    {
      "inputs": [],
      "name": "gnosisProxyFactory",
      "outputs": [
        {
          "internalType": "address",
          "name": "",
          "type": "address"
        }
      ],
      "stateMutability": "view",
      "type": "function"
    },
    {
      "inputs": [],
      "name": "gnosisSafe",
      "outputs": [
        {
          "internalType": "address",
          "name": "",
          "type": "address"
        }
      ],
      "stateMutability": "view",
      "type": "function"
    },
    {
      "inputs": [
        {
          "internalType": "address",
          "name": "owner",
          "type": "address"
        }
      ],
      "name": "initialize",
      "outputs": [],
      "stateMutability": "nonpayable",
      "type": "function"
    },
    {
      "inputs": [
        {
          "internalType": "address",
          "name": "supplier",
          "type": "address"
        }
      ],
      "name": "isRegistered",
      "outputs": [
        {
          "internalType": "bool",
          "name": "",
          "type": "bool"
        }
      ],
      "stateMutability": "view",
      "type": "function"
    },
    {
      "inputs": [],
      "name": "owner",
      "outputs": [
        {
          "internalType": "address",
          "name": "",
          "type": "address"
        }
      ],
      "stateMutability": "view",
      "type": "function"
    },
    {
      "inputs": [
        {
          "internalType": "address",
          "name": "supplier",
          "type": "address"
        }
      ],
      "name": "registerSupplier",
      "outputs": [
        {
          "internalType": "address",
          "name": "",
          "type": "address"
        }
      ],
      "stateMutability": "nonpayable",
      "type": "function"
    },
    {
      "inputs": [],
      "name": "renounceOwnership",
      "outputs": [],
      "stateMutability": "nonpayable",
      "type": "function"
    },
    {
      "inputs": [
        {
          "internalType": "address",
          "name": "supplier",
          "type": "address"
        }
      ],
      "name": "safeForSupplier",
      "outputs": [
        {
          "internalType": "address",
          "name": "",
          "type": "address"
        }
      ],
      "stateMutability": "view",
      "type": "function"
    },
    {
      "inputs": [
        {
          "internalType": "address",
          "name": "",
          "type": "address"
        }
      ],
      "name": "safes",
      "outputs": [
        {
          "internalType": "address",
          "name": "",
          "type": "address"
        }
      ],
      "stateMutability": "view",
      "type": "function"
    },
    {
      "inputs": [
        {
          "internalType": "string",
          "name": "infoDID",
          "type": "string"
        }
      ],
      "name": "setSupplierInfoDID",
      "outputs": [
        {
          "internalType": "bool",
          "name": "",
          "type": "bool"
        }
      ],
      "stateMutability": "nonpayable",
      "type": "function"
    },
    {
      "inputs": [
        {
          "internalType": "address",
          "name": "_bridgeUtils",
          "type": "address"
        },
        {
          "internalType": "address",
          "name": "_gsMasterCopy",
          "type": "address"
        },
        {
          "internalType": "address",
          "name": "_gsProxyFactory",
          "type": "address"
        },
        {
          "internalType": "address",
          "name": "_versionManager",
          "type": "address"
        }
      ],
      "name": "setup",
      "outputs": [
        {
          "internalType": "bool",
          "name": "",
          "type": "bool"
        }
      ],
      "stateMutability": "nonpayable",
      "type": "function"
    },
    {
      "inputs": [
        {
          "internalType": "address",
          "name": "",
          "type": "address"
        }
      ],
      "name": "suppliers",
      "outputs": [
        {
          "internalType": "bool",
          "name": "registered",
          "type": "bool"
        },
        {
          "internalType": "address",
          "name": "safe",
          "type": "address"
        },
        {
          "internalType": "string",
          "name": "infoDID",
          "type": "string"
        }
      ],
      "stateMutability": "view",
      "type": "function"
    },
    {
      "inputs": [
        {
          "internalType": "address",
          "name": "newOwner",
          "type": "address"
        }
      ],
      "name": "transferOwnership",
      "outputs": [],
      "stateMutability": "nonpayable",
      "type": "function"
    },
    {
      "inputs": [],
      "name": "versionManager",
      "outputs": [
        {
          "internalType": "address",
          "name": "",
          "type": "address"
        }
      ],
      "stateMutability": "view",
      "type": "function"
    }
  ],
  "bytecode": "0x608060405234801561001057600080fd5b506111ac806100206000396000f3fe608060405234801561001057600080fd5b50600436106101005760003560e01c8063a9ae68ac11610097578063f16e307511610066578063f16e307514610400578063f2fde38b14610413578063f47f43fd14610439578063fff3f2c91461046f57600080fd5b8063a9ae68ac1461036b578063c3c5a5471461037e578063c4d66de8146103b4578063cf7f5e5f146103da57600080fd5b80636f5fac40116100d35780636f5fac40146102c0578063715018a61461033d5780638da5cb5b14610347578063a84173ae1461035857600080fd5b80630499a8c61461010557806316dc15fe146101475780632fa299c3146101fe57806354c35a3c14610282575b600080fd5b61012b6004803603602081101561011b57600080fd5b50356001600160a01b0316610482565b604080516001600160a01b039092168252519081900360200190f35b61016d6004803603602081101561015d57600080fd5b50356001600160a01b03166104ce565b604051808415158152602001836001600160a01b0316815260200180602001828103825283818151815260200191508051906020019080838360005b838110156101c15781810151838201526020016101a9565b50505050905090810190601f1680156101ee5780820380516001836020036101000a031916815260200191505b5094505050505060405180910390f35b61026e6004803603602081101561021457600080fd5b81019060208101813564010000000081111561022f57600080fd5b82018360208201111561024157600080fd5b8035906020019184600183028401116401000000008311171561026357600080fd5b509092509050610587565b604080519115158252519081900360200190f35b61026e6004803603608081101561029857600080fd5b506001600160a01b038135811691602081013582169160408201358116916060013516610762565b6102c8610816565b6040805160208082528351818301528351919283929083019185019080838360005b838110156103025781810151838201526020016102ea565b50505050905090810190601f16801561032f5780820380516001836020036101000a031916815260200191505b509250505060405180910390f35b61034561094d565b005b6033546001600160a01b031661012b565b60985461012b906001600160a01b031681565b60ce5461012b906001600160a01b031681565b61026e6004803603602081101561039457600080fd5b50356001600160a01b0316600090815260cc602052604090205460ff1690565b610345600480360360208110156103ca57600080fd5b50356001600160a01b0316610983565b61012b600480360360208110156103f057600080fd5b50356001600160a01b0316610a46565b60995461012b906001600160a01b031681565b6103456004803603602081101561042957600080fd5b50356001600160a01b0316610ab6565b61012b6004803603602081101561044f57600080fd5b5060cd6020526001600160a01b0390358116600090815260409020541681565b60cf5461012b906001600160a01b031681565b6001600160a01b038116600090815260cc602052604081205460ff166104aa57506000919050565b506001600160a01b03908116600090815260cc602052604090205461010090041690565b60cc602052600090815260409020805460018201805460ff8316936101009093046001600160a01b031692919061050490611082565b80601f016020809104026020016040519081016040528092919081815260200182805461053090611082565b801561057d5780601f106105525761010080835404028352916020019161057d565b820191906000526020600020905b81548152906001019060200180831161056057829003601f168201915b5050505050905083565b33600090815260cd60205260408120546001600160a01b03166105f1576040805162461bcd60e51b815260206004820152601d60248201527f63616c6c6572206973206e6f74206120737570706c6965722073616665000000604482015290519081900360640190fd5b33600081815260cd60205260409020546001600160a01b031680610652576040805162461bcd60e51b815260206004820152601360248201527214dd5c1c1b1a595c881a5cc81a5b9d985b1a59606a1b604482015290519081900360640190fd5b6001600160a01b038116600090815260cc602052604090205460ff166106bf576040805162461bcd60e51b815260206004820152601d60248201527f446f206e6f74206861766520737570706c69657220666f722073616665000000604482015290519081900360640190fd5b6001600160a01b038116600090815260cc602052604090206106e5906001018686610fe9565b507ff070c62df02071a0912e5f6567a812b2d6ebfd4c4be01925786637e701c1d6f581868660405180846001600160a01b03168152602001806020018281038252848482818152602001925080828437600083820152604051601f909101601f1916909201829003965090945050505050a1506001949350505050565b6033546000906001600160a01b031633146107985760405162461bcd60e51b815260040161078f906110bd565b60405180910390fd5b60ce80546001600160a01b03199081166001600160a01b038881169190911790925560cf80548216858416179055609980548216868416179055609880549091169186169190911790556040517f587930504fa5b1062f394d90f9dac9ecadd354ed23a97af9ea4e44dff4870a8490600090a1506001949350505050565b60cf546040805163054fd4d560e41b815290516060926001600160a01b0316916354fd4d50916004808301926000929190829003018186803b15801561085b57600080fd5b505afa15801561086f573d6000803e3d6000fd5b505050506040513d6000823e601f3d908101601f19168201604052602081101561089857600080fd5b81019080805160405193929190846401000000008211156108b857600080fd5b9083019060208201858111156108cd57600080fd5b82516401000000008111828201881017156108e757600080fd5b82525081516020918201929091019080838360005b838110156109145781810151838201526020016108fc565b50505050905090810190601f1680156109415780820380516001836020036101000a031916815260200191505b50604052505050905090565b6033546001600160a01b031633146109775760405162461bcd60e51b815260040161078f906110bd565b6109816000610b51565b565b600054610100900460ff1661099e5760005460ff16156109a2565b303b155b610a055760405162461bcd60e51b815260206004820152602e60248201527f496e697469616c697a61626c653a20636f6e747261637420697320616c72656160448201526d191e481a5b9a5d1a585b1a5e995960921b606482015260840161078f565b600054610100900460ff16158015610a27576000805461ffff19166101011790555b610a3082610ba3565b8015610a42576000805461ff00191690555b5050565b60ce546000906001600160a01b0316331480610a6c57506033546001600160a01b031633145b610aa75760405162461bcd60e51b81526004018080602001828103825260238152602001806111546023913960400191505060405180910390fd5b610ab082610beb565b92915050565b6033546001600160a01b03163314610ae05760405162461bcd60e51b815260040161078f906110bd565b6001600160a01b038116610b455760405162461bcd60e51b815260206004820152602660248201527f4f776e61626c653a206e6577206f776e657220697320746865207a65726f206160448201526564647265737360d01b606482015260840161078f565b610b4e81610b51565b50565b603380546001600160a01b038381166001600160a01b0319831681179093556040519116919082907f8be0079c531659141344cd1fd0a4f28419497f9722a3daafe3b4186f6b6457e090600090a35050565b600054610100900460ff16610bca5760405162461bcd60e51b815260040161078f906110f2565b610bd2610c8c565b336001600160a01b03821614610b4e57610b4e81610b51565b600080610bf783610cc3565b6001600160a01b03848116600081815260cc60209081526040808320805460016001600160a81b03199091166101009789169788021717905584835260cd82529182902080546001600160a01b03191684179055815192835282019290925281519293507f90187a1b02fb8e1331951f26b02bb5b7bed0ca7b29f62d0e27208fc8ed1690ef929081900390910190a192915050565b600054610100900460ff16610cb35760405162461bcd60e51b815260040161078f906110f2565b610cbb610d2e565b610981610d55565b604080516001808252818301909252600091829190602080830190803683370190505090508281600081518110610cfc57610cfc61113d565b60200260200101906001600160a01b031690816001600160a01b031681525050610d27816001610d85565b9392505050565b600054610100900460ff166109815760405162461bcd60e51b815260040161078f906110f2565b600054610100900460ff16610d7c5760405162461bcd60e51b815260040161078f906110f2565b61098133610b51565b60008063b63e800d60e01b848460008060008060006040516024018080602001888152602001876001600160a01b0316815260200180602001876001600160a01b03168152602001866001600160a01b03168152602001858152602001846001600160a01b0316815260200183810383528a818151815260200191508051906020019060200280838360005b83811015610e29578181015183820152602001610e11565b505050509050018381038252600081526020019950505050505050505050604051602081830303815290604052906001600160e01b0319166020820180516001600160e01b03838183161783525050505090506000609960009054906101000a90046001600160a01b03166001600160a01b03166361b69abd609860009054906101000a90046001600160a01b0316846040518363ffffffff1660e01b815260040180836001600160a01b0316815260200180602001828103825283818151815260200191508051906020019080838360005b83811015610f14578181015183820152602001610efc565b50505050905090810190601f168015610f415780820380516001836020036101000a031916815260200191505b509350505050602060405180830381600087803b158015610f6157600080fd5b505af1158015610f75573d6000803e3d6000fd5b505050506040513d6020811015610f8b57600080fd5b505190506001600160a01b038116610fe1576040805162461bcd60e51b815260206004820152601460248201527310dc99585d1948184814d859994819985a5b195960621b604482015290519081900360640190fd5b949350505050565b828054610ff590611082565b90600052602060002090601f016020900481019282611017576000855561105d565b82601f106110305782800160ff1982351617855561105d565b8280016001018555821561105d579182015b8281111561105d578235825591602001919060010190611042565b5061106992915061106d565b5090565b5b80821115611069576000815560010161106e565b600181811c9082168061109657607f821691505b602082108114156110b757634e487b7160e01b600052602260045260246000fd5b50919050565b6020808252818101527f4f776e61626c653a2063616c6c6572206973206e6f7420746865206f776e6572604082015260600190565b6020808252602b908201527f496e697469616c697a61626c653a20636f6e7472616374206973206e6f74206960408201526a6e697469616c697a696e6760a81b606082015260800190565b634e487b7160e01b600052603260045260246000fdfe63616c6c6572206973206e6f74204272696467655574696c73206e6f72206f776e6572a2646970667358221220146bbc471751e5983fb5c31669dae5ac451f2dc45cb60e1afca09b275408c42b64736f6c63430008090033",
  "linkReferences": {},
  "deployedLinkReferences": {}
}