{
  "_format": "hh-sol-artifact-1",
  "contractName": "TokenManager",
  "sourceName": "contracts/TokenManager.sol",
  "abi": [
    {
      "anonymous": false,
      "inputs": [
        {
          "indexed": true,
          "internalType": "address",
          "name": "bridgeUtils",
          "type": "address"
        }
      ],
      "name": "BridgeUtilsSet",
      "type": "event"
    },
    {
      "anonymous": false,
      "inputs": [
        {
          "indexed": true,
          "internalType": "address",
          "name": "previousOwner",
          "type": "address"
        },
        {
          "indexed": true,
          "internalType": "address",
          "name": "newOwner",
          "type": "address"
        }
      ],
      "name": "OwnershipTransferred",
      "type": "event"
    },
    {
      "anonymous": false,
      "inputs": [
        {
          "indexed": true,
          "internalType": "address",
          "name": "token",
          "type": "address"
        }
      ],
      "name": "PayableTokenAdded",
      "type": "event"
    },
    {
      "anonymous": false,
      "inputs": [
        {
          "indexed": true,
          "internalType": "address",
          "name": "token",
          "type": "address"
        }
      ],
      "name": "PayableTokenRemoved",
      "type": "event"
    },
    {
      "inputs": [
        {
          "internalType": "address",
          "name": "_token",
          "type": "address"
        }
      ],
      "name": "addPayableToken",
      "outputs": [
        {
          "internalType": "bool",
          "name": "",
          "type": "bool"
        }
      ],
      "stateMutability": "nonpayable",
      "type": "function"
    },
    {
      "inputs": [],
      "name": "bridgeUtils",
      "outputs": [
        {
          "internalType": "address",
          "name": "",
          "type": "address"
        }
      ],
      "stateMutability": "view",
      "type": "function"
    },
    {
      "inputs": [],
      "name": "cardpayVersion",
      "outputs": [
        {
          "internalType": "string",
          "name": "",
          "type": "string"
        }
      ],
      "stateMutability": "view",
      "type": "function"
    },
    {
      "inputs": [],
      "name": "getTokens",
      "outputs": [
        {
          "internalType": "address[]",
          "name": "",
          "type": "address[]"
        }
      ],
      "stateMutability": "view",
      "type": "function"
    },
    {
      "inputs": [
        {
          "internalType": "address",
          "name": "owner",
          "type": "address"
        }
      ],
      "name": "initialize",
      "outputs": [],
      "stateMutability": "nonpayable",
      "type": "function"
    },
    {
      "inputs": [],
      "name": "isBridgeUtils",
      "outputs": [
        {
          "internalType": "bool",
          "name": "",
          "type": "bool"
        }
      ],
      "stateMutability": "view",
      "type": "function"
    },
    {
      "inputs": [
        {
          "internalType": "address",
          "name": "token",
          "type": "address"
        }
      ],
      "name": "isValidToken",
      "outputs": [
        {
          "internalType": "bool",
          "name": "",
          "type": "bool"
        }
      ],
      "stateMutability": "view",
      "type": "function"
    },
    {
      "inputs": [],
      "name": "owner",
      "outputs": [
        {
          "internalType": "address",
          "name": "",
          "type": "address"
        }
      ],
      "stateMutability": "view",
      "type": "function"
    },
    {
      "inputs": [
        {
          "internalType": "address",
          "name": "_token",
          "type": "address"
        }
      ],
      "name": "removePayableToken",
      "outputs": [
        {
          "internalType": "bool",
          "name": "",
          "type": "bool"
        }
      ],
      "stateMutability": "nonpayable",
      "type": "function"
    },
    {
      "inputs": [],
      "name": "renounceOwnership",
      "outputs": [],
      "stateMutability": "nonpayable",
      "type": "function"
    },
    {
      "inputs": [
        {
          "internalType": "address",
          "name": "_bridgeUtils",
          "type": "address"
        },
        {
          "internalType": "address[]",
          "name": "_payableTokens",
          "type": "address[]"
        },
        {
          "internalType": "address",
          "name": "_versionManager",
          "type": "address"
        }
      ],
      "name": "setup",
      "outputs": [],
      "stateMutability": "nonpayable",
      "type": "function"
    },
    {
      "inputs": [
        {
          "internalType": "address",
          "name": "newOwner",
          "type": "address"
        }
      ],
      "name": "transferOwnership",
      "outputs": [],
      "stateMutability": "nonpayable",
      "type": "function"
    },
    {
      "inputs": [],
      "name": "versionManager",
      "outputs": [
        {
          "internalType": "address",
          "name": "",
          "type": "address"
        }
      ],
      "stateMutability": "view",
      "type": "function"
    }
  ],
  "bytecode": "0x608060405234801561001057600080fd5b50610cc3806100206000396000f3fe608060405234801561001057600080fd5b50600436106100cf5760003560e01c80638da5cb5b1161008c578063c187645311610066578063c1876453146102eb578063c4d66de814610311578063f2fde38b14610337578063fff3f2c91461035d57600080fd5b80638da5cb5b14610257578063a9ae68ac14610280578063aa6ca8081461029357600080fd5b806313201385146100d45780634c62d8d51461010e5780636f5fac4014610121578063715018a61461019e578063789af2c4146101a85780637dd4ca64146101ce575b600080fd5b6100fa600480360360208110156100ea57600080fd5b50356001600160a01b0316610370565b604080519115158252519081900360200190f35b609a546001600160a01b031633146100fa565b6101296103f6565b6040805160208082528351818301528351919283929083019185019080838360005b8381101561016357818101518382015260200161014b565b50505050905090810190601f1680156101905780820380516001836020036101000a031916815260200191505b509250505060405180910390f35b6101a661052d565b005b6100fa600480360360208110156101be57600080fd5b50356001600160a01b031661056c565b6101a6600480360360608110156101e457600080fd5b6001600160a01b03823516919081019060408101602082013564010000000081111561020f57600080fd5b82018360208201111561022157600080fd5b8035906020019184602083028401116401000000008311171561024357600080fd5b9193509150356001600160a01b03166105a2565b6033546001600160a01b03165b604080516001600160a01b039092168252519081900360200190f35b609a54610264906001600160a01b031681565b61029b610672565b60408051602080825283518183015283519192839290830191858101910280838360005b838110156102d75781810151838201526020016102bf565b505050509050019250505060405180910390f35b6100fa6004803603602081101561030157600080fd5b50356001600160a01b0316610683565b6101a66004803603602081101561032757600080fd5b50356001600160a01b03166106a3565b6101a66004803603602081101561034d57600080fd5b50356001600160a01b0316610766565b609b54610264906001600160a01b031681565b609a546000906001600160a01b031633148061039657506033546001600160a01b031633145b6103e7576040805162461bcd60e51b815260206004820152601960248201527f63616c6c6572206973206e6f74204272696467655574696c7300000000000000604482015290519081900360640190fd5b6103f082610801565b92915050565b609b546040805163054fd4d560e41b815290516060926001600160a01b0316916354fd4d50916004808301926000929190829003018186803b15801561043b57600080fd5b505afa15801561044f573d6000803e3d6000fd5b505050506040513d6000823e601f3d908101601f19168201604052602081101561047857600080fd5b810190808051604051939291908464010000000082111561049857600080fd5b9083019060208201858111156104ad57600080fd5b82516401000000008111828201881017156104c757600080fd5b82525081516020918201929091019080838360005b838110156104f45781810151838201526020016104dc565b50505050905090810190601f1680156105215780820380516001836020036101000a031916815260200191505b50604052505050905090565b6033546001600160a01b031633146105605760405162461bcd60e51b815260040161055790610b99565b60405180910390fd5b61056a600061084b565b565b6033546000906001600160a01b031633146105995760405162461bcd60e51b815260040161055790610b99565b6103f08261089d565b6033546001600160a01b031633146105cc5760405162461bcd60e51b815260040161055790610b99565b609a80546001600160a01b038087166001600160a01b03199283168117909355609b8054918516919092161790556040517fb1cb4912c379ef5e9a531137b0ed823e71b0e5aed97cd3b2ae31d92771f4a3bc90600090a260005b8281101561066b5761065884848381811061064357610643610bce565b905060200201356001600160a01b0316610801565b508061066381610bfa565b915050610626565b5050505050565b606061067e60986108e7565b905090565b6001600160a01b03811660009081526099602052604081205415156103f0565b600054610100900460ff166106be5760005460ff16156106c2565b303b155b6107255760405162461bcd60e51b815260206004820152602e60248201527f496e697469616c697a61626c653a20636f6e747261637420697320616c72656160448201526d191e481a5b9a5d1a585b1a5e995960921b6064820152608401610557565b600054610100900460ff16158015610747576000805461ffff19166101011790555b610750826108fb565b8015610762576000805461ff00191690555b5050565b6033546001600160a01b031633146107905760405162461bcd60e51b815260040161055790610b99565b6001600160a01b0381166107f55760405162461bcd60e51b815260206004820152602660248201527f4f776e61626c653a206e6577206f776e657220697320746865207a65726f206160448201526564647265737360d01b6064820152608401610557565b6107fe8161084b565b50565b600061080e609883610943565b506040516001600160a01b038316907f4391989ad9f3ad143d6104c7362fec581a9532178ff3dde7ae3bc1c024bbbc7990600090a2506001919050565b603380546001600160a01b038381166001600160a01b0319831681179093556040519116919082907f8be0079c531659141344cd1fd0a4f28419497f9722a3daafe3b4186f6b6457e090600090a35050565b60006108aa609883610958565b506040516001600160a01b038316907f7303d4793b190122e9eaf43c7731dd005a8e719742fa06e294d584db4eb0256a90600090a2506001919050565b606060006108f48361096d565b9392505050565b600054610100900460ff166109225760405162461bcd60e51b815260040161055790610c15565b61092a6109c9565b336001600160a01b038216146107fe576107fe8161084b565b60006108f4836001600160a01b038416610a00565b60006108f4836001600160a01b038416610a4f565b6060816000018054806020026020016040519081016040528092919081815260200182805480156109bd57602002820191906000526020600020905b8154815260200190600101908083116109a9575b50505050509050919050565b600054610100900460ff166109f05760405162461bcd60e51b815260040161055790610c15565b6109f8610b42565b61056a610b69565b6000818152600183016020526040812054610a47575081546001818101845560008481526020808220909301849055845484825282860190935260409020919091556103f0565b5060006103f0565b60008181526001830160205260408120548015610b38576000610a73600183610c60565b8554909150600090610a8790600190610c60565b9050818114610aec576000866000018281548110610aa757610aa7610bce565b9060005260206000200154905080876000018481548110610aca57610aca610bce565b6000918252602080832090910192909255918252600188019052604090208390555b8554869080610afd57610afd610c77565b6001900381819060005260206000200160009055905585600101600086815260200190815260200160002060009055600193505050506103f0565b60009150506103f0565b600054610100900460ff1661056a5760405162461bcd60e51b815260040161055790610c15565b600054610100900460ff16610b905760405162461bcd60e51b815260040161055790610c15565b61056a3361084b565b6020808252818101527f4f776e61626c653a2063616c6c6572206973206e6f7420746865206f776e6572604082015260600190565b634e487b7160e01b600052603260045260246000fd5b634e487b7160e01b600052601160045260246000fd5b6000600019821415610c0e57610c0e610be4565b5060010190565b6020808252602b908201527f496e697469616c697a61626c653a20636f6e7472616374206973206e6f74206960408201526a6e697469616c697a696e6760a81b606082015260800190565b600082821015610c7257610c72610be4565b500390565b634e487b7160e01b600052603160045260246000fdfea26469706673582212202e555f0db5a7c4493be84b1ae43534a0b69e35464119dfb3eb7f4a944780709264736f6c63430008090033",
  "linkReferences": {},
  "deployedLinkReferences": {}
}