{
  "_format": "hh-sol-artifact-1",
  "contractName": "VersionManager",
  "sourceName": "contracts/VersionManager.sol",
  "abi": [
    {
      "anonymous": false,
      "inputs": [
        {
          "indexed": true,
          "internalType": "address",
          "name": "previousOwner",
          "type": "address"
        },
        {
          "indexed": true,
          "internalType": "address",
          "name": "newOwner",
          "type": "address"
        }
      ],
      "name": "OwnershipTransferred",
      "type": "event"
    },
    {
      "anonymous": false,
      "inputs": [
        {
          "indexed": false,
          "internalType": "string",
          "name": "version",
          "type": "string"
        }
      ],
      "name": "VersionUpdate",
      "type": "event"
    },
    {
      "inputs": [
        {
          "internalType": "address",
          "name": "owner",
          "type": "address"
        }
      ],
      "name": "initialize",
      "outputs": [],
      "stateMutability": "nonpayable",
      "type": "function"
    },
    {
      "inputs": [],
      "name": "owner",
      "outputs": [
        {
          "internalType": "address",
          "name": "",
          "type": "address"
        }
      ],
      "stateMutability": "view",
      "type": "function"
    },
    {
      "inputs": [],
      "name": "renounceOwnership",
      "outputs": [],
      "stateMutability": "nonpayable",
      "type": "function"
    },
    {
      "inputs": [
        {
          "internalType": "string",
          "name": "_version",
          "type": "string"
        }
      ],
      "name": "setVersion",
      "outputs": [],
      "stateMutability": "nonpayable",
      "type": "function"
    },
    {
      "inputs": [
        {
          "internalType": "address",
          "name": "newOwner",
          "type": "address"
        }
      ],
      "name": "transferOwnership",
      "outputs": [],
      "stateMutability": "nonpayable",
      "type": "function"
    },
    {
      "inputs": [],
      "name": "version",
      "outputs": [
        {
          "internalType": "string",
          "name": "",
          "type": "string"
        }
      ],
      "stateMutability": "view",
      "type": "function"
    }
  ],
  "bytecode": "0x608060405234801561001057600080fd5b50610835806100206000396000f3fe608060405234801561001057600080fd5b50600436106100625760003560e01c806354fd4d5014610067578063715018a6146100e4578063788bc78c146100ee5780638da5cb5b1461015e578063c4d66de814610186578063f2fde38b146101ac575b600080fd5b61006f6101d2565b6040805160208082528351818301528351919283929083019185019080838360005b838110156100a9578181015183820152602001610091565b50505050905090810190601f1680156100d65780820380516001836020036101000a031916815260200191505b509250505060405180910390f35b6100ec610260565b005b6100ec6004803603602081101561010457600080fd5b81019060208101813564010000000081111561011f57600080fd5b82018360208201111561013157600080fd5b8035906020019184600183028401116401000000008311171561015357600080fd5b50909250905061029f565b6033546001600160a01b0316604080516001600160a01b039092168252519081900360200190f35b6100ec6004803603602081101561019c57600080fd5b50356001600160a01b0316610384565b6100ec600480360360208110156101c257600080fd5b50356001600160a01b0316610474565b606680546101df90610744565b80601f016020809104026020016040519081016040528092919081815260200182805461020b90610744565b80156102585780601f1061022d57610100808354040283529160200191610258565b820191906000526020600020905b81548152906001019060200180831161023b57829003601f168201915b505050505081565b6033546001600160a01b031633146102935760405162461bcd60e51b815260040161028a9061077f565b60405180910390fd5b61029d600061050f565b565b6033546001600160a01b031633146102c95760405162461bcd60e51b815260040161028a9061077f565b6102d560668383610637565b507f0906cc57db3d7e2ba7b67825023c149f56c98c9de1fcf2bb5d7b5e44427f903b6066604051808060200182810382528381815461031390610744565b81526020019150805461032590610744565b80156103725780601f1061034757610100808354040283529160200191610372565b820191906000526020600020905b81548152906001019060200180831161035557829003601f168201915b50509250505060405180910390a15050565b600054610100900460ff1661039f5760005460ff16156103a3565b303b155b6104065760405162461bcd60e51b815260206004820152602e60248201527f496e697469616c697a61626c653a20636f6e747261637420697320616c72656160448201526d191e481a5b9a5d1a585b1a5e995960921b606482015260840161028a565b600054610100900460ff16158015610428576000805461ffff19166101011790555b60408051808201909152600580825264302e382e3360d81b6020909201918252610454916066916106bb565b5061045e82610561565b8015610470576000805461ff00191690555b5050565b6033546001600160a01b0316331461049e5760405162461bcd60e51b815260040161028a9061077f565b6001600160a01b0381166105035760405162461bcd60e51b815260206004820152602660248201527f4f776e61626c653a206e6577206f776e657220697320746865207a65726f206160448201526564647265737360d01b606482015260840161028a565b61050c8161050f565b50565b603380546001600160a01b038381166001600160a01b0319831681179093556040519116919082907f8be0079c531659141344cd1fd0a4f28419497f9722a3daafe3b4186f6b6457e090600090a35050565b600054610100900460ff166105885760405162461bcd60e51b815260040161028a906107b4565b6105906105a9565b336001600160a01b0382161461050c5761050c8161050f565b600054610100900460ff166105d05760405162461bcd60e51b815260040161028a906107b4565b6105d86105e0565b61029d610607565b600054610100900460ff1661029d5760405162461bcd60e51b815260040161028a906107b4565b600054610100900460ff1661062e5760405162461bcd60e51b815260040161028a906107b4565b61029d3361050f565b82805461064390610744565b90600052602060002090601f01602090048101928261066557600085556106ab565b82601f1061067e5782800160ff198235161785556106ab565b828001600101855582156106ab579182015b828111156106ab578235825591602001919060010190610690565b506106b792915061072f565b5090565b8280546106c790610744565b90600052602060002090601f0160209004810192826106e957600085556106ab565b82601f1061070257805160ff19168380011785556106ab565b828001600101855582156106ab579182015b828111156106ab578251825591602001919060010190610714565b5b808211156106b75760008155600101610730565b600181811c9082168061075857607f821691505b6020821081141561077957634e487b7160e01b600052602260045260246000fd5b50919050565b6020808252818101527f4f776e61626c653a2063616c6c6572206973206e6f7420746865206f776e6572604082015260600190565b6020808252602b908201527f496e697469616c697a61626c653a20636f6e7472616374206973206e6f74206960408201526a6e697469616c697a696e6760a81b60608201526080019056fea264697066735822122096c31ee8434f711edc29e066ceeae6d4e5bd47a3305c9f2692648566358c087764736f6c63430008090033",
  "linkReferences": {},
  "deployedLinkReferences": {}
}