{
  "_format": "hh-sol-artifact-1",
  "contractName": "RewardManager",
  "sourceName": "contracts/RewardManager.sol",
  "abi": [
    {
      "anonymous": false,
      "inputs": [
        {
          "indexed": false,
          "internalType": "uint8",
          "name": "version",
          "type": "uint8"
        }
      ],
      "name": "Initialized",
      "type": "event"
    },
    {
      "anonymous": false,
      "inputs": [
        {
          "indexed": true,
          "internalType": "address",
          "name": "previousOwner",
          "type": "address"
        },
        {
          "indexed": true,
          "internalType": "address",
          "name": "newOwner",
          "type": "address"
        }
      ],
      "name": "OwnershipTransferred",
      "type": "event"
    },
    {
      "anonymous": false,
      "inputs": [
        {
          "indexed": false,
          "internalType": "address",
          "name": "rewardProgramID",
          "type": "address"
        },
        {
          "indexed": false,
          "internalType": "address",
          "name": "newAdmin",
          "type": "address"
        }
      ],
      "name": "RewardProgramAdminUpdated",
      "type": "event"
    },
    {
      "anonymous": false,
      "inputs": [
        {
          "indexed": false,
          "internalType": "address",
          "name": "rewardProgramID",
          "type": "address"
        },
        {
          "indexed": false,
          "internalType": "address",
          "name": "admin",
          "type": "address"
        }
      ],
      "name": "RewardProgramCreated",
      "type": "event"
    },
    {
      "anonymous": false,
      "inputs": [
        {
          "indexed": false,
          "internalType": "address",
          "name": "rewardProgramID",
          "type": "address"
        }
      ],
      "name": "RewardProgramLocked",
      "type": "event"
    },
    {
      "anonymous": false,
      "inputs": [
        {
          "indexed": false,
          "internalType": "address",
          "name": "rewardProgramID",
          "type": "address"
        }
      ],
      "name": "RewardProgramRemoved",
      "type": "event"
    },
    {
      "anonymous": false,
      "inputs": [
        {
          "indexed": false,
          "internalType": "address",
          "name": "rewardProgramID",
          "type": "address"
        },
        {
          "indexed": false,
          "internalType": "bytes",
          "name": "blob",
          "type": "bytes"
        }
      ],
      "name": "RewardRuleAdded",
      "type": "event"
    },
    {
      "anonymous": false,
      "inputs": [
        {
          "indexed": false,
          "internalType": "address",
          "name": "rewardProgramID",
          "type": "address"
        },
        {
          "indexed": false,
          "internalType": "address",
          "name": "rewardee",
          "type": "address"
        },
        {
          "indexed": false,
          "internalType": "address",
          "name": "rewardSafe",
          "type": "address"
        }
      ],
      "name": "RewardeeRegistered",
      "type": "event"
    },
    {
      "anonymous": false,
      "inputs": [],
      "name": "Setup",
      "type": "event"
    },
    {
      "inputs": [],
      "name": "actionDispatcher",
      "outputs": [
        {
          "internalType": "address",
          "name": "",
          "type": "address"
        }
      ],
      "stateMutability": "view",
      "type": "function"
    },
    {
      "inputs": [
        {
          "internalType": "address",
          "name": "rewardProgramID",
          "type": "address"
        },
        {
          "internalType": "bytes",
          "name": "blob",
          "type": "bytes"
        }
      ],
      "name": "addRewardRule",
      "outputs": [],
      "stateMutability": "nonpayable",
      "type": "function"
    },
    {
      "inputs": [],
      "name": "cardpayVersion",
      "outputs": [
        {
          "internalType": "string",
          "name": "",
          "type": "string"
        }
      ],
      "stateMutability": "view",
      "type": "function"
    },
    {
      "inputs": [
        {
          "internalType": "bytes",
          "name": "signature",
          "type": "bytes"
        }
      ],
      "name": "encodeTransactionData",
      "outputs": [
        {
          "internalType": "address",
          "name": "",
          "type": "address"
        },
        {
          "internalType": "bytes",
          "name": "",
          "type": "bytes"
        },
        {
          "internalType": "enum Enum.Operation",
          "name": "",
          "type": "uint8"
        },
        {
          "internalType": "bytes",
          "name": "",
          "type": "bytes"
        }
      ],
      "stateMutability": "view",
      "type": "function"
    },
    {
      "inputs": [],
      "name": "getEip1271Contracts",
      "outputs": [
        {
          "internalType": "address[]",
          "name": "",
          "type": "address[]"
        }
      ],
      "stateMutability": "view",
      "type": "function"
    },
    {
      "inputs": [
        {
          "internalType": "address payable",
          "name": "rewardSafe",
          "type": "address"
        }
      ],
      "name": "getRewardSafeOwner",
      "outputs": [
        {
          "internalType": "address",
          "name": "",
          "type": "address"
        }
      ],
      "stateMutability": "view",
      "type": "function"
    },
    {
      "inputs": [],
      "name": "gnosisProxyFactory",
      "outputs": [
        {
          "internalType": "address",
          "name": "",
          "type": "address"
        }
      ],
      "stateMutability": "view",
      "type": "function"
    },
    {
      "inputs": [],
      "name": "gnosisSafe",
      "outputs": [
        {
          "internalType": "address",
          "name": "",
          "type": "address"
        }
      ],
      "stateMutability": "view",
      "type": "function"
    },
    {
      "inputs": [],
      "name": "governanceAdmin",
      "outputs": [
        {
          "internalType": "address",
          "name": "",
          "type": "address"
        }
      ],
      "stateMutability": "view",
      "type": "function"
    },
    {
      "inputs": [
        {
          "internalType": "address",
          "name": "owner",
          "type": "address"
        }
      ],
      "name": "initialize",
      "outputs": [],
      "stateMutability": "nonpayable",
      "type": "function"
    },
    {
      "inputs": [
        {
          "internalType": "address",
          "name": "rewardProgramID",
          "type": "address"
        }
      ],
      "name": "isRewardProgram",
      "outputs": [
        {
          "internalType": "bool",
          "name": "",
          "type": "bool"
        }
      ],
      "stateMutability": "view",
      "type": "function"
    },
    {
      "inputs": [
        {
          "internalType": "address payable",
          "name": "rewardSafe",
          "type": "address"
        },
        {
          "internalType": "address",
          "name": "rewardProgramID",
          "type": "address"
        }
      ],
      "name": "isValidRewardSafe",
      "outputs": [
        {
          "internalType": "bool",
          "name": "",
          "type": "bool"
        }
      ],
      "stateMutability": "view",
      "type": "function"
    },
    {
      "inputs": [
        {
          "internalType": "bytes",
          "name": "data",
          "type": "bytes"
        },
        {
          "internalType": "bytes",
          "name": "signature",
          "type": "bytes"
        }
      ],
      "name": "isValidSignature",
      "outputs": [
        {
          "internalType": "bytes4",
          "name": "",
          "type": "bytes4"
        }
      ],
      "stateMutability": "view",
      "type": "function"
    },
    {
      "inputs": [
        {
          "internalType": "address",
          "name": "tokenAddress",
          "type": "address"
        }
      ],
      "name": "isValidToken",
      "outputs": [
        {
          "internalType": "bool",
          "name": "",
          "type": "bool"
        }
      ],
      "stateMutability": "view",
      "type": "function"
    },
    {
      "inputs": [
        {
          "internalType": "address",
          "name": "rewardProgramID",
          "type": "address"
        }
      ],
      "name": "lockRewardProgram",
      "outputs": [],
      "stateMutability": "nonpayable",
      "type": "function"
    },
    {
      "inputs": [
        {
          "internalType": "address",
          "name": "",
          "type": "address"
        },
        {
          "internalType": "address",
          "name": "",
          "type": "address"
        }
      ],
      "name": "ownedRewardSafes",
      "outputs": [
        {
          "internalType": "address",
          "name": "",
          "type": "address"
        }
      ],
      "stateMutability": "view",
      "type": "function"
    },
    {
      "inputs": [],
      "name": "owner",
      "outputs": [
        {
          "internalType": "address",
          "name": "",
          "type": "address"
        }
      ],
      "stateMutability": "view",
      "type": "function"
    },
    {
      "inputs": [
        {
          "internalType": "address",
          "name": "admin",
          "type": "address"
        },
        {
          "internalType": "address",
          "name": "rewardProgramID",
          "type": "address"
        }
      ],
      "name": "registerRewardProgram",
      "outputs": [],
      "stateMutability": "nonpayable",
      "type": "function"
    },
    {
      "inputs": [
        {
          "internalType": "address",
          "name": "rewardProgramID",
          "type": "address"
        },
        {
          "internalType": "address",
          "name": "prepaidCardOwner",
          "type": "address"
        }
      ],
      "name": "registerRewardee",
      "outputs": [
        {
          "internalType": "address",
          "name": "",
          "type": "address"
        }
      ],
      "stateMutability": "nonpayable",
      "type": "function"
    },
    {
      "inputs": [
        {
          "internalType": "address",
          "name": "rewardProgramID",
          "type": "address"
        }
      ],
      "name": "removeRewardProgram",
      "outputs": [],
      "stateMutability": "nonpayable",
      "type": "function"
    },
    {
      "inputs": [],
      "name": "renounceOwnership",
      "outputs": [],
      "stateMutability": "nonpayable",
      "type": "function"
    },
    {
      "inputs": [],
      "name": "rewardFeeReceiver",
      "outputs": [
        {
          "internalType": "address payable",
          "name": "",
          "type": "address"
        }
      ],
      "stateMutability": "view",
      "type": "function"
    },
    {
      "inputs": [
        {
          "internalType": "address",
          "name": "",
          "type": "address"
        }
      ],
      "name": "rewardProgramAdmins",
      "outputs": [
        {
          "internalType": "address",
          "name": "",
          "type": "address"
        }
      ],
      "stateMutability": "view",
      "type": "function"
    },
    {
      "inputs": [
        {
          "internalType": "address",
          "name": "",
          "type": "address"
        }
      ],
      "name": "rewardProgramLocked",
      "outputs": [
        {
          "internalType": "bool",
          "name": "",
          "type": "bool"
        }
      ],
      "stateMutability": "view",
      "type": "function"
    },
    {
      "inputs": [],
      "name": "rewardProgramRegistrationFeeInSPEND",
      "outputs": [
        {
          "internalType": "uint256",
          "name": "",
          "type": "uint256"
        }
      ],
      "stateMutability": "view",
      "type": "function"
    },
    {
      "inputs": [
        {
          "internalType": "address",
          "name": "",
          "type": "address"
        }
      ],
      "name": "rewardProgramsForRewardSafes",
      "outputs": [
        {
          "internalType": "address",
          "name": "",
          "type": "address"
        }
      ],
      "stateMutability": "view",
      "type": "function"
    },
    {
      "inputs": [
        {
          "internalType": "address",
          "name": "",
          "type": "address"
        }
      ],
      "name": "rule",
      "outputs": [
        {
          "internalType": "bytes",
          "name": "",
          "type": "bytes"
        }
      ],
      "stateMutability": "view",
      "type": "function"
    },
    {
      "inputs": [],
      "name": "safeDelegateImplementation",
      "outputs": [
        {
          "internalType": "address",
          "name": "",
          "type": "address"
        }
      ],
      "stateMutability": "view",
      "type": "function"
    },
    {
      "inputs": [
        {
          "internalType": "address",
          "name": "_actionDispatcher",
          "type": "address"
        },
        {
          "internalType": "address",
          "name": "_gsMasterCopy",
          "type": "address"
        },
        {
          "internalType": "address",
          "name": "_gsProxyFactory",
          "type": "address"
        },
        {
          "internalType": "address payable",
          "name": "_rewardFeeReceiver",
          "type": "address"
        },
        {
          "internalType": "uint256",
          "name": "_rewardProgramRegistrationFeeInSPEND",
          "type": "uint256"
        },
        {
          "internalType": "address[]",
          "name": "_eip1271Contracts",
          "type": "address[]"
        },
        {
          "internalType": "address",
          "name": "_governanceAdmin",
          "type": "address"
        },
        {
          "internalType": "address",
          "name": "_safeDelegateImplementation",
          "type": "address"
        },
        {
          "internalType": "address",
          "name": "_versionManager",
          "type": "address"
        }
      ],
      "name": "setup",
      "outputs": [],
      "stateMutability": "nonpayable",
      "type": "function"
    },
    {
      "inputs": [
        {
          "internalType": "address",
          "name": "newOwner",
          "type": "address"
        }
      ],
      "name": "transferOwnership",
      "outputs": [],
      "stateMutability": "nonpayable",
      "type": "function"
    },
    {
      "inputs": [
        {
          "internalType": "address",
          "name": "rewardProgramID",
          "type": "address"
        },
        {
          "internalType": "address",
          "name": "newAdmin",
          "type": "address"
        }
      ],
      "name": "updateAdmin",
      "outputs": [],
      "stateMutability": "nonpayable",
      "type": "function"
    },
    {
      "inputs": [],
      "name": "versionManager",
      "outputs": [
        {
          "internalType": "address",
          "name": "",
          "type": "address"
        }
      ],
      "stateMutability": "view",
      "type": "function"
    },
    {
      "inputs": [
        {
          "internalType": "address",
          "name": "newOwner",
          "type": "address"
        }
      ],
      "name": "willTransferRewardSafe",
      "outputs": [],
      "stateMutability": "nonpayable",
      "type": "function"
    }
  ],
  "bytecode": "0x608060405234801561001057600080fd5b506153e5806100206000396000f3fe608060405234801561001057600080fd5b50600436106101fa5760003560e01c8063855a5b3e1161011a578063a84173ae116100ad578063ea98c6c31161007c578063ea98c6c314610f84578063f16e307514610fa2578063f2fde38b14610fd6578063ff9d44631461101a578063fff3f2c914611094576101fa565b8063a84173ae14610e24578063c187645314610e58578063c4d66de814610eb2578063dc81b77014610ef6576101fa565b80639525581c116100e95780639525581c14610b1857806398f0d1d614610b725780639fa6412d14610be0578063a3b69c8114610c4e576101fa565b8063855a5b3e146109ce5780638cb9b63c14610a125780638da5cb5b14610aa0578063945233e214610ad4576101fa565b80634d76893111610192578063643f8a9b11610161578063643f8a9b146107205780636f5fac4014610884578063715018a6146109075780637b04586514610911576101fa565b80634d768931146105a15780634e1b0357146105d557806359b311ed1461066e578063606be33b146106b2576101fa565b80632708ab6a116101ce5780632708ab6a146104805780633050dfa7146104b45780633b705267146105135780633df7b38c1461056d576101fa565b806258f6b8146101ff57806309e1e5ab146102335780631bb37c651461029757806320c13b0b146102fb575b600080fd5b6102076110c8565b604051808273ffffffffffffffffffffffffffffffffffffffff16815260200191505060405180910390f35b6102956004803603604081101561024957600080fd5b81019080803573ffffffffffffffffffffffffffffffffffffffff169060200190929190803573ffffffffffffffffffffffffffffffffffffffff1690602001909291905050506110ee565b005b6102f9600480360360408110156102ad57600080fd5b81019080803573ffffffffffffffffffffffffffffffffffffffff169060200190929190803573ffffffffffffffffffffffffffffffffffffffff169060200190929190505050611368565b005b61044b6004803603604081101561031157600080fd5b810190808035906020019064010000000081111561032e57600080fd5b82018360208201111561034057600080fd5b8035906020019184600183028401116401000000008311171561036257600080fd5b91908080601f016020809104026020016040519081016040528093929190818152602001838380828437600081840152601f19601f820116905080830192505050505050509192919290803590602001906401000000008111156103c557600080fd5b8201836020820111156103d757600080fd5b803590602001918460018302840111640100000000831117156103f957600080fd5b91908080601f016020809104026020016040519081016040528093929190818152602001838380828437600081840152601f19601f820116905080830192505050505050509192919290505050611697565b60405180827bffffffffffffffffffffffffffffffffffffffffffffffffffffffff1916815260200191505060405180910390f35b61048861191b565b604051808273ffffffffffffffffffffffffffffffffffffffff16815260200191505060405180910390f35b6104bc611941565b6040518080602001828103825283818151815260200191508051906020019060200280838360005b838110156104ff5780820151818401526020810190506104e4565b505050509050019250505060405180910390f35b6105556004803603602081101561052957600080fd5b81019080803573ffffffffffffffffffffffffffffffffffffffff169060200190929190505050611952565b60405180821515815260200191505060405180910390f35b610575611972565b604051808273ffffffffffffffffffffffffffffffffffffffff16815260200191505060405180910390f35b6105a9611998565b604051808273ffffffffffffffffffffffffffffffffffffffff16815260200191505060405180910390f35b61066c600480360360408110156105eb57600080fd5b81019080803573ffffffffffffffffffffffffffffffffffffffff1690602001909291908035906020019064010000000081111561062857600080fd5b82018360208201111561063a57600080fd5b8035906020019184600183028401116401000000008311171561065c57600080fd5b90919293919293905050506119be565b005b6106b06004803603602081101561068457600080fd5b81019080803573ffffffffffffffffffffffffffffffffffffffff169060200190929190505050611c32565b005b6106f4600480360360208110156106c857600080fd5b81019080803573ffffffffffffffffffffffffffffffffffffffff16906020019092919050505061207d565b604051808273ffffffffffffffffffffffffffffffffffffffff16815260200191505060405180910390f35b610882600480360361012081101561073757600080fd5b81019080803573ffffffffffffffffffffffffffffffffffffffff169060200190929190803573ffffffffffffffffffffffffffffffffffffffff169060200190929190803573ffffffffffffffffffffffffffffffffffffffff169060200190929190803573ffffffffffffffffffffffffffffffffffffffff16906020019092919080359060200190929190803590602001906401000000008111156107de57600080fd5b8201836020820111156107f057600080fd5b8035906020019184602083028401116401000000008311171561081257600080fd5b9091929391929390803573ffffffffffffffffffffffffffffffffffffffff169060200190929190803573ffffffffffffffffffffffffffffffffffffffff169060200190929190803573ffffffffffffffffffffffffffffffffffffffff1690602001909291905050506120b0565b005b61088c61286e565b6040518080602001828103825283818151815260200191508051906020019080838360005b838110156108cc5780820151818401526020810190506108b1565b50505050905090810190601f1680156108f95780820380516001836020036101000a031916815260200191505b509250505060405180910390f35b61090f6129d6565b005b6109536004803603602081101561092757600080fd5b81019080803573ffffffffffffffffffffffffffffffffffffffff1690602001909291905050506129ea565b6040518080602001828103825283818151815260200191508051906020019080838360005b83811015610993578082015181840152602081019050610978565b50505050905090810190601f1680156109c05780820380516001836020036101000a031916815260200191505b509250505060405180910390f35b610a10600480360360208110156109e457600080fd5b81019080803573ffffffffffffffffffffffffffffffffffffffff169060200190929190505050612a8a565b005b610a7460048036036040811015610a2857600080fd5b81019080803573ffffffffffffffffffffffffffffffffffffffff169060200190929190803573ffffffffffffffffffffffffffffffffffffffff169060200190929190505050612d1d565b604051808273ffffffffffffffffffffffffffffffffffffffff16815260200191505060405180910390f35b610aa8612d5f565b604051808273ffffffffffffffffffffffffffffffffffffffff16815260200191505060405180910390f35b610b1660048036036020811015610aea57600080fd5b81019080803573ffffffffffffffffffffffffffffffffffffffff169060200190929190505050612d89565b005b610b5a60048036036020811015610b2e57600080fd5b81019080803573ffffffffffffffffffffffffffffffffffffffff169060200190929190505050613050565b60405180821515815260200191505060405180910390f35b610bb460048036036020811015610b8857600080fd5b81019080803573ffffffffffffffffffffffffffffffffffffffff16906020019092919050505061306d565b604051808273ffffffffffffffffffffffffffffffffffffffff16815260200191505060405180910390f35b610c2260048036036020811015610bf657600080fd5b81019080803573ffffffffffffffffffffffffffffffffffffffff1690602001909291905050506130a0565b604051808273ffffffffffffffffffffffffffffffffffffffff16815260200191505060405180910390f35b610d0760048036036020811015610c6457600080fd5b8101908080359060200190640100000000811115610c8157600080fd5b820183602082011115610c9357600080fd5b80359060200191846001830284011164010000000083111715610cb557600080fd5b91908080601f016020809104026020016040519081016040528093929190818152602001838380828437600081840152601f19601f8201169050808301925050505050505091929192905050506132ae565b604051808573ffffffffffffffffffffffffffffffffffffffff16815260200180602001846001811115610d3e57610d3d614d92565b5b815260200180602001838103835286818151815260200191508051906020019080838360005b83811015610d7f578082015181840152602081019050610d64565b50505050905090810190601f168015610dac5780820380516001836020036101000a031916815260200191505b50838103825284818151815260200191508051906020019080838360005b83811015610de5578082015181840152602081019050610dca565b50505050905090810190601f168015610e125780820380516001836020036101000a031916815260200191505b50965050505050505060405180910390f35b610e2c613698565b604051808273ffffffffffffffffffffffffffffffffffffffff16815260200191505060405180910390f35b610e9a60048036036020811015610e6e57600080fd5b81019080803573ffffffffffffffffffffffffffffffffffffffff1690602001909291905050506136be565b60405180821515815260200191505060405180910390f35b610ef460048036036020811015610ec857600080fd5b81019080803573ffffffffffffffffffffffffffffffffffffffff16906020019092919050505061380b565b005b610f5860048036036040811015610f0c57600080fd5b81019080803573ffffffffffffffffffffffffffffffffffffffff169060200190929190803573ffffffffffffffffffffffffffffffffffffffff169060200190929190505050613953565b604051808273ffffffffffffffffffffffffffffffffffffffff16815260200191505060405180910390f35b610f8c613ff5565b6040518082815260200191505060405180910390f35b610faa613ffb565b604051808273ffffffffffffffffffffffffffffffffffffffff16815260200191505060405180910390f35b61101860048036036020811015610fec57600080fd5b81019080803573ffffffffffffffffffffffffffffffffffffffff169060200190929190505050614021565b005b61107c6004803603604081101561103057600080fd5b81019080803573ffffffffffffffffffffffffffffffffffffffff169060200190929190803573ffffffffffffffffffffffffffffffffffffffff1690602001909291905050506140a5565b60405180821515815260200191505060405180910390f35b61109c614100565b604051808273ffffffffffffffffffffffffffffffffffffffff16815260200191505060405180910390f35b60d060009054906101000a900473ffffffffffffffffffffffffffffffffffffffff1681565b60cd60009054906101000a900473ffffffffffffffffffffffffffffffffffffffff1673ffffffffffffffffffffffffffffffffffffffff166346ea87af336040518263ffffffff1660e01b8152600401808273ffffffffffffffffffffffffffffffffffffffff16815260200191505060206040518083038186803b15801561117757600080fd5b505afa15801561118b573d6000803e3d6000fd5b505050506040513d60208110156111a157600080fd5b8101908080519060200190929190505050611207576040517f08c379a000000000000000000000000000000000000000000000000000000000815260040180806020018281038252602981526020018061535c6029913960400191505060405180910390fd5b61121081613050565b15611266576040517f08c379a00000000000000000000000000000000000000000000000000000000081526004018080602001828103825260218152602001806152e46021913960400191505060405180910390fd5b61127a8160d161412690919063ffffffff16565b508160d760008373ffffffffffffffffffffffffffffffffffffffff1673ffffffffffffffffffffffffffffffffffffffff16815260200190815260200160002060006101000a81548173ffffffffffffffffffffffffffffffffffffffff021916908373ffffffffffffffffffffffffffffffffffffffff1602179055507f75481a11632c3c81e03365ea9127429af70c5d9a0804df612768ccfbe9f4e4f48183604051808373ffffffffffffffffffffffffffffffffffffffff1681526020018273ffffffffffffffffffffffffffffffffffffffff1681526020019250505060405180910390a15050565b60cd60009054906101000a900473ffffffffffffffffffffffffffffffffffffffff1673ffffffffffffffffffffffffffffffffffffffff166346ea87af336040518263ffffffff1660e01b8152600401808273ffffffffffffffffffffffffffffffffffffffff16815260200191505060206040518083038186803b1580156113f157600080fd5b505afa158015611405573d6000803e3d6000fd5b505050506040513d602081101561141b57600080fd5b8101908080519060200190929190505050611481576040517f08c379a000000000000000000000000000000000000000000000000000000000815260040180806020018281038252602981526020018061535c6029913960400191505060405180910390fd5b6114958260d161415690919063ffffffff16565b611507576040517f08c379a00000000000000000000000000000000000000000000000000000000081526004018080602001828103825260178152602001807f696e76616c69642072657761726450726f6772616d494400000000000000000081525060200191505060405180910390fd5b600073ffffffffffffffffffffffffffffffffffffffff168173ffffffffffffffffffffffffffffffffffffffff1614156115aa576040517f08c379a00000000000000000000000000000000000000000000000000000000081526004018080602001828103825260108152602001807f696e76616c6964206e657741646d696e0000000000000000000000000000000081525060200191505060405180910390fd5b8060d760008473ffffffffffffffffffffffffffffffffffffffff1673ffffffffffffffffffffffffffffffffffffffff16815260200190815260200160002060006101000a81548173ffffffffffffffffffffffffffffffffffffffff021916908373ffffffffffffffffffffffffffffffffffffffff1602179055507f12168947485d2fdd64e756e7ac862fd8fcbb1f68fb65f34e61aa7f90e98e8fb28282604051808373ffffffffffffffffffffffffffffffffffffffff1681526020018273ffffffffffffffffffffffffffffffffffffffff1681526020019250505060405180910390a15050565b60008060008060006116a8866132ae565b93509350935093506116ba8784614186565b61172c576040517f08c379a00000000000000000000000000000000000000000000000000000000081526004018080602001828103825260178152602001807f5369676e61747572652064617461206d69736d6174636800000000000000000081525060200191505060405180910390fd5b60018081111561173f5761173e614d92565b5b82600181111561175257611751614d92565b5b14156118dd5760db60009054906101000a900473ffffffffffffffffffffffffffffffffffffffff1673ffffffffffffffffffffffffffffffffffffffff168473ffffffffffffffffffffffffffffffffffffffff161461181b576040517f08c379a00000000000000000000000000000000000000000000000000000000081526004018080602001828103825260198152602001807f496e76616c69642064656c656761746520636f6e74726163740000000000000081525060200191505060405180910390fd5b600061182682614275565b90503073ffffffffffffffffffffffffffffffffffffffff168173ffffffffffffffffffffffffffffffffffffffff16146118c9576040517f08c379a000000000000000000000000000000000000000000000000000000000815260040180806020018281038252600f8152602001807f696e76616c6964206d616e61676572000000000000000000000000000000000081525060200191505060405180910390fd5b6320c13b0b60e01b95505050505050611915565b6118f18460d361415690919063ffffffff16565b15611909576320c13b0b60e01b945050505050611915565b600060e01b9450505050505b92915050565b60db60009054906101000a900473ffffffffffffffffffffffffffffffffffffffff1681565b606061194d60d36143af565b905090565b60d86020528060005260406000206000915054906101000a900460ff1681565b60cd60009054906101000a900473ffffffffffffffffffffffffffffffffffffffff1681565b60cf60009054906101000a900473ffffffffffffffffffffffffffffffffffffffff1681565b60cd60009054906101000a900473ffffffffffffffffffffffffffffffffffffffff1673ffffffffffffffffffffffffffffffffffffffff166346ea87af336040518263ffffffff1660e01b8152600401808273ffffffffffffffffffffffffffffffffffffffff16815260200191505060206040518083038186803b158015611a4757600080fd5b505afa158015611a5b573d6000803e3d6000fd5b505050506040513d6020811015611a7157600080fd5b8101908080519060200190929190505050611ad7576040517f08c379a000000000000000000000000000000000000000000000000000000000815260040180806020018281038252602981526020018061535c6029913960400191505060405180910390fd5b611aeb8360d161415690919063ffffffff16565b611b5d576040517f08c379a00000000000000000000000000000000000000000000000000000000081526004018080602001828103825260178152602001807f696e76616c69642072657761726450726f6772616d494400000000000000000081525060200191505060405180910390fd5b818160d660008673ffffffffffffffffffffffffffffffffffffffff1673ffffffffffffffffffffffffffffffffffffffff1681526020019081526020016000209190611bab929190614caf565b507fc56045a9932b364727f3e7ca6a4e0b81b01da675540f27bbf648330261819166838383604051808473ffffffffffffffffffffffffffffffffffffffff168152602001806020018281038252848482818152602001925080828437600081840152601f19601f82011690508083019250505094505050505060405180910390a1505050565b6000611c3d336130a0565b9050600060da60003373ffffffffffffffffffffffffffffffffffffffff1673ffffffffffffffffffffffffffffffffffffffff16815260200190815260200160002060009054906101000a900473ffffffffffffffffffffffffffffffffffffffff169050600073ffffffffffffffffffffffffffffffffffffffff1660d960008573ffffffffffffffffffffffffffffffffffffffff1673ffffffffffffffffffffffffffffffffffffffff16815260200190815260200160002060008373ffffffffffffffffffffffffffffffffffffffff1673ffffffffffffffffffffffffffffffffffffffff16815260200190815260200160002060009054906101000a900473ffffffffffffffffffffffffffffffffffffffff1673ffffffffffffffffffffffffffffffffffffffff1614611dc4576040517f08c379a00000000000000000000000000000000000000000000000000000000081526004018080602001828103825260368152602001806153266036913960400191505060405180910390fd5b3373ffffffffffffffffffffffffffffffffffffffff1660d960008473ffffffffffffffffffffffffffffffffffffffff1673ffffffffffffffffffffffffffffffffffffffff16815260200190815260200160002060008373ffffffffffffffffffffffffffffffffffffffff1673ffffffffffffffffffffffffffffffffffffffff16815260200190815260200160002060009054906101000a900473ffffffffffffffffffffffffffffffffffffffff1673ffffffffffffffffffffffffffffffffffffffff1614611f01576040517f08c379a000000000000000000000000000000000000000000000000000000000815260040180806020018281038252601f8152602001807f4f6e6c792063757272656e74206f776e65722063616e207472616e736665720081525060200191505060405180910390fd5b600060d960008473ffffffffffffffffffffffffffffffffffffffff1673ffffffffffffffffffffffffffffffffffffffff16815260200190815260200160002060008373ffffffffffffffffffffffffffffffffffffffff1673ffffffffffffffffffffffffffffffffffffffff16815260200190815260200160002060006101000a81548173ffffffffffffffffffffffffffffffffffffffff021916908373ffffffffffffffffffffffffffffffffffffffff1602179055503360d960008573ffffffffffffffffffffffffffffffffffffffff1673ffffffffffffffffffffffffffffffffffffffff16815260200190815260200160002060008373ffffffffffffffffffffffffffffffffffffffff1673ffffffffffffffffffffffffffffffffffffffff16815260200190815260200160002060006101000a81548173ffffffffffffffffffffffffffffffffffffffff021916908373ffffffffffffffffffffffffffffffffffffffff160217905550505050565b60d76020528060005260406000206000915054906101000a900473ffffffffffffffffffffffffffffffffffffffff1681565b6120b86143d0565b600073ffffffffffffffffffffffffffffffffffffffff168a73ffffffffffffffffffffffffffffffffffffffff16141561215b576040517f08c379a00000000000000000000000000000000000000000000000000000000081526004018080602001828103825260188152602001807f616374696f6e44697370617463686572206e6f7420736574000000000000000081525060200191505060405180910390fd5b600073ffffffffffffffffffffffffffffffffffffffff168973ffffffffffffffffffffffffffffffffffffffff1614156121fe576040517f08c379a00000000000000000000000000000000000000000000000000000000081526004018080602001828103825260148152602001807f67734d6173746572436f7079206e6f742073657400000000000000000000000081525060200191505060405180910390fd5b600073ffffffffffffffffffffffffffffffffffffffff168873ffffffffffffffffffffffffffffffffffffffff1614156122a1576040517f08c379a00000000000000000000000000000000000000000000000000000000081526004018080602001828103825260168152602001807f677350726f7879466163746f7279206e6f74207365740000000000000000000081525060200191505060405180910390fd5b600073ffffffffffffffffffffffffffffffffffffffff168773ffffffffffffffffffffffffffffffffffffffff161415612344576040517f08c379a00000000000000000000000000000000000000000000000000000000081526004018080602001828103825260198152602001807f7265776172644665655265636569766572206e6f74207365740000000000000081525060200191505060405180910390fd5b600073ffffffffffffffffffffffffffffffffffffffff168373ffffffffffffffffffffffffffffffffffffffff1614156123e7576040517f08c379a00000000000000000000000000000000000000000000000000000000081526004018080602001828103825260178152602001807f676f7665726e616e636541646d696e206e6f742073657400000000000000000081525060200191505060405180910390fd5b600073ffffffffffffffffffffffffffffffffffffffff168273ffffffffffffffffffffffffffffffffffffffff16141561246d576040517f08c379a000000000000000000000000000000000000000000000000000000000815260040180806020018281038252602281526020018061525c6022913960400191505060405180910390fd5b600073ffffffffffffffffffffffffffffffffffffffff168173ffffffffffffffffffffffffffffffffffffffff161415612510576040517f08c379a00000000000000000000000000000000000000000000000000000000081526004018080602001828103825260168152602001807f76657273696f6e4d616e61676572206e6f74207365740000000000000000000081525060200191505060405180910390fd5b60008611612569576040517f08c379a000000000000000000000000000000000000000000000000000000000815260040180806020018281038252602e8152602001806152b6602e913960400191505060405180910390fd5b620186a08611156125c5576040517f08c379a000000000000000000000000000000000000000000000000000000000815260040180806020018281038252603881526020018061527e6038913960400191505060405180910390fd5b8960cd60006101000a81548173ffffffffffffffffffffffffffffffffffffffff021916908373ffffffffffffffffffffffffffffffffffffffff160217905550612610898961444e565b8660cf60006101000a81548173ffffffffffffffffffffffffffffffffffffffff021916908373ffffffffffffffffffffffffffffffffffffffff1602179055508560ce819055508060dc60006101000a81548173ffffffffffffffffffffffffffffffffffffffff021916908373ffffffffffffffffffffffffffffffffffffffff1602179055508260d060006101000a81548173ffffffffffffffffffffffffffffffffffffffff021916908373ffffffffffffffffffffffffffffffffffffffff16021790555060005b858590508110156127f457600073ffffffffffffffffffffffffffffffffffffffff1686868381811061271357612712614dc1565b5b9050602002013573ffffffffffffffffffffffffffffffffffffffff1673ffffffffffffffffffffffffffffffffffffffff16141561279d576040517f08c379a00000000000000000000000000000000000000000000000000000000081526004018080602001828103825260218152602001806153056021913960400191505060405180910390fd5b6127e08686838181106127b3576127b2614dc1565b5b9050602002013573ffffffffffffffffffffffffffffffffffffffff1660d361412690919063ffffffff16565b5080806127ec90614e29565b9150506126dd565b508160db60006101000a81548173ffffffffffffffffffffffffffffffffffffffff021916908373ffffffffffffffffffffffffffffffffffffffff1602179055507f587930504fa5b1062f394d90f9dac9ecadd354ed23a97af9ea4e44dff4870a8460405160405180910390a150505050505050505050565b606060dc60009054906101000a900473ffffffffffffffffffffffffffffffffffffffff1673ffffffffffffffffffffffffffffffffffffffff166354fd4d506040518163ffffffff1660e01b815260040160006040518083038186803b1580156128d857600080fd5b505afa1580156128ec573d6000803e3d6000fd5b505050506040513d6000823e3d601f19601f82011682018060405250602081101561291657600080fd5b810190808051604051939291908464010000000082111561293657600080fd5b8382019150602082018581111561294c57600080fd5b825186600182028301116401000000008211171561296957600080fd5b8083526020830192505050908051906020019080838360005b8381101561299d578082015181840152602081019050612982565b50505050905090810190601f1680156129ca5780820380516001836020036101000a031916815260200191505b50604052505050905090565b6129de6143d0565b6129e860006144d4565b565b60d66020528060005260406000206000915090508054612a0990614ea1565b80601f0160208091040260200160405190810160405280929190818152602001828054612a3590614ea1565b8015612a825780601f10612a5757610100808354040283529160200191612a82565b820191906000526020600020905b815481529060010190602001808311612a6557829003601f168201915b505050505081565b60cd60009054906101000a900473ffffffffffffffffffffffffffffffffffffffff1673ffffffffffffffffffffffffffffffffffffffff166346ea87af336040518263ffffffff1660e01b8152600401808273ffffffffffffffffffffffffffffffffffffffff16815260200191505060206040518083038186803b158015612b1357600080fd5b505afa158015612b27573d6000803e3d6000fd5b505050506040513d6020811015612b3d57600080fd5b8101908080519060200190929190505050612ba3576040517f08c379a000000000000000000000000000000000000000000000000000000000815260040180806020018281038252602981526020018061535c6029913960400191505060405180910390fd5b612bb78160d161415690919063ffffffff16565b612c29576040517f08c379a00000000000000000000000000000000000000000000000000000000081526004018080602001828103825260178152602001807f696e76616c69642072657761726450726f6772616d494400000000000000000081525060200191505060405180910390fd5b60d860008273ffffffffffffffffffffffffffffffffffffffff1673ffffffffffffffffffffffffffffffffffffffff16815260200190815260200160002060009054906101000a900460ff161560d860008373ffffffffffffffffffffffffffffffffffffffff1673ffffffffffffffffffffffffffffffffffffffff16815260200190815260200160002060006101000a81548160ff0219169083151502179055507f2c54491a92145afdf89e4b446d4069208ed3ddac46a04364bd14ec7a971321e081604051808273ffffffffffffffffffffffffffffffffffffffff16815260200191505060405180910390a150565b60d96020528160005260406000206020528060005260406000206000915091509054906101000a900473ffffffffffffffffffffffffffffffffffffffff1681565b6000603360009054906101000a900473ffffffffffffffffffffffffffffffffffffffff16905090565b60d060009054906101000a900473ffffffffffffffffffffffffffffffffffffffff1673ffffffffffffffffffffffffffffffffffffffff163373ffffffffffffffffffffffffffffffffffffffff1614612e4c576040517f08c379a000000000000000000000000000000000000000000000000000000000815260040180806020018281038252601e8152602001807f63616c6c6572206973206e6f7420676f7665726e616e63652061646d696e000081525060200191505060405180910390fd5b600073ffffffffffffffffffffffffffffffffffffffff168173ffffffffffffffffffffffffffffffffffffffff161415612eef576040517f08c379a00000000000000000000000000000000000000000000000000000000081526004018080602001828103825260178152602001807f696e76616c69642072657761726450726f6772616d494400000000000000000081525060200191505060405180910390fd5b612f038160d161459a90919063ffffffff16565b5060d760008273ffffffffffffffffffffffffffffffffffffffff1673ffffffffffffffffffffffffffffffffffffffff16815260200190815260200160002060006101000a81549073ffffffffffffffffffffffffffffffffffffffff021916905560d860008273ffffffffffffffffffffffffffffffffffffffff1673ffffffffffffffffffffffffffffffffffffffff16815260200190815260200160002060006101000a81549060ff021916905560d660008273ffffffffffffffffffffffffffffffffffffffff1673ffffffffffffffffffffffffffffffffffffffff16815260200190815260200160002060006130009190614d35565b7f87e1027e3dc61d1977f39f0dfe911b66a943946b4ceb39210dee01495621de5281604051808273ffffffffffffffffffffffffffffffffffffffff16815260200191505060405180910390a150565b60006130668260d161415690919063ffffffff16565b9050919050565b60da6020528060005260406000206000915054906101000a900473ffffffffffffffffffffffffffffffffffffffff1681565b6000808273ffffffffffffffffffffffffffffffffffffffff1663a0e67e2b6040518163ffffffff1660e01b815260040160006040518083038186803b1580156130e957600080fd5b505afa1580156130fd573d6000803e3d6000fd5b505050506040513d6000823e3d601f19601f82011682018060405250602081101561312757600080fd5b810190808051604051939291908464010000000082111561314757600080fd5b8382019150602082018581111561315d57600080fd5b825186602082028301116401000000008211171561317a57600080fd5b8083526020830192505050908051906020019060200280838360005b838110156131b1578082015181840152602081019050613196565b505050509050016040525050509050600281511461321a576040517f08c379a000000000000000000000000000000000000000000000000000000000815260040180806020018281038252602b815260200180615385602b913960400191505060405180910390fd5b3073ffffffffffffffffffffffffffffffffffffffff168160008151811061324557613244614dc1565b5b602002602001015173ffffffffffffffffffffffffffffffffffffffff1614613289578060008151811061327c5761327b614dc1565b5b60200260200101516132a6565b8060018151811061329d5761329c614dc1565b5b60200260200101515b915050919050565b60006060600060606000806000806000806000806000808e8060200190516101408110156132db57600080fd5b8101908080519060200190929190805190602001909291908051604051939291908464010000000082111561330f57600080fd5b8382019150602082018581111561332557600080fd5b825186600182028301116401000000008211171561334257600080fd5b8083526020830192505050908051906020019080838360005b8381101561337657808201518184015260208101905061335b565b50505050905090810190601f1680156133a35780820380516001836020036101000a031916815260200191505b50604052602001805190602001909291908051906020019092919080519060200190929190805190602001909291908051906020019092919080519060200190929190805190602001909291905050509950995099509950995099509950995099509950893373ffffffffffffffffffffffffffffffffffffffff1663e86637db8c8c8c8c60ff16600181111561343d5761343c614d92565b5b8c8c8c8c8c8c6040518b63ffffffff1660e01b8152600401808b73ffffffffffffffffffffffffffffffffffffffff1681526020018a81526020018060200189600181111561348f5761348e614d92565b5b81526020018881526020018781526020018681526020018573ffffffffffffffffffffffffffffffffffffffff1681526020018473ffffffffffffffffffffffffffffffffffffffff16815260200183815260200182810382528a818151815260200191508051906020019080838360005b8381101561351c578082015181840152602081019050613501565b50505050905090810190601f1680156135495780820380516001836020036101000a031916815260200191505b509b50505050505050505050505060006040518083038186803b15801561356f57600080fd5b505afa158015613583573d6000803e3d6000fd5b505050506040513d6000823e3d601f19601f8201168201806040525060208110156135ad57600080fd5b81019080805160405193929190846401000000008211156135cd57600080fd5b838201915060208201858111156135e357600080fd5b825186600182028301116401000000008211171561360057600080fd5b8083526020830192505050908051906020019080838360005b83811015613634578082015181840152602081019050613619565b50505050905090810190601f1680156136615780820380516001836020036101000a031916815260200191505b506040525050508860ff16600181111561367e5761367d614d92565b5b8a9d509d509d509d50505050505050505050509193509193565b609860009054906101000a900473ffffffffffffffffffffffffffffffffffffffff1681565b600060cd60009054906101000a900473ffffffffffffffffffffffffffffffffffffffff1673ffffffffffffffffffffffffffffffffffffffff16632a709b146040518163ffffffff1660e01b815260040160206040518083038186803b15801561372857600080fd5b505afa15801561373c573d6000803e3d6000fd5b505050506040513d602081101561375257600080fd5b810190808051906020019092919050505073ffffffffffffffffffffffffffffffffffffffff1663c1876453836040518263ffffffff1660e01b8152600401808273ffffffffffffffffffffffffffffffffffffffff16815260200191505060206040518083038186803b1580156137c957600080fd5b505afa1580156137dd573d6000803e3d6000fd5b505050506040513d60208110156137f357600080fd5b81019080805190602001909291905050509050919050565b60008060019054906101000a900460ff1615905080801561383c5750600160008054906101000a900460ff1660ff16105b80613869575061384b306145ca565b1580156138685750600160008054906101000a900460ff1660ff16145b5b6138a8576040517f08c379a000000000000000000000000000000000000000000000000000000000815260040161389f90614f56565b60405180910390fd5b60016000806101000a81548160ff021916908360ff16021790555080156138e5576001600060016101000a81548160ff0219169083151502179055505b600060cc819055506138f6826145ed565b801561394f5760008060016101000a81548160ff0219169083151502179055507f7f26b83ff96e1f2b6a682f133852f6798a09c465da95921460cefb384740249860016040516139469190614fc8565b60405180910390a15b5050565b600060cd60009054906101000a900473ffffffffffffffffffffffffffffffffffffffff1673ffffffffffffffffffffffffffffffffffffffff166346ea87af336040518263ffffffff1660e01b8152600401808273ffffffffffffffffffffffffffffffffffffffff16815260200191505060206040518083038186803b1580156139de57600080fd5b505afa1580156139f2573d6000803e3d6000fd5b505050506040513d6020811015613a0857600080fd5b8101908080519060200190929190505050613a6e576040517f08c379a000000000000000000000000000000000000000000000000000000000815260040180806020018281038252602981526020018061535c6029913960400191505060405180910390fd5b613a828360d161415690919063ffffffff16565b613af4576040517f08c379a00000000000000000000000000000000000000000000000000000000081526004018080602001828103825260178152602001807f696e76616c69642072657761726450726f6772616d494400000000000000000081525060200191505060405180910390fd5b600073ffffffffffffffffffffffffffffffffffffffff168273ffffffffffffffffffffffffffffffffffffffff161415613b97576040517f08c379a00000000000000000000000000000000000000000000000000000000081526004018080602001828103825260188152602001807f696e76616c69642070726570616964436172644f776e6572000000000000000081525060200191505060405180910390fd5b6000600267ffffffffffffffff811115613bb457613bb3614fe3565b5b604051908082528060200260200182016040528015613be25781602001602082028036833780820191505090505b5090503081600081518110613bfa57613bf9614dc1565b5b602002602001019073ffffffffffffffffffffffffffffffffffffffff16908173ffffffffffffffffffffffffffffffffffffffff16815250508281600181518110613c4957613c48614dc1565b5b602002602001019073ffffffffffffffffffffffffffffffffffffffff16908173ffffffffffffffffffffffffffffffffffffffff1681525050600060d960008573ffffffffffffffffffffffffffffffffffffffff1673ffffffffffffffffffffffffffffffffffffffff16815260200190815260200160002060008673ffffffffffffffffffffffffffffffffffffffff1673ffffffffffffffffffffffffffffffffffffffff16815260200190815260200160002060009054906101000a900473ffffffffffffffffffffffffffffffffffffffff169050600073ffffffffffffffffffffffffffffffffffffffff168173ffffffffffffffffffffffffffffffffffffffff1614613dc6576040517f08c379a000000000000000000000000000000000000000000000000000000000815260040180806020018281038252601b8152602001807f726577617264656520616c72656164792072656769737465726564000000000081525060200191505060405180910390fd5b6000613dd383600261468b565b9050613e268160d560008973ffffffffffffffffffffffffffffffffffffffff1673ffffffffffffffffffffffffffffffffffffffff16815260200190815260200160002061412690919063ffffffff16565b508060d960008773ffffffffffffffffffffffffffffffffffffffff1673ffffffffffffffffffffffffffffffffffffffff16815260200190815260200160002060008873ffffffffffffffffffffffffffffffffffffffff1673ffffffffffffffffffffffffffffffffffffffff16815260200190815260200160002060006101000a81548173ffffffffffffffffffffffffffffffffffffffff021916908373ffffffffffffffffffffffffffffffffffffffff1602179055508560da60008373ffffffffffffffffffffffffffffffffffffffff1673ffffffffffffffffffffffffffffffffffffffff16815260200190815260200160002060006101000a81548173ffffffffffffffffffffffffffffffffffffffff021916908373ffffffffffffffffffffffffffffffffffffffff1602179055507fdcadcca9f0262fffbd67bb6ec216fc575f04b8bbe50f15fe3ef96f05dfbd2083868683604051808473ffffffffffffffffffffffffffffffffffffffff1681526020018373ffffffffffffffffffffffffffffffffffffffff1681526020018273ffffffffffffffffffffffffffffffffffffffff168152602001935050505060405180910390a180935050505092915050565b60ce5481565b609960009054906101000a900473ffffffffffffffffffffffffffffffffffffffff1681565b6140296143d0565b600073ffffffffffffffffffffffffffffffffffffffff168173ffffffffffffffffffffffffffffffffffffffff161415614099576040517f08c379a000000000000000000000000000000000000000000000000000000000815260040161409090615084565b60405180910390fd5b6140a2816144d4565b50565b60006140f88360d560008573ffffffffffffffffffffffffffffffffffffffff1673ffffffffffffffffffffffffffffffffffffffff16815260200190815260200160002061415690919063ffffffff16565b905092915050565b60dc60009054906101000a900473ffffffffffffffffffffffffffffffffffffffff1681565b600061414e836000018373ffffffffffffffffffffffffffffffffffffffff1660001b6149ea565b905092915050565b600061417e836000018373ffffffffffffffffffffffffffffffffffffffff1660001b614a5a565b905092915050565b6000816040516020018082805190602001908083835b602083106141bf578051825260208201915060208101905060208303925061419c565b6001836020036101000a03801982511681845116808217855250505050505090500191505060405160208183030381529060405280519060200120836040516020018082805190602001908083835b60208310614231578051825260208201915060208101905060208303925061420e565b6001836020036101000a0380198251168184511680821785525050505050509050019150506040516020818303038152906040528051906020012014905092915050565b600080600590506000601f8261428b91906150a4565b90506000602067ffffffffffffffff8111156142aa576142a9614fe3565b5b6040519080825280601f01601f1916602001820160405280156142dc5781602001600182028036833780820191505090505b50905060005b83836142ee91906150fa565b811161437e57856001858361430391906150a4565b61430d91906150fa565b8151811061431e5761431d614dc1565b5b602001015160f81c60f81b82828151811061433c5761433b614dc1565b5b60200101907effffffffffffffffffffffffffffffffffffffffffffffffffffffffffffff1916908160001a905350808061437690614e29565b9150506142e2565b5080806020019051602081101561439457600080fd5b81019080805190602001909291905050509350505050919050565b606060006143bf83600001614a7d565b905060608190508092505050919050565b6143d8614ad9565b73ffffffffffffffffffffffffffffffffffffffff166143f6612d5f565b73ffffffffffffffffffffffffffffffffffffffff161461444c576040517f08c379a00000000000000000000000000000000000000000000000000000000081526004016144439061517a565b60405180910390fd5b565b80609960006101000a81548173ffffffffffffffffffffffffffffffffffffffff021916908373ffffffffffffffffffffffffffffffffffffffff16021790555081609860006101000a81548173ffffffffffffffffffffffffffffffffffffffff021916908373ffffffffffffffffffffffffffffffffffffffff1602179055505050565b6000603360009054906101000a900473ffffffffffffffffffffffffffffffffffffffff16905081603360006101000a81548173ffffffffffffffffffffffffffffffffffffffff021916908373ffffffffffffffffffffffffffffffffffffffff1602179055508173ffffffffffffffffffffffffffffffffffffffff168173ffffffffffffffffffffffffffffffffffffffff167f8be0079c531659141344cd1fd0a4f28419497f9722a3daafe3b4186f6b6457e060405160405180910390a35050565b60006145c2836000018373ffffffffffffffffffffffffffffffffffffffff1660001b614ae1565b905092915050565b6000808273ffffffffffffffffffffffffffffffffffffffff163b119050919050565b600060019054906101000a900460ff1661463c576040517f08c379a00000000000000000000000000000000000000000000000000000000081526004016146339061520c565b60405180910390fd5b614644614bf5565b8073ffffffffffffffffffffffffffffffffffffffff16614663614ad9565b73ffffffffffffffffffffffffffffffffffffffff161461468857614687816144d4565b5b50565b60008063b63e800d60e01b8484600080600080600060405160240180806020018881526020018773ffffffffffffffffffffffffffffffffffffffff168152602001806020018773ffffffffffffffffffffffffffffffffffffffff1681526020018673ffffffffffffffffffffffffffffffffffffffff1681526020018581526020018473ffffffffffffffffffffffffffffffffffffffff16815260200183810383528a818151815260200191508051906020019060200280838360005b8381101561476657808201518184015260208101905061474b565b505050509050018381038252600081526020019950505050505050505050604051602081830303815290604052907bffffffffffffffffffffffffffffffffffffffffffffffffffffffff19166020820180517bffffffffffffffffffffffffffffffffffffffffffffffffffffffff838183161783525050505090506000609960009054906101000a900473ffffffffffffffffffffffffffffffffffffffff1673ffffffffffffffffffffffffffffffffffffffff166361b69abd609860009054906101000a900473ffffffffffffffffffffffffffffffffffffffff16846040518363ffffffff1660e01b8152600401808373ffffffffffffffffffffffffffffffffffffffff16815260200180602001828103825283818151815260200191508051906020019080838360005b838110156148b2578082015181840152602081019050614897565b50505050905090810190601f1680156148df5780820380516001836020036101000a031916815260200191505b509350505050602060405180830381600087803b1580156148ff57600080fd5b505af1158015614913573d6000803e3d6000fd5b505050506040513d602081101561492957600080fd5b81019080805190602001909291905050509050600073ffffffffffffffffffffffffffffffffffffffff168173ffffffffffffffffffffffffffffffffffffffff1614156149df576040517f08c379a00000000000000000000000000000000000000000000000000000000081526004018080602001828103825260148152602001807f43726561746520612053616665206661696c656400000000000000000000000081525060200191505060405180910390fd5b809250505092915050565b60006149f68383614a5a565b614a4f578260000182908060018154018082558091505060019003906000526020600020016000909190919091505582600001805490508360010160008481526020019081526020016000208190555060019050614a54565b600090505b92915050565b600080836001016000848152602001908152602001600020541415905092915050565b606081600001805480602002602001604051908101604052809291908181526020018280548015614acd57602002820191906000526020600020905b815481526020019060010190808311614ab9575b50505050509050919050565b600033905090565b60008083600101600084815260200190815260200160002054905060008114614be9576000600182614b1391906150fa565b9050600060018660000180549050614b2b91906150fa565b9050818114614b9a576000866000018281548110614b4c57614b4b614dc1565b5b9060005260206000200154905080876000018481548110614b7057614b6f614dc1565b5b90600052602060002001819055508387600101600083815260200190815260200160002081905550505b85600001805480614bae57614bad61522c565b5b600190038181906000526020600020016000905590558560010160008681526020019081526020016000206000905560019350505050614bef565b60009150505b92915050565b600060019054906101000a900460ff16614c44576040517f08c379a0000000000000000000000000000000000000000000000000000000008152600401614c3b9061520c565b60405180910390fd5b614c4c614c4e565b565b600060019054906101000a900460ff16614c9d576040517f08c379a0000000000000000000000000000000000000000000000000000000008152600401614c949061520c565b60405180910390fd5b614cad614ca8614ad9565b6144d4565b565b828054614cbb90614ea1565b90600052602060002090601f016020900481019282614cdd5760008555614d24565b82601f10614cf657803560ff1916838001178555614d24565b82800160010185558215614d24579182015b82811115614d23578235825591602001919060010190614d08565b5b509050614d319190614d75565b5090565b508054614d4190614ea1565b6000825580601f10614d535750614d72565b601f016020900490600052602060002090810190614d719190614d75565b5b50565b5b80821115614d8e576000816000905550600101614d76565b5090565b7f4e487b7100000000000000000000000000000000000000000000000000000000600052602160045260246000fd5b7f4e487b7100000000000000000000000000000000000000000000000000000000600052603260045260246000fd5b7f4e487b7100000000000000000000000000000000000000000000000000000000600052601160045260246000fd5b6000819050919050565b6000614e3482614e1f565b91507fffffffffffffffffffffffffffffffffffffffffffffffffffffffffffffffff821415614e6757614e66614df0565b5b600182019050919050565b7f4e487b7100000000000000000000000000000000000000000000000000000000600052602260045260246000fd5b60006002820490506001821680614eb957607f821691505b60208210811415614ecd57614ecc614e72565b5b50919050565b600082825260208201905092915050565b7f496e697469616c697a61626c653a20636f6e747261637420697320616c72656160008201527f647920696e697469616c697a6564000000000000000000000000000000000000602082015250565b6000614f40602e83614ed3565b9150614f4b82614ee4565b604082019050919050565b60006020820190508181036000830152614f6f81614f33565b9050919050565b6000819050919050565b600060ff82169050919050565b6000819050919050565b6000614fb2614fad614fa884614f76565b614f8d565b614f80565b9050919050565b614fc281614f97565b82525050565b6000602082019050614fdd6000830184614fb9565b92915050565b7f4e487b7100000000000000000000000000000000000000000000000000000000600052604160045260246000fd5b7f4f776e61626c653a206e6577206f776e657220697320746865207a65726f206160008201527f6464726573730000000000000000000000000000000000000000000000000000602082015250565b600061506e602683614ed3565b915061507982615012565b604082019050919050565b6000602082019050818103600083015261509d81615061565b9050919050565b60006150af82614e1f565b91506150ba83614e1f565b9250827fffffffffffffffffffffffffffffffffffffffffffffffffffffffffffffffff038211156150ef576150ee614df0565b5b828201905092915050565b600061510582614e1f565b915061511083614e1f565b92508282101561512357615122614df0565b5b828203905092915050565b7f4f776e61626c653a2063616c6c6572206973206e6f7420746865206f776e6572600082015250565b6000615164602083614ed3565b915061516f8261512e565b602082019050919050565b6000602082019050818103600083015261519381615157565b9050919050565b7f496e697469616c697a61626c653a20636f6e7472616374206973206e6f74206960008201527f6e697469616c697a696e67000000000000000000000000000000000000000000602082015250565b60006151f6602b83614ed3565b91506152018261519a565b604082019050919050565b60006020820190508181036000830152615225816151e9565b9050919050565b7f4e487b7100000000000000000000000000000000000000000000000000000000600052603160045260246000fdfe7361666544656c6567617465496d706c656d656e746174696f6e206e6f742073657472657761726450726f6772616d526567697374726174696f6e466565496e5350454e442069732061626f766520746865206d6178696d756d72657761726450726f6772616d526567697374726174696f6e466565496e5350454e44206973206e6f74207365747265776172642070726f6772616d20616c7265616479207265676973746572656465697031323731436f6e74726163747320686173207a65726f206164647265737343616e6e6f74207472616e7366657220746f206f776e657220776869636820616c72656164792068617320726577617264207361666563616c6c6572206973206e6f742061207265676973746572656420616374696f6e2068616e646c6572756e6578706563746564206e756d626572206f66206f776e65727320666f72207265776172642073616665a26469706673582212201924f2588f7b247137cd45257eb2f83086bef79e5554acbacedb436b0aca398c64736f6c63430008090033",
  "linkReferences": {},
  "deployedLinkReferences": {}
}