{
  "_format": "hh-sol-artifact-1",
  "contractName": "RewardPool",
  "sourceName": "contracts/RewardPool.sol",
  "abi": [
    {
      "anonymous": false,
      "inputs": [
        {
          "indexed": false,
          "internalType": "uint8",
          "name": "version",
          "type": "uint8"
        }
      ],
      "name": "Initialized",
      "type": "event"
    },
    {
      "anonymous": false,
      "inputs": [
        {
          "indexed": false,
          "internalType": "bytes32",
          "name": "payeeRoot",
          "type": "bytes32"
        },
        {
          "indexed": false,
          "internalType": "address",
          "name": "rewardProgramID",
          "type": "address"
        },
        {
          "indexed": false,
          "internalType": "uint256",
          "name": "paymentCycle",
          "type": "uint256"
        }
      ],
      "name": "MerkleRootSubmission",
      "type": "event"
    },
    {
      "anonymous": false,
      "inputs": [
        {
          "indexed": true,
          "internalType": "address",
          "name": "previousOwner",
          "type": "address"
        },
        {
          "indexed": true,
          "internalType": "address",
          "name": "newOwner",
          "type": "address"
        }
      ],
      "name": "OwnershipTransferred",
      "type": "event"
    },
    {
      "anonymous": false,
      "inputs": [
        {
          "indexed": false,
          "internalType": "address",
          "name": "rewardProgramID",
          "type": "address"
        },
        {
          "indexed": false,
          "internalType": "address",
          "name": "sender",
          "type": "address"
        },
        {
          "indexed": false,
          "internalType": "address",
          "name": "tokenAddress",
          "type": "address"
        },
        {
          "indexed": false,
          "internalType": "uint256",
          "name": "amount",
          "type": "uint256"
        }
      ],
      "name": "RewardTokensAdded",
      "type": "event"
    },
    {
      "anonymous": false,
      "inputs": [
        {
          "indexed": false,
          "internalType": "address",
          "name": "rewardProgramID",
          "type": "address"
        },
        {
          "indexed": false,
          "internalType": "address",
          "name": "token",
          "type": "address"
        },
        {
          "indexed": false,
          "internalType": "uint256",
          "name": "amount",
          "type": "uint256"
        },
        {
          "indexed": false,
          "internalType": "address",
          "name": "rewardProgramAdmin",
          "type": "address"
        }
      ],
      "name": "RewardTokensRecovered",
      "type": "event"
    },
    {
      "anonymous": false,
      "inputs": [
        {
          "indexed": false,
          "internalType": "address",
          "name": "rewardProgramID",
          "type": "address"
        },
        {
          "indexed": false,
          "internalType": "address",
          "name": "rewardee",
          "type": "address"
        },
        {
          "indexed": false,
          "internalType": "address",
          "name": "rewardSafe",
          "type": "address"
        },
        {
          "indexed": false,
          "internalType": "address",
          "name": "token",
          "type": "address"
        },
        {
          "indexed": false,
          "internalType": "uint256",
          "name": "amount",
          "type": "uint256"
        },
        {
          "indexed": false,
          "internalType": "bytes",
          "name": "leaf",
          "type": "bytes"
        }
      ],
      "name": "RewardeeClaim",
      "type": "event"
    },
    {
      "anonymous": false,
      "inputs": [
        {
          "indexed": false,
          "internalType": "address",
          "name": "tally",
          "type": "address"
        },
        {
          "indexed": false,
          "internalType": "address",
          "name": "rewardManager",
          "type": "address"
        },
        {
          "indexed": false,
          "internalType": "address",
          "name": "tokenManager",
          "type": "address"
        }
      ],
      "name": "Setup",
      "type": "event"
    },
    {
      "inputs": [],
      "name": "cardpayVersion",
      "outputs": [
        {
          "internalType": "string",
          "name": "",
          "type": "string"
        }
      ],
      "stateMutability": "view",
      "type": "function"
    },
    {
      "inputs": [
        {
          "internalType": "bytes",
          "name": "leaf",
          "type": "bytes"
        },
        {
          "internalType": "bytes32[]",
          "name": "proof",
          "type": "bytes32[]"
        },
        {
          "internalType": "bool",
          "name": "acceptPartialClaim",
          "type": "bool"
        }
      ],
      "name": "claim",
      "outputs": [
        {
          "internalType": "bool",
          "name": "",
          "type": "bool"
        }
      ],
      "stateMutability": "nonpayable",
      "type": "function"
    },
    {
      "inputs": [
        {
          "internalType": "bytes",
          "name": "leaf",
          "type": "bytes"
        }
      ],
      "name": "claimed",
      "outputs": [
        {
          "internalType": "bool",
          "name": "",
          "type": "bool"
        }
      ],
      "stateMutability": "view",
      "type": "function"
    },
    {
      "inputs": [
        {
          "internalType": "address",
          "name": "owner",
          "type": "address"
        }
      ],
      "name": "initialize",
      "outputs": [],
      "stateMutability": "nonpayable",
      "type": "function"
    },
    {
      "inputs": [
        {
          "internalType": "address",
          "name": "from",
          "type": "address"
        },
        {
          "internalType": "uint256",
          "name": "amount",
          "type": "uint256"
        },
        {
          "internalType": "bytes",
          "name": "data",
          "type": "bytes"
        }
      ],
      "name": "onTokenTransfer",
      "outputs": [
        {
          "internalType": "bool",
          "name": "",
          "type": "bool"
        }
      ],
      "stateMutability": "nonpayable",
      "type": "function"
    },
    {
      "inputs": [],
      "name": "owner",
      "outputs": [
        {
          "internalType": "address",
          "name": "",
          "type": "address"
        }
      ],
      "stateMutability": "view",
      "type": "function"
    },
    {
      "inputs": [
        {
          "internalType": "address",
          "name": "",
          "type": "address"
        },
        {
          "internalType": "uint256",
          "name": "",
          "type": "uint256"
        }
      ],
      "name": "payeeRoots",
      "outputs": [
        {
          "internalType": "bytes32",
          "name": "",
          "type": "bytes32"
        }
      ],
      "stateMutability": "view",
      "type": "function"
    },
    {
      "inputs": [
        {
          "internalType": "address",
          "name": "rewardProgramID",
          "type": "address"
        },
        {
          "internalType": "address",
          "name": "token",
          "type": "address"
        },
        {
          "internalType": "uint256",
          "name": "amount",
          "type": "uint256"
        }
      ],
      "name": "recoverTokens",
      "outputs": [],
      "stateMutability": "nonpayable",
      "type": "function"
    },
    {
      "inputs": [],
      "name": "renounceOwnership",
      "outputs": [],
      "stateMutability": "nonpayable",
      "type": "function"
    },
    {
      "inputs": [
        {
          "internalType": "address",
          "name": "",
          "type": "address"
        },
        {
          "internalType": "address",
          "name": "",
          "type": "address"
        }
      ],
      "name": "rewardBalance",
      "outputs": [
        {
          "internalType": "uint256",
          "name": "",
          "type": "uint256"
        }
      ],
      "stateMutability": "view",
      "type": "function"
    },
    {
      "inputs": [],
      "name": "rewardManager",
      "outputs": [
        {
          "internalType": "address",
          "name": "",
          "type": "address"
        }
      ],
      "stateMutability": "view",
      "type": "function"
    },
    {
      "inputs": [
        {
          "internalType": "address",
          "name": "_tally",
          "type": "address"
        },
        {
          "internalType": "address",
          "name": "_rewardManager",
          "type": "address"
        },
        {
          "internalType": "address",
          "name": "_tokenManager",
          "type": "address"
        },
        {
          "internalType": "address",
          "name": "_versionManager",
          "type": "address"
        }
      ],
      "name": "setup",
      "outputs": [],
      "stateMutability": "nonpayable",
      "type": "function"
    },
    {
      "inputs": [
        {
          "internalType": "address",
          "name": "rewardProgramID",
          "type": "address"
        },
        {
          "internalType": "uint256",
          "name": "paymentCycle",
          "type": "uint256"
        },
        {
          "internalType": "bytes32",
          "name": "payeeRoot",
          "type": "bytes32"
        }
      ],
      "name": "submitPayeeMerkleRoot",
      "outputs": [
        {
          "internalType": "bool",
          "name": "",
          "type": "bool"
        }
      ],
      "stateMutability": "nonpayable",
      "type": "function"
    },
    {
      "inputs": [],
      "name": "tally",
      "outputs": [
        {
          "internalType": "address",
          "name": "",
          "type": "address"
        }
      ],
      "stateMutability": "view",
      "type": "function"
    },
    {
      "inputs": [],
      "name": "tokenManager",
      "outputs": [
        {
          "internalType": "address",
          "name": "",
          "type": "address"
        }
      ],
      "stateMutability": "view",
      "type": "function"
    },
    {
      "inputs": [
        {
          "internalType": "address",
          "name": "newOwner",
          "type": "address"
        }
      ],
      "name": "transferOwnership",
      "outputs": [],
      "stateMutability": "nonpayable",
      "type": "function"
    },
    {
      "inputs": [
        {
          "internalType": "bytes",
          "name": "leaf",
          "type": "bytes"
        },
        {
          "internalType": "bytes32[]",
          "name": "proof",
          "type": "bytes32[]"
        }
      ],
      "name": "valid",
      "outputs": [
        {
          "internalType": "bool",
          "name": "",
          "type": "bool"
        }
      ],
      "stateMutability": "view",
      "type": "function"
    },
    {
      "inputs": [],
      "name": "versionManager",
      "outputs": [
        {
          "internalType": "address",
          "name": "",
          "type": "address"
        }
      ],
      "stateMutability": "view",
      "type": "function"
    }
  ],
  "bytecode": "0x608060405234801561001057600080fd5b50613c56806100206000396000f3fe608060405234801561001057600080fd5b50600436106101165760003560e01c80638da5cb5b116100a2578063bbac408c11610071578063bbac408c1461067b578063c4d66de81461074c578063c85af72114610790578063f2fde38b146108f5578063fff3f2c91461093957610116565b80638da5cb5b146104265780639e7b08141461045a578063a4c0ed361461054a578063aca2efc71461060357610116565b80635f3e849f116100e95780635f3e849f1461025b57806367c5e51b146102c95780636f5fac401461032b578063715018a6146103ae57806375dafbd9146103b857610116565b80630f4ef8a61461011b5780632a709b141461014f578063410673e51461018357806354c35a3c146101b7575b600080fd5b61012361096d565b604051808273ffffffffffffffffffffffffffffffffffffffff16815260200191505060405180910390f35b610157610993565b604051808273ffffffffffffffffffffffffffffffffffffffff16815260200191505060405180910390f35b61018b6109b9565b604051808273ffffffffffffffffffffffffffffffffffffffff16815260200191505060405180910390f35b610259600480360360808110156101cd57600080fd5b81019080803573ffffffffffffffffffffffffffffffffffffffff169060200190929190803573ffffffffffffffffffffffffffffffffffffffff169060200190929190803573ffffffffffffffffffffffffffffffffffffffff169060200190929190803573ffffffffffffffffffffffffffffffffffffffff1690602001909291905050506109df565b005b6102c76004803603606081101561027157600080fd5b81019080803573ffffffffffffffffffffffffffffffffffffffff169060200190929190803573ffffffffffffffffffffffffffffffffffffffff16906020019092919080359060200190929190505050610ce7565b005b610315600480360360408110156102df57600080fd5b81019080803573ffffffffffffffffffffffffffffffffffffffff1690602001909291908035906020019092919050505061117d565b6040518082815260200191505060405180910390f35b6103336111a2565b6040518080602001828103825283818151815260200191508051906020019080838360005b83811015610373578082015181840152602081019050610358565b50505050905090810190601f1680156103a05780820380516001836020036101000a031916815260200191505b509250505060405180910390f35b6103b661130a565b005b61040e600480360360608110156103ce57600080fd5b81019080803573ffffffffffffffffffffffffffffffffffffffff169060200190929190803590602001909291908035906020019092919050505061131e565b60405180821515815260200191505060405180910390f35b61042e611664565b604051808273ffffffffffffffffffffffffffffffffffffffff16815260200191505060405180910390f35b6105326004803603606081101561047057600080fd5b810190808035906020019064010000000081111561048d57600080fd5b82018360208201111561049f57600080fd5b803590602001918460018302840111640100000000831117156104c157600080fd5b9091929391929390803590602001906401000000008111156104e257600080fd5b8201836020820111156104f457600080fd5b8035906020019184602083028401116401000000008311171561051657600080fd5b909192939192939080351515906020019092919050505061168e565b60405180821515815260200191505060405180910390f35b6105eb6004803603606081101561056057600080fd5b81019080803573ffffffffffffffffffffffffffffffffffffffff16906020019092919080359060200190929190803590602001906401000000008111156105a757600080fd5b8201836020820111156105b957600080fd5b803590602001918460018302840111640100000000831117156105db57600080fd5b9091929391929390505050611e08565b60405180821515815260200191505060405180910390f35b6106656004803603604081101561061957600080fd5b81019080803573ffffffffffffffffffffffffffffffffffffffff169060200190929190803573ffffffffffffffffffffffffffffffffffffffff169060200190929190505050612257565b6040518082815260200191505060405180910390f35b6107346004803603602081101561069157600080fd5b81019080803590602001906401000000008111156106ae57600080fd5b8201836020820111156106c057600080fd5b803590602001918460018302840111640100000000831117156106e257600080fd5b91908080601f016020809104026020016040519081016040528093929190818152602001838380828437600081840152601f19601f82011690508083019250505050505050919291929050505061227c565b60405180821515815260200191505060405180910390f35b61078e6004803603602081101561076257600080fd5b81019080803573ffffffffffffffffffffffffffffffffffffffff1690602001909291905050506122ad565b005b6108dd600480360360408110156107a657600080fd5b81019080803590602001906401000000008111156107c357600080fd5b8201836020820111156107d557600080fd5b803590602001918460018302840111640100000000831117156107f757600080fd5b91908080601f016020809104026020016040519081016040528093929190818152602001838380828437600081840152601f19601f8201169050808301925050505050505091929192908035906020019064010000000081111561085a57600080fd5b82018360208201111561086c57600080fd5b8035906020019184602083028401116401000000008311171561088e57600080fd5b919080806020026020016040519081016040528093929190818152602001838360200280828437600081840152601f19601f8201169050808301925050505050505091929192905050506123ed565b60405180821515815260200191505060405180910390f35b6109376004803603602081101561090b57600080fd5b81019080803573ffffffffffffffffffffffffffffffffffffffff1690602001909291905050506125ac565b005b610941612630565b604051808273ffffffffffffffffffffffffffffffffffffffff16815260200191505060405180910390f35b609960009054906101000a900473ffffffffffffffffffffffffffffffffffffffff1681565b609a60009054906101000a900473ffffffffffffffffffffffffffffffffffffffff1681565b609860009054906101000a900473ffffffffffffffffffffffffffffffffffffffff1681565b6109e7612656565b83609860006101000a81548173ffffffffffffffffffffffffffffffffffffffff021916908373ffffffffffffffffffffffffffffffffffffffff16021790555082609960006101000a81548173ffffffffffffffffffffffffffffffffffffffff021916908373ffffffffffffffffffffffffffffffffffffffff16021790555081609a60006101000a81548173ffffffffffffffffffffffffffffffffffffffff021916908373ffffffffffffffffffffffffffffffffffffffff16021790555080609e60006101000a81548173ffffffffffffffffffffffffffffffffffffffff021916908373ffffffffffffffffffffffffffffffffffffffff160217905550600073ffffffffffffffffffffffffffffffffffffffff16609860009054906101000a900473ffffffffffffffffffffffffffffffffffffffff1673ffffffffffffffffffffffffffffffffffffffff161415610bb0576040517f08c379a00000000000000000000000000000000000000000000000000000000081526004018080602001828103825260208152602001807f54616c6c792073686f756c64206e6f74206265207a65726f206164647265737381525060200191505060405180910390fd5b600073ffffffffffffffffffffffffffffffffffffffff16609960009054906101000a900473ffffffffffffffffffffffffffffffffffffffff1673ffffffffffffffffffffffffffffffffffffffff161415610c58576040517f08c379a0000000000000000000000000000000000000000000000000000000008152600401808060200182810382526029815260200180613a1c6029913960400191505060405180910390fd5b7f99566d155bc7902033d8db6b0f091f12209d9651abdae3aad004632bd3e657b5848484604051808473ffffffffffffffffffffffffffffffffffffffff1681526020018373ffffffffffffffffffffffffffffffffffffffff1681526020018273ffffffffffffffffffffffffffffffffffffffff168152602001935050505060405180910390a150505050565b6000609960009054906101000a900473ffffffffffffffffffffffffffffffffffffffff1673ffffffffffffffffffffffffffffffffffffffff1663606be33b856040518263ffffffff1660e01b8152600401808273ffffffffffffffffffffffffffffffffffffffff16815260200191505060206040518083038186803b158015610d7257600080fd5b505afa158015610d86573d6000803e3d6000fd5b505050506040513d6020811015610d9c57600080fd5b81019080805190602001909291905050509050600073ffffffffffffffffffffffffffffffffffffffff168173ffffffffffffffffffffffffffffffffffffffff161415610e35576040517f08c379a0000000000000000000000000000000000000000000000000000000008152600401808060200182810382526023815260200180613b5e6023913960400191505060405180910390fd5b8073ffffffffffffffffffffffffffffffffffffffff16610e55336126d4565b73ffffffffffffffffffffffffffffffffffffffff1614610ec1576040517f08c379a0000000000000000000000000000000000000000000000000000000008152600401808060200182810382526029815260200180613b816029913960400191505060405180910390fd5b81609d60008673ffffffffffffffffffffffffffffffffffffffff1673ffffffffffffffffffffffffffffffffffffffff16815260200190815260200160002060008573ffffffffffffffffffffffffffffffffffffffff1673ffffffffffffffffffffffffffffffffffffffff168152602001908152602001600020541015610fb3576040517f08c379a000000000000000000000000000000000000000000000000000000000815260040180806020018281038252601d8152602001807f6e6f7420656e6f75676820746f6b656e7320746f20776974686472617700000081525060200191505060405180910390fd5b81609d60008673ffffffffffffffffffffffffffffffffffffffff1673ffffffffffffffffffffffffffffffffffffffff16815260200190815260200160002060008573ffffffffffffffffffffffffffffffffffffffff1673ffffffffffffffffffffffffffffffffffffffff1681526020019081526020016000205461103b91906132fe565b609d60008673ffffffffffffffffffffffffffffffffffffffff1673ffffffffffffffffffffffffffffffffffffffff16815260200190815260200160002060008573ffffffffffffffffffffffffffffffffffffffff1673ffffffffffffffffffffffffffffffffffffffff168152602001908152602001600020819055507fd38f5e3f5601db8ab1ebf315162a27dde21e2c8db52d81581794a5c2055c3bfa84848484604051808573ffffffffffffffffffffffffffffffffffffffff1681526020018473ffffffffffffffffffffffffffffffffffffffff1681526020018381526020018273ffffffffffffffffffffffffffffffffffffffff16815260200194505050505060405180910390a161117733838573ffffffffffffffffffffffffffffffffffffffff166128479092919063ffffffff16565b50505050565b609c602052816000526040600020602052806000526040600020600091509150505481565b6060609e60009054906101000a900473ffffffffffffffffffffffffffffffffffffffff1673ffffffffffffffffffffffffffffffffffffffff166354fd4d506040518163ffffffff1660e01b815260040160006040518083038186803b15801561120c57600080fd5b505afa158015611220573d6000803e3d6000fd5b505050506040513d6000823e3d601f19601f82011682018060405250602081101561124a57600080fd5b810190808051604051939291908464010000000082111561126a57600080fd5b8382019150602082018581111561128057600080fd5b825186600182028301116401000000008211171561129d57600080fd5b8083526020830192505050908051906020019080838360005b838110156112d15780820151818401526020810190506112b6565b50505050905090810190601f1680156112fe5780820380516001836020036101000a031916815260200191505b50604052505050905090565b611312612656565b61131c60006128cd565b565b60003373ffffffffffffffffffffffffffffffffffffffff16609860009054906101000a900473ffffffffffffffffffffffffffffffffffffffff1673ffffffffffffffffffffffffffffffffffffffff16146113e3576040517f08c379a00000000000000000000000000000000000000000000000000000000081526004018080602001828103825260138152602001807f43616c6c6572206973206e6f742074616c6c790000000000000000000000000081525060200191505060405180910390fd5b609960009054906101000a900473ffffffffffffffffffffffffffffffffffffffff1673ffffffffffffffffffffffffffffffffffffffff16639525581c856040518263ffffffff1660e01b8152600401808273ffffffffffffffffffffffffffffffffffffffff16815260200191505060206040518083038186803b15801561146c57600080fd5b505afa158015611480573d6000803e3d6000fd5b505050506040513d602081101561149657600080fd5b81019080805190602001909291905050506114fc576040517f08c379a0000000000000000000000000000000000000000000000000000000008152600401808060200182810382526036815260200180613a456036913960400191505060405180910390fd5b6000801b609c60008673ffffffffffffffffffffffffffffffffffffffff1673ffffffffffffffffffffffffffffffffffffffff168152602001908152602001600020600085815260200190815260200160002054146115a7576040517f08c379a0000000000000000000000000000000000000000000000000000000008152600401808060200182810382526035815260200180613b296035913960400191505060405180910390fd5b81609c60008673ffffffffffffffffffffffffffffffffffffffff1673ffffffffffffffffffffffffffffffffffffffff1681526020019081526020016000206000858152602001908152602001600020819055507f72e470b0531f41c06072c2e35cc71e1b62730d1884c1f93c67a8c81acce97d1f828585604051808481526020018373ffffffffffffffffffffffffffffffffffffffff168152602001828152602001935050505060405180910390a1600190509392505050565b6000606560009054906101000a900473ffffffffffffffffffffffffffffffffffffffff16905090565b60008060008060008060008b8b60e08110156116a957600080fd5b81019080803573ffffffffffffffffffffffffffffffffffffffff16906020019092919080359060200190929190803590602001909291908035906020019092919080359060200190929190803573ffffffffffffffffffffffffffffffffffffffff1690602001909291908035906020019064010000000081111561172e57600080fd5b82018360208201111561174057600080fd5b8035906020019184600183028401116401000000008311171561176257600080fd5b91908080601f016020809104026020016040519081016040528093929190818152602001838380828437600081840152601f19601f8201169050808301925050505050505091929192905050509650965096509650965050955060008311611815576040517f08c379a000000000000000000000000000000000000000000000000000000000815260040180806020018281038252603d815260200180613baa603d913960400191505060405180910390fd5b6001831461188b576040517f08c379a00000000000000000000000000000000000000000000000000000000081526004018080602001828103825260208152602001807f546f6b656e20747970652063757272656e746c7920756e737570706f7274656481525060200191505060405180910390fd5b844310156118e4576040517f08c379a000000000000000000000000000000000000000000000000000000000815260040180806020018281038252602f815260200180613ad6602f913960400191505060405180910390fd5b83431061193c576040517f08c379a0000000000000000000000000000000000000000000000000000000008152600401808060200182810382526024815260200180613a7b6024913960400191505060405180910390fd5b6119cb8c8c8080601f016020809104026020016040519081016040528093929190818152602001838380828437600081840152601f19601f820116905080830192505050505050508b8b80806020026020016040519081016040528093929190818152602001838360200280828437600081840152601f19601f820116905080830192505050505050506123ed565b611a3d576040517f08c379a00000000000000000000000000000000000000000000000000000000081526004018080602001828103825260108152602001807f50726f6f6620697320696e76616c69640000000000000000000000000000000081525060200191505060405180910390fd5b60001515611a8e8d8d8080601f016020809104026020016040519081016040528093929190818152602001838380828437600081840152601f19601f8201169050808301925050505050505061227c565b151514611b03576040517f08c379a000000000000000000000000000000000000000000000000000000000815260040180806020018281038252601f8152602001807f5265776172642068617320616c7265616479206265656e20636c61696d65640081525060200191505060405180910390fd5b6000609960009054906101000a900473ffffffffffffffffffffffffffffffffffffffff1673ffffffffffffffffffffffffffffffffffffffff16639fa6412d336040518263ffffffff1660e01b8152600401808273ffffffffffffffffffffffffffffffffffffffff16815260200191505060206040518083038186803b158015611b8e57600080fd5b505afa158015611ba2573d6000803e3d6000fd5b505050506040513d6020811015611bb857600080fd5b810190808051906020019092919050505090508273ffffffffffffffffffffffffffffffffffffffff168173ffffffffffffffffffffffffffffffffffffffff1614611c6c576040517f08c379a000000000000000000000000000000000000000000000000000000000815260040180806020018281038252601c8152602001807f43616e206f6e6c7920626520636c61696d65642062792070617965650000000081525060200191505060405180910390fd5b609960009054906101000a900473ffffffffffffffffffffffffffffffffffffffff1673ffffffffffffffffffffffffffffffffffffffff1663ff9d446333896040518363ffffffff1660e01b8152600401808373ffffffffffffffffffffffffffffffffffffffff1681526020018273ffffffffffffffffffffffffffffffffffffffff1681526020019250505060206040518083038186803b158015611d1357600080fd5b505afa158015611d27573d6000803e3d6000fd5b505050506040513d6020811015611d3d57600080fd5b8101908080519060200190929190505050611da3576040517f08c379a0000000000000000000000000000000000000000000000000000000008152600401808060200182810382526037815260200180613a9f6037913960400191505060405180910390fd5b611df48d8d8080601f016020809104026020016040519081016040528093929190818152602001838380828437600081840152601f19601f820116905080830192505050505050508883858d612993565b600197505050505050505095945050505050565b6000609a60009054906101000a900473ffffffffffffffffffffffffffffffffffffffff1673ffffffffffffffffffffffffffffffffffffffff1663c1876453336040518263ffffffff1660e01b8152600401808273ffffffffffffffffffffffffffffffffffffffff16815260200191505060206040518083038186803b158015611e9357600080fd5b505afa158015611ea7573d6000803e3d6000fd5b505050506040513d6020811015611ebd57600080fd5b8101908080519060200190929190505050611f40576040517f08c379a000000000000000000000000000000000000000000000000000000000815260040180806020018281038252601b8152602001807f63616c6c696e6720746f6b656e20697320756e6163636570746564000000000081525060200191505060405180910390fd5b600083836020811015611f5257600080fd5b81019080803573ffffffffffffffffffffffffffffffffffffffff1690602001909291905050509050609960009054906101000a900473ffffffffffffffffffffffffffffffffffffffff1673ffffffffffffffffffffffffffffffffffffffff16639525581c826040518263ffffffff1660e01b8152600401808273ffffffffffffffffffffffffffffffffffffffff16815260200191505060206040518083038186803b15801561200457600080fd5b505afa158015612018573d6000803e3d6000fd5b505050506040513d602081101561202e57600080fd5b81019080805190602001909291905050506120b1576040517f08c379a000000000000000000000000000000000000000000000000000000000815260040180806020018281038252601b8152602001807f7265776172642070726f6772616d206973206e6f7420666f756e64000000000081525060200191505060405180910390fd5b84609d60008373ffffffffffffffffffffffffffffffffffffffff1673ffffffffffffffffffffffffffffffffffffffff16815260200190815260200160002060003373ffffffffffffffffffffffffffffffffffffffff1673ffffffffffffffffffffffffffffffffffffffff168152602001908152602001600020546121399190613332565b609d60008373ffffffffffffffffffffffffffffffffffffffff1673ffffffffffffffffffffffffffffffffffffffff16815260200190815260200160002060003373ffffffffffffffffffffffffffffffffffffffff1673ffffffffffffffffffffffffffffffffffffffff168152602001908152602001600020819055507f2968c49363fa6a705eb57f01eddd0a245fac83807bdc4d2ff1f29918ca6eb5ce81873388604051808573ffffffffffffffffffffffffffffffffffffffff1681526020018473ffffffffffffffffffffffffffffffffffffffff1681526020018373ffffffffffffffffffffffffffffffffffffffff16815260200182815260200194505050505060405180910390a16001915050949350505050565b609d602052816000526040600020602052806000526040600020600091509150505481565b6000609b60008380519060200120815260200190815260200160002060009054906101000a900460ff169050919050565b60008060019054906101000a900460ff161590508080156122de5750600160008054906101000a900460ff1660ff16105b8061230b57506122ed30612e39565b15801561230a5750600160008054906101000a900460ff1660ff16145b5b61234a576040517f08c379a00000000000000000000000000000000000000000000000000000000081526004016123419061340b565b60405180910390fd5b60016000806101000a81548160ff021916908360ff1602179055508015612387576001600060016101000a81548160ff0219169083151502179055505b61239082612e5c565b80156123e95760008060016101000a81548160ff0219169083151502179055507f7f26b83ff96e1f2b6a682f133852f6798a09c465da95921460cefb384740249860016040516123e0919061347d565b60405180910390a15b5050565b60008060008060008680602001905160e081101561240a57600080fd5b810190808051906020019092919080519060200190929190805190602001909291908051906020019092919080519060200190929190805190602001909291908051604051939291908464010000000082111561246657600080fd5b8382019150602082018581111561247c57600080fd5b825186600182028301116401000000008211171561249957600080fd5b8083526020830192505050908051906020019080838360005b838110156124cd5780820151818401526020810190506124b2565b50505050905090810190601f1680156124fa5780820380516001836020036101000a031916815260200191505b50604052505050505050935093509350935081431015801561251b57508043105b1561259d576000609c60008673ffffffffffffffffffffffffffffffffffffffff1673ffffffffffffffffffffffffffffffffffffffff168152602001908152602001600020600085815260200190815260200160002054905061259181898051906020012089612efa9092919063ffffffff16565b955050505050506125a6565b60009450505050505b92915050565b6125b4612656565b600073ffffffffffffffffffffffffffffffffffffffff168173ffffffffffffffffffffffffffffffffffffffff161415612624576040517f08c379a000000000000000000000000000000000000000000000000000000000815260040161261b9061350a565b60405180910390fd5b61262d816128cd565b50565b609e60009054906101000a900473ffffffffffffffffffffffffffffffffffffffff1681565b61265e612f11565b73ffffffffffffffffffffffffffffffffffffffff1661267c611664565b73ffffffffffffffffffffffffffffffffffffffff16146126d2576040517f08c379a00000000000000000000000000000000000000000000000000000000081526004016126c990613576565b60405180910390fd5b565b6000808273ffffffffffffffffffffffffffffffffffffffff1663a0e67e2b6040518163ffffffff1660e01b815260040160006040518083038186803b15801561271d57600080fd5b505afa158015612731573d6000803e3d6000fd5b505050506040513d6000823e3d601f19601f82011682018060405250602081101561275b57600080fd5b810190808051604051939291908464010000000082111561277b57600080fd5b8382019150602082018581111561279157600080fd5b82518660208202830111640100000000821117156127ae57600080fd5b8083526020830192505050908051906020019060200280838360005b838110156127e55780820151818401526020810190506127ca565b505050509050016040525050509050600281511415612822578060018151811061281257612811613596565b5b6020026020010151915050612842565b8060008151811061283657612835613596565b5b60200260200101519150505b919050565b6128c88363a9059cbb60e01b8484604051602401612866929190613615565b604051602081830303815290604052907bffffffffffffffffffffffffffffffffffffffffffffffffffffffff19166020820180517bffffffffffffffffffffffffffffffffffffffffffffffffffffffff8381831617835250505050612f19565b505050565b6000606560009054906101000a900473ffffffffffffffffffffffffffffffffffffffff16905081606560006101000a81548173ffffffffffffffffffffffffffffffffffffffff021916908373ffffffffffffffffffffffffffffffffffffffff1602179055508173ffffffffffffffffffffffffffffffffffffffff168173ffffffffffffffffffffffffffffffffffffffff167f8be0079c531659141344cd1fd0a4f28419497f9722a3daafe3b4186f6b6457e060405160405180910390a35050565b6000808380602001905160408110156129ab57600080fd5b810190808051906020019092919080519060200190929190505050915091506000609d60008873ffffffffffffffffffffffffffffffffffffffff1673ffffffffffffffffffffffffffffffffffffffff16815260200190815260200160002060008473ffffffffffffffffffffffffffffffffffffffff1673ffffffffffffffffffffffffffffffffffffffff16815260200190815260200160002054905060008111612ac1576040517f08c379a000000000000000000000000000000000000000000000000000000000815260040180806020018281038252601f8152602001807f5265776172642070726f6772616d2062616c616e636520697320656d7074790081525060200191505060405180910390fd5b838015612acd57508181105b15612ad6578091505b818373ffffffffffffffffffffffffffffffffffffffff166370a08231306040518263ffffffff1660e01b8152600401808273ffffffffffffffffffffffffffffffffffffffff16815260200191505060206040518083038186803b158015612b3e57600080fd5b505afa158015612b52573d6000803e3d6000fd5b505050506040513d6020811015612b6857600080fd5b81019080805190602001909291905050501015612bd0576040517f08c379a0000000000000000000000000000000000000000000000000000000008152600401808060200182810382526024815260200180613b056024913960400191505060405180910390fd5b81811015612c29576040517f08c379a000000000000000000000000000000000000000000000000000000000815260040180806020018281038252603a815260200180613be7603a913960400191505060405180910390fd5b6001609b60008a80519060200120815260200190815260200160002060006101000a81548160ff0219169083151502179055508181612c6891906132fe565b609d60008973ffffffffffffffffffffffffffffffffffffffff1673ffffffffffffffffffffffffffffffffffffffff16815260200190815260200160002060008573ffffffffffffffffffffffffffffffffffffffff1673ffffffffffffffffffffffffffffffffffffffff16815260200190815260200160002081905550612d1333838573ffffffffffffffffffffffffffffffffffffffff166128479092919063ffffffff16565b7f8e20063bcc312924910c43239c7d725338c265f445d2db5015e98e97380d701287873386868d604051808773ffffffffffffffffffffffffffffffffffffffff1681526020018673ffffffffffffffffffffffffffffffffffffffff1681526020018573ffffffffffffffffffffffffffffffffffffffff1681526020018473ffffffffffffffffffffffffffffffffffffffff16815260200183815260200180602001828103825283818151815260200191508051906020019080838360005b83811015612df0578082015181840152602081019050612dd5565b50505050905090810190601f168015612e1d5780820380516001836020036101000a031916815260200191505b5097505050505050505060405180910390a15050505050505050565b6000808273ffffffffffffffffffffffffffffffffffffffff163b119050919050565b600060019054906101000a900460ff16612eab576040517f08c379a0000000000000000000000000000000000000000000000000000000008152600401612ea2906136b0565b60405180910390fd5b612eb3612fe0565b8073ffffffffffffffffffffffffffffffffffffffff16612ed2612f11565b73ffffffffffffffffffffffffffffffffffffffff1614612ef757612ef6816128cd565b5b50565b600082612f078584613039565b1490509392505050565b600033905090565b6000612f7b826040518060400160405280602081526020017f5361666545524332303a206c6f772d6c6576656c2063616c6c206661696c65648152508573ffffffffffffffffffffffffffffffffffffffff1661308f9092919063ffffffff16565b9050600081511115612fdb5780806020019051810190612f9b919061370d565b612fda576040517f08c379a0000000000000000000000000000000000000000000000000000000008152600401612fd1906137ac565b60405180910390fd5b5b505050565b600060019054906101000a900460ff1661302f576040517f08c379a0000000000000000000000000000000000000000000000000000000008152600401613026906136b0565b60405180910390fd5b6130376130a7565b565b60008082905060005b84518110156130845761306f8286838151811061306257613061613596565b5b6020026020010151613108565b9150808061307c906137cc565b915050613042565b508091505092915050565b606061309e8484600085613133565b90509392505050565b600060019054906101000a900460ff166130f6576040517f08c379a00000000000000000000000000000000000000000000000000000000081526004016130ed906136b0565b60405180910390fd5b613106613101612f11565b6128cd565b565b60008183106131205761311b8284613247565b61312b565b61312a8383613247565b5b905092915050565b606082471015613178576040517f08c379a000000000000000000000000000000000000000000000000000000000815260040161316f90613887565b60405180910390fd5b61318185612e39565b6131c0576040517f08c379a00000000000000000000000000000000000000000000000000000000081526004016131b7906138f3565b60405180910390fd5b6000808673ffffffffffffffffffffffffffffffffffffffff1685876040516131e9919061398d565b60006040518083038185875af1925050503d8060008114613226576040519150601f19603f3d011682016040523d82523d6000602084013e61322b565b606091505b509150915061323b82828661325e565b92505050949350505050565b600082600052816020526040600020905092915050565b6060831561326e578290506132be565b6000835111156132815782518084602001fd5b816040517f08c379a00000000000000000000000000000000000000000000000000000000081526004016132b591906139f9565b60405180910390fd5b9392505050565b6000819050919050565b7f4e487b7100000000000000000000000000000000000000000000000000000000600052601160045260246000fd5b6000613309826132c5565b9150613314836132c5565b925082821015613327576133266132cf565b5b828203905092915050565b600061333d826132c5565b9150613348836132c5565b9250827fffffffffffffffffffffffffffffffffffffffffffffffffffffffffffffffff0382111561337d5761337c6132cf565b5b828201905092915050565b600082825260208201905092915050565b7f496e697469616c697a61626c653a20636f6e747261637420697320616c72656160008201527f647920696e697469616c697a6564000000000000000000000000000000000000602082015250565b60006133f5602e83613388565b915061340082613399565b604082019050919050565b60006020820190508181036000830152613424816133e8565b9050919050565b6000819050919050565b600060ff82169050919050565b6000819050919050565b600061346761346261345d8461342b565b613442565b613435565b9050919050565b6134778161344c565b82525050565b6000602082019050613492600083018461346e565b92915050565b7f4f776e61626c653a206e6577206f776e657220697320746865207a65726f206160008201527f6464726573730000000000000000000000000000000000000000000000000000602082015250565b60006134f4602683613388565b91506134ff82613498565b604082019050919050565b60006020820190508181036000830152613523816134e7565b9050919050565b7f4f776e61626c653a2063616c6c6572206973206e6f7420746865206f776e6572600082015250565b6000613560602083613388565b915061356b8261352a565b602082019050919050565b6000602082019050818103600083015261358f81613553565b9050919050565b7f4e487b7100000000000000000000000000000000000000000000000000000000600052603260045260246000fd5b600073ffffffffffffffffffffffffffffffffffffffff82169050919050565b60006135f0826135c5565b9050919050565b613600816135e5565b82525050565b61360f816132c5565b82525050565b600060408201905061362a60008301856135f7565b6136376020830184613606565b9392505050565b7f496e697469616c697a61626c653a20636f6e7472616374206973206e6f74206960008201527f6e697469616c697a696e67000000000000000000000000000000000000000000602082015250565b600061369a602b83613388565b91506136a58261363e565b604082019050919050565b600060208201905081810360008301526136c98161368d565b9050919050565b600080fd5b60008115159050919050565b6136ea816136d5565b81146136f557600080fd5b50565b600081519050613707816136e1565b92915050565b600060208284031215613723576137226136d0565b5b6000613731848285016136f8565b91505092915050565b7f5361666545524332303a204552433230206f7065726174696f6e20646964206e60008201527f6f74207375636365656400000000000000000000000000000000000000000000602082015250565b6000613796602a83613388565b91506137a18261373a565b604082019050919050565b600060208201905081810360008301526137c581613789565b9050919050565b60006137d7826132c5565b91507fffffffffffffffffffffffffffffffffffffffffffffffffffffffffffffffff82141561380a576138096132cf565b5b600182019050919050565b7f416464726573733a20696e73756666696369656e742062616c616e636520666f60008201527f722063616c6c0000000000000000000000000000000000000000000000000000602082015250565b6000613871602683613388565b915061387c82613815565b604082019050919050565b600060208201905081810360008301526138a081613864565b9050919050565b7f416464726573733a2063616c6c20746f206e6f6e2d636f6e7472616374000000600082015250565b60006138dd601d83613388565b91506138e8826138a7565b602082019050919050565b6000602082019050818103600083015261390c816138d0565b9050919050565b600081519050919050565b600081905092915050565b60005b8381101561394757808201518184015260208101905061392c565b83811115613956576000848401525b50505050565b600061396782613913565b613971818561391e565b9350613981818560208601613929565b80840191505092915050565b6000613999828461395c565b915081905092915050565b600081519050919050565b6000601f19601f8301169050919050565b60006139cb826139a4565b6139d58185613388565b93506139e5818560208601613929565b6139ee816139af565b840191505092915050565b60006020820190508181036000830152613a1381846139c0565b90509291505056fe526577617264204d616e616765722073686f756c64206e6f74206265207a65726f206164647265737343616e206f6e6c79207375626d6974206120726f6f7420666f7220612072656769737465726564207265776172642070726f6772616d43616e206f6e6c7920626520636c61696d6564206265666f726520656e6420626c6f636b63616e206f6e6c7920776974686472617720666f7220736166652072656769737465726564206f6e207265776172642070726f6772616d43616e206f6e6c7920626520636c61696d6564206f6e206f722061667465722074686520737461727420626c6f636b52657761726420706f6f6c2068617320696e73756666696369656e742062616c616e6365506179656520726f6f7420616c7265616479207375626d697474656420666f7220746869732070726f6772616d2026206379636c657265776172642070726f6772616d2061646d696e20646f6573206e6f742065786973746f776e6572206f662073616665206973206e6f74207265776172642070726f6772616d2061646d696e4e6f6e2d636c61696d61626c652070726f6f662c207573652076616c6964286c6561662c2070726f6f662920746f20636865636b2076616c69646974795265776172642070726f6772616d2068617320696e73756666696369656e742062616c616e636520696e736964652072657761726420706f6f6ca264697066735822122054a42dd8d1fbe344f94f5a678237fbc15517aa8e3894d2d56d71a89879c6312564736f6c63430008090033",
  "linkReferences": {},
  "deployedLinkReferences": {}
}