{
  "_format": "hh-sol-artifact-1",
  "contractName": "TokenManager",
  "sourceName": "contracts/TokenManager.sol",
  "abi": [
    {
      "anonymous": false,
      "inputs": [
        {
          "indexed": true,
          "internalType": "address",
          "name": "bridgeUtils",
          "type": "address"
        }
      ],
      "name": "BridgeUtilsSet",
      "type": "event"
    },
    {
      "anonymous": false,
      "inputs": [
        {
          "indexed": false,
          "internalType": "uint8",
          "name": "version",
          "type": "uint8"
        }
      ],
      "name": "Initialized",
      "type": "event"
    },
    {
      "anonymous": false,
      "inputs": [
        {
          "indexed": true,
          "internalType": "address",
          "name": "previousOwner",
          "type": "address"
        },
        {
          "indexed": true,
          "internalType": "address",
          "name": "newOwner",
          "type": "address"
        }
      ],
      "name": "OwnershipTransferred",
      "type": "event"
    },
    {
      "anonymous": false,
      "inputs": [
        {
          "indexed": true,
          "internalType": "address",
          "name": "token",
          "type": "address"
        }
      ],
      "name": "PayableTokenAdded",
      "type": "event"
    },
    {
      "anonymous": false,
      "inputs": [
        {
          "indexed": true,
          "internalType": "address",
          "name": "token",
          "type": "address"
        }
      ],
      "name": "PayableTokenRemoved",
      "type": "event"
    },
    {
      "inputs": [
        {
          "internalType": "address",
          "name": "_token",
          "type": "address"
        }
      ],
      "name": "addPayableToken",
      "outputs": [
        {
          "internalType": "bool",
          "name": "",
          "type": "bool"
        }
      ],
      "stateMutability": "nonpayable",
      "type": "function"
    },
    {
      "inputs": [],
      "name": "bridgeUtils",
      "outputs": [
        {
          "internalType": "address",
          "name": "",
          "type": "address"
        }
      ],
      "stateMutability": "view",
      "type": "function"
    },
    {
      "inputs": [],
      "name": "cardpayVersion",
      "outputs": [
        {
          "internalType": "string",
          "name": "",
          "type": "string"
        }
      ],
      "stateMutability": "view",
      "type": "function"
    },
    {
      "inputs": [],
      "name": "getTokens",
      "outputs": [
        {
          "internalType": "address[]",
          "name": "",
          "type": "address[]"
        }
      ],
      "stateMutability": "view",
      "type": "function"
    },
    {
      "inputs": [
        {
          "internalType": "address",
          "name": "owner",
          "type": "address"
        }
      ],
      "name": "initialize",
      "outputs": [],
      "stateMutability": "nonpayable",
      "type": "function"
    },
    {
      "inputs": [],
      "name": "isBridgeUtils",
      "outputs": [
        {
          "internalType": "bool",
          "name": "",
          "type": "bool"
        }
      ],
      "stateMutability": "view",
      "type": "function"
    },
    {
      "inputs": [
        {
          "internalType": "address",
          "name": "token",
          "type": "address"
        }
      ],
      "name": "isValidToken",
      "outputs": [
        {
          "internalType": "bool",
          "name": "",
          "type": "bool"
        }
      ],
      "stateMutability": "view",
      "type": "function"
    },
    {
      "inputs": [],
      "name": "owner",
      "outputs": [
        {
          "internalType": "address",
          "name": "",
          "type": "address"
        }
      ],
      "stateMutability": "view",
      "type": "function"
    },
    {
      "inputs": [
        {
          "internalType": "address",
          "name": "_token",
          "type": "address"
        }
      ],
      "name": "removePayableToken",
      "outputs": [
        {
          "internalType": "bool",
          "name": "",
          "type": "bool"
        }
      ],
      "stateMutability": "nonpayable",
      "type": "function"
    },
    {
      "inputs": [],
      "name": "renounceOwnership",
      "outputs": [],
      "stateMutability": "nonpayable",
      "type": "function"
    },
    {
      "inputs": [
        {
          "internalType": "address",
          "name": "_bridgeUtils",
          "type": "address"
        },
        {
          "internalType": "address[]",
          "name": "_payableTokens",
          "type": "address[]"
        },
        {
          "internalType": "address",
          "name": "_versionManager",
          "type": "address"
        }
      ],
      "name": "setup",
      "outputs": [],
      "stateMutability": "nonpayable",
      "type": "function"
    },
    {
      "inputs": [
        {
          "internalType": "address",
          "name": "newOwner",
          "type": "address"
        }
      ],
      "name": "transferOwnership",
      "outputs": [],
      "stateMutability": "nonpayable",
      "type": "function"
    },
    {
      "inputs": [],
      "name": "versionManager",
      "outputs": [
        {
          "internalType": "address",
          "name": "",
          "type": "address"
        }
      ],
      "stateMutability": "view",
      "type": "function"
    }
  ],
  "bytecode": "0x608060405234801561001057600080fd5b5061169b806100206000396000f3fe608060405234801561001057600080fd5b50600436106100cf5760003560e01c80638da5cb5b1161008c578063c187645311610066578063c1876453146103b5578063c4d66de81461040f578063f2fde38b14610453578063fff3f2c914610497576100cf565b80638da5cb5b146102ee578063a9ae68ac14610322578063aa6ca80814610356576100cf565b806313201385146100d45780634c62d8d51461012e5780636f5fac401461014e578063715018a6146101d1578063789af2c4146101db5780637dd4ca6414610235575b600080fd5b610116600480360360208110156100ea57600080fd5b81019080803573ffffffffffffffffffffffffffffffffffffffff1690602001909291905050506104cb565b60405180821515815260200191505060405180910390f35b61013661059b565b60405180821515815260200191505060405180910390f35b6101566105fa565b6040518080602001828103825283818151815260200191508051906020019080838360005b8381101561019657808201518184015260208101905061017b565b50505050905090810190601f1680156101c35780820380516001836020036101000a031916815260200191505b509250505060405180910390f35b6101d9610762565b005b61021d600480360360208110156101f157600080fd5b81019080803573ffffffffffffffffffffffffffffffffffffffff169060200190929190505050610776565b60405180821515815260200191505060405180910390f35b6102ec6004803603606081101561024b57600080fd5b81019080803573ffffffffffffffffffffffffffffffffffffffff1690602001909291908035906020019064010000000081111561028857600080fd5b82018360208201111561029a57600080fd5b803590602001918460208302840111640100000000831117156102bc57600080fd5b9091929391929390803573ffffffffffffffffffffffffffffffffffffffff169060200190929190505050610790565b005b6102f66108e0565b604051808273ffffffffffffffffffffffffffffffffffffffff16815260200191505060405180910390f35b61032a61090a565b604051808273ffffffffffffffffffffffffffffffffffffffff16815260200191505060405180910390f35b61035e610930565b6040518080602001828103825283818151815260200191508051906020019060200280838360005b838110156103a1578082015181840152602081019050610386565b505050509050019250505060405180910390f35b6103f7600480360360208110156103cb57600080fd5b81019080803573ffffffffffffffffffffffffffffffffffffffff169060200190929190505050610941565b60405180821515815260200191505060405180910390f35b6104516004803603602081101561042557600080fd5b81019080803573ffffffffffffffffffffffffffffffffffffffff16906020019092919050505061095e565b005b6104956004803603602081101561046957600080fd5b81019080803573ffffffffffffffffffffffffffffffffffffffff169060200190929190505050610a9e565b005b61049f610b22565b604051808273ffffffffffffffffffffffffffffffffffffffff16815260200191505060405180910390f35b60006104d561059b565b8061051957506104e3610b48565b73ffffffffffffffffffffffffffffffffffffffff166105016108e0565b73ffffffffffffffffffffffffffffffffffffffff16145b61058b576040517f08c379a00000000000000000000000000000000000000000000000000000000081526004018080602001828103825260198152602001807f63616c6c6572206973206e6f74204272696467655574696c730000000000000081525060200191505060405180910390fd5b61059482610b50565b9050919050565b6000609a60009054906101000a900473ffffffffffffffffffffffffffffffffffffffff1673ffffffffffffffffffffffffffffffffffffffff166105de610b48565b73ffffffffffffffffffffffffffffffffffffffff1614905090565b6060609b60009054906101000a900473ffffffffffffffffffffffffffffffffffffffff1673ffffffffffffffffffffffffffffffffffffffff166354fd4d506040518163ffffffff1660e01b815260040160006040518083038186803b15801561066457600080fd5b505afa158015610678573d6000803e3d6000fd5b505050506040513d6000823e3d601f19601f8201168201806040525060208110156106a257600080fd5b81019080805160405193929190846401000000008211156106c257600080fd5b838201915060208201858111156106d857600080fd5b82518660018202830111640100000000821117156106f557600080fd5b8083526020830192505050908051906020019080838360005b8381101561072957808201518184015260208101905061070e565b50505050905090810190601f1680156107565780820380516001836020036101000a031916815260200191505b50604052505050905090565b61076a610c55565b6107746000610cd3565b565b6000610780610c55565b61078982610d99565b9050919050565b610798610c55565b83609a60006101000a81548173ffffffffffffffffffffffffffffffffffffffff021916908373ffffffffffffffffffffffffffffffffffffffff16021790555080609b60006101000a81548173ffffffffffffffffffffffffffffffffffffffff021916908373ffffffffffffffffffffffffffffffffffffffff160217905550609a60009054906101000a900473ffffffffffffffffffffffffffffffffffffffff1673ffffffffffffffffffffffffffffffffffffffff167fb1cb4912c379ef5e9a531137b0ed823e71b0e5aed97cd3b2ae31d92771f4a3bc60405160405180910390a260005b838390508110156108d9576108c58484838181106108a3576108a26112b1565b5b9050602002013573ffffffffffffffffffffffffffffffffffffffff16610b50565b5080806108d190611319565b915050610882565b5050505050565b6000603360009054906101000a900473ffffffffffffffffffffffffffffffffffffffff16905090565b609a60009054906101000a900473ffffffffffffffffffffffffffffffffffffffff1681565b606061093c6098610e82565b905090565b6000610957826098610ea390919063ffffffff16565b9050919050565b60008060019054906101000a900460ff1615905080801561098f5750600160008054906101000a900460ff1660ff16105b806109bc575061099e30610ed3565b1580156109bb5750600160008054906101000a900460ff1660ff16145b5b6109fb576040517f08c379a00000000000000000000000000000000000000000000000000000000081526004016109f2906113e5565b60405180910390fd5b60016000806101000a81548160ff021916908360ff1602179055508015610a38576001600060016101000a81548160ff0219169083151502179055505b610a4182610ef6565b8015610a9a5760008060016101000a81548160ff0219169083151502179055507f7f26b83ff96e1f2b6a682f133852f6798a09c465da95921460cefb38474024986001604051610a919190611457565b60405180910390a15b5050565b610aa6610c55565b600073ffffffffffffffffffffffffffffffffffffffff168173ffffffffffffffffffffffffffffffffffffffff161415610b16576040517f08c379a0000000000000000000000000000000000000000000000000000000008152600401610b0d906114e4565b60405180910390fd5b610b1f81610cd3565b50565b609b60009054906101000a900473ffffffffffffffffffffffffffffffffffffffff1681565b600033905090565b60008073ffffffffffffffffffffffffffffffffffffffff168273ffffffffffffffffffffffffffffffffffffffff161415610bf4576040517f08c379a000000000000000000000000000000000000000000000000000000000815260040180806020018281038252600d8152602001807f696e76616c696420746f6b656e0000000000000000000000000000000000000081525060200191505060405180910390fd5b610c08826098610f9490919063ffffffff16565b508173ffffffffffffffffffffffffffffffffffffffff167f4391989ad9f3ad143d6104c7362fec581a9532178ff3dde7ae3bc1c024bbbc7960405160405180910390a260019050919050565b610c5d610b48565b73ffffffffffffffffffffffffffffffffffffffff16610c7b6108e0565b73ffffffffffffffffffffffffffffffffffffffff1614610cd1576040517f08c379a0000000000000000000000000000000000000000000000000000000008152600401610cc890611550565b60405180910390fd5b565b6000603360009054906101000a900473ffffffffffffffffffffffffffffffffffffffff16905081603360006101000a81548173ffffffffffffffffffffffffffffffffffffffff021916908373ffffffffffffffffffffffffffffffffffffffff1602179055508173ffffffffffffffffffffffffffffffffffffffff168173ffffffffffffffffffffffffffffffffffffffff167f8be0079c531659141344cd1fd0a4f28419497f9722a3daafe3b4186f6b6457e060405160405180910390a35050565b6000610daf826098610ea390919063ffffffff16565b610e21576040517f08c379a000000000000000000000000000000000000000000000000000000000815260040180806020018281038252600d8152602001807f696e76616c696420746f6b656e0000000000000000000000000000000000000081525060200191505060405180910390fd5b610e35826098610fc490919063ffffffff16565b508173ffffffffffffffffffffffffffffffffffffffff167f7303d4793b190122e9eaf43c7731dd005a8e719742fa06e294d584db4eb0256a60405160405180910390a260019050919050565b60606000610e9283600001610ff4565b905060608190508092505050919050565b6000610ecb836000018373ffffffffffffffffffffffffffffffffffffffff1660001b611050565b905092915050565b6000808273ffffffffffffffffffffffffffffffffffffffff163b119050919050565b600060019054906101000a900460ff16610f45576040517f08c379a0000000000000000000000000000000000000000000000000000000008152600401610f3c906115e2565b60405180910390fd5b610f4d611073565b8073ffffffffffffffffffffffffffffffffffffffff16610f6c610b48565b73ffffffffffffffffffffffffffffffffffffffff1614610f9157610f9081610cd3565b5b50565b6000610fbc836000018373ffffffffffffffffffffffffffffffffffffffff1660001b6110cc565b905092915050565b6000610fec836000018373ffffffffffffffffffffffffffffffffffffffff1660001b61113c565b905092915050565b60608160000180548060200260200160405190810160405280929190818152602001828054801561104457602002820191906000526020600020905b815481526020019060010190808311611030575b50505050509050919050565b600080836001016000848152602001908152602001600020541415905092915050565b600060019054906101000a900460ff166110c2576040517f08c379a00000000000000000000000000000000000000000000000000000000081526004016110b9906115e2565b60405180910390fd5b6110ca611250565b565b60006110d88383611050565b611131578260000182908060018154018082558091505060019003906000526020600020016000909190919091505582600001805490508360010160008481526020019081526020016000208190555060019050611136565b600090505b92915050565b6000808360010160008481526020019081526020016000205490506000811461124457600060018261116e9190611602565b90506000600186600001805490506111869190611602565b90508181146111f55760008660000182815481106111a7576111a66112b1565b5b90600052602060002001549050808760000184815481106111cb576111ca6112b1565b5b90600052602060002001819055508387600101600083815260200190815260200160002081905550505b8560000180548061120957611208611636565b5b60019003818190600052602060002001600090559055856001016000868152602001908152602001600020600090556001935050505061124a565b60009150505b92915050565b600060019054906101000a900460ff1661129f576040517f08c379a0000000000000000000000000000000000000000000000000000000008152600401611296906115e2565b60405180910390fd5b6112af6112aa610b48565b610cd3565b565b7f4e487b7100000000000000000000000000000000000000000000000000000000600052603260045260246000fd5b7f4e487b7100000000000000000000000000000000000000000000000000000000600052601160045260246000fd5b6000819050919050565b60006113248261130f565b91507fffffffffffffffffffffffffffffffffffffffffffffffffffffffffffffffff821415611357576113566112e0565b5b600182019050919050565b600082825260208201905092915050565b7f496e697469616c697a61626c653a20636f6e747261637420697320616c72656160008201527f647920696e697469616c697a6564000000000000000000000000000000000000602082015250565b60006113cf602e83611362565b91506113da82611373565b604082019050919050565b600060208201905081810360008301526113fe816113c2565b9050919050565b6000819050919050565b600060ff82169050919050565b6000819050919050565b600061144161143c61143784611405565b61141c565b61140f565b9050919050565b61145181611426565b82525050565b600060208201905061146c6000830184611448565b92915050565b7f4f776e61626c653a206e6577206f776e657220697320746865207a65726f206160008201527f6464726573730000000000000000000000000000000000000000000000000000602082015250565b60006114ce602683611362565b91506114d982611472565b604082019050919050565b600060208201905081810360008301526114fd816114c1565b9050919050565b7f4f776e61626c653a2063616c6c6572206973206e6f7420746865206f776e6572600082015250565b600061153a602083611362565b915061154582611504565b602082019050919050565b600060208201905081810360008301526115698161152d565b9050919050565b7f496e697469616c697a61626c653a20636f6e7472616374206973206e6f74206960008201527f6e697469616c697a696e67000000000000000000000000000000000000000000602082015250565b60006115cc602b83611362565b91506115d782611570565b604082019050919050565b600060208201905081810360008301526115fb816115bf565b9050919050565b600061160d8261130f565b91506116188361130f565b92508282101561162b5761162a6112e0565b5b828203905092915050565b7f4e487b7100000000000000000000000000000000000000000000000000000000600052603160045260246000fdfea264697066735822122061c6effc1ab739b044e85a1862ab5f69888b45756dd363922583c061d85586b064736f6c63430008090033",
  "linkReferences": {},
  "deployedLinkReferences": {}
}