{
  "_format": "hh-sol-artifact-1",
  "contractName": "VersionManager",
  "sourceName": "contracts/VersionManager.sol",
  "abi": [
    {
      "anonymous": false,
      "inputs": [
        {
          "indexed": false,
          "internalType": "uint8",
          "name": "version",
          "type": "uint8"
        }
      ],
      "name": "Initialized",
      "type": "event"
    },
    {
      "anonymous": false,
      "inputs": [
        {
          "indexed": true,
          "internalType": "address",
          "name": "previousOwner",
          "type": "address"
        },
        {
          "indexed": true,
          "internalType": "address",
          "name": "newOwner",
          "type": "address"
        }
      ],
      "name": "OwnershipTransferred",
      "type": "event"
    },
    {
      "anonymous": false,
      "inputs": [
        {
          "indexed": false,
          "internalType": "string",
          "name": "version",
          "type": "string"
        }
      ],
      "name": "VersionUpdate",
      "type": "event"
    },
    {
      "inputs": [
        {
          "internalType": "address",
          "name": "owner",
          "type": "address"
        }
      ],
      "name": "initialize",
      "outputs": [],
      "stateMutability": "nonpayable",
      "type": "function"
    },
    {
      "inputs": [],
      "name": "owner",
      "outputs": [
        {
          "internalType": "address",
          "name": "",
          "type": "address"
        }
      ],
      "stateMutability": "view",
      "type": "function"
    },
    {
      "inputs": [],
      "name": "renounceOwnership",
      "outputs": [],
      "stateMutability": "nonpayable",
      "type": "function"
    },
    {
      "inputs": [
        {
          "internalType": "string",
          "name": "_version",
          "type": "string"
        }
      ],
      "name": "setVersion",
      "outputs": [],
      "stateMutability": "nonpayable",
      "type": "function"
    },
    {
      "inputs": [
        {
          "internalType": "address",
          "name": "newOwner",
          "type": "address"
        }
      ],
      "name": "transferOwnership",
      "outputs": [],
      "stateMutability": "nonpayable",
      "type": "function"
    },
    {
      "inputs": [],
      "name": "version",
      "outputs": [
        {
          "internalType": "string",
          "name": "",
          "type": "string"
        }
      ],
      "stateMutability": "view",
      "type": "function"
    }
  ],
  "bytecode": "0x608060405234801561001057600080fd5b50610cf4806100206000396000f3fe608060405234801561001057600080fd5b50600436106100625760003560e01c806354fd4d5014610067578063715018a6146100ea578063788bc78c146100f45780638da5cb5b1461016d578063c4d66de8146101a1578063f2fde38b146101e5575b600080fd5b61006f610229565b6040518080602001828103825283818151815260200191508051906020019080838360005b838110156100af578082015181840152602081019050610094565b50505050905090810190601f1680156100dc5780820380516001836020036101000a031916815260200191505b509250505060405180910390f35b6100f26102b7565b005b61016b6004803603602081101561010a57600080fd5b810190808035906020019064010000000081111561012757600080fd5b82018360208201111561013957600080fd5b8035906020019184600183028401116401000000008311171561015b57600080fd5b90919293919293905050506102cb565b005b610175610393565b604051808273ffffffffffffffffffffffffffffffffffffffff16815260200191505060405180910390f35b6101e3600480360360208110156101b757600080fd5b81019080803573ffffffffffffffffffffffffffffffffffffffff1690602001909291905050506103bd565b005b610227600480360360208110156101fb57600080fd5b81019080803573ffffffffffffffffffffffffffffffffffffffff169060200190929190505050610549565b005b60668054610236906109ec565b80601f0160208091040260200160405190810160405280929190818152602001828054610262906109ec565b80156102af5780601f10610284576101008083540402835291602001916102af565b820191906000526020600020905b81548152906001019060200180831161029257829003601f168201915b505050505081565b6102bf6105cd565b6102c9600061064b565b565b6102d36105cd565b8181606691906102e4929190610894565b507f0906cc57db3d7e2ba7b67825023c149f56c98c9de1fcf2bb5d7b5e44427f903b60666040518080602001828103825283818154610322906109ec565b815260200191508054610334906109ec565b80156103815780601f1061035657610100808354040283529160200191610381565b820191906000526020600020905b81548152906001019060200180831161036457829003601f168201915b50509250505060405180910390a15050565b6000603360009054906101000a900473ffffffffffffffffffffffffffffffffffffffff16905090565b60008060019054906101000a900460ff161590508080156103ee5750600160008054906101000a900460ff1660ff16105b8061041b57506103fd30610711565b15801561041a5750600160008054906101000a900460ff1660ff16145b5b61045a576040517f08c379a000000000000000000000000000000000000000000000000000000000815260040161045190610aa1565b60405180910390fd5b60016000806101000a81548160ff021916908360ff1602179055508015610497576001600060016101000a81548160ff0219169083151502179055505b6040518060400160405280600581526020017f302e382e33000000000000000000000000000000000000000000000000000000815250606690805190602001906104e292919061091a565b506104ec82610734565b80156105455760008060016101000a81548160ff0219169083151502179055507f7f26b83ff96e1f2b6a682f133852f6798a09c465da95921460cefb3847402498600160405161053c9190610b13565b60405180910390a15b5050565b6105516105cd565b600073ffffffffffffffffffffffffffffffffffffffff168173ffffffffffffffffffffffffffffffffffffffff1614156105c1576040517f08c379a00000000000000000000000000000000000000000000000000000000081526004016105b890610ba0565b60405180910390fd5b6105ca8161064b565b50565b6105d56107d2565b73ffffffffffffffffffffffffffffffffffffffff166105f3610393565b73ffffffffffffffffffffffffffffffffffffffff1614610649576040517f08c379a000000000000000000000000000000000000000000000000000000000815260040161064090610c0c565b60405180910390fd5b565b6000603360009054906101000a900473ffffffffffffffffffffffffffffffffffffffff16905081603360006101000a81548173ffffffffffffffffffffffffffffffffffffffff021916908373ffffffffffffffffffffffffffffffffffffffff1602179055508173ffffffffffffffffffffffffffffffffffffffff168173ffffffffffffffffffffffffffffffffffffffff167f8be0079c531659141344cd1fd0a4f28419497f9722a3daafe3b4186f6b6457e060405160405180910390a35050565b6000808273ffffffffffffffffffffffffffffffffffffffff163b119050919050565b600060019054906101000a900460ff16610783576040517f08c379a000000000000000000000000000000000000000000000000000000000815260040161077a90610c9e565b60405180910390fd5b61078b6107da565b8073ffffffffffffffffffffffffffffffffffffffff166107aa6107d2565b73ffffffffffffffffffffffffffffffffffffffff16146107cf576107ce8161064b565b5b50565b600033905090565b600060019054906101000a900460ff16610829576040517f08c379a000000000000000000000000000000000000000000000000000000000815260040161082090610c9e565b60405180910390fd5b610831610833565b565b600060019054906101000a900460ff16610882576040517f08c379a000000000000000000000000000000000000000000000000000000000815260040161087990610c9e565b60405180910390fd5b61089261088d6107d2565b61064b565b565b8280546108a0906109ec565b90600052602060002090601f0160209004810192826108c25760008555610909565b82601f106108db57803560ff1916838001178555610909565b82800160010185558215610909579182015b828111156109085782358255916020019190600101906108ed565b5b50905061091691906109a0565b5090565b828054610926906109ec565b90600052602060002090601f016020900481019282610948576000855561098f565b82601f1061096157805160ff191683800117855561098f565b8280016001018555821561098f579182015b8281111561098e578251825591602001919060010190610973565b5b50905061099c91906109a0565b5090565b5b808211156109b95760008160009055506001016109a1565b5090565b7f4e487b7100000000000000000000000000000000000000000000000000000000600052602260045260246000fd5b60006002820490506001821680610a0457607f821691505b60208210811415610a1857610a176109bd565b5b50919050565b600082825260208201905092915050565b7f496e697469616c697a61626c653a20636f6e747261637420697320616c72656160008201527f647920696e697469616c697a6564000000000000000000000000000000000000602082015250565b6000610a8b602e83610a1e565b9150610a9682610a2f565b604082019050919050565b60006020820190508181036000830152610aba81610a7e565b9050919050565b6000819050919050565b600060ff82169050919050565b6000819050919050565b6000610afd610af8610af384610ac1565b610ad8565b610acb565b9050919050565b610b0d81610ae2565b82525050565b6000602082019050610b286000830184610b04565b92915050565b7f4f776e61626c653a206e6577206f776e657220697320746865207a65726f206160008201527f6464726573730000000000000000000000000000000000000000000000000000602082015250565b6000610b8a602683610a1e565b9150610b9582610b2e565b604082019050919050565b60006020820190508181036000830152610bb981610b7d565b9050919050565b7f4f776e61626c653a2063616c6c6572206973206e6f7420746865206f776e6572600082015250565b6000610bf6602083610a1e565b9150610c0182610bc0565b602082019050919050565b60006020820190508181036000830152610c2581610be9565b9050919050565b7f496e697469616c697a61626c653a20636f6e7472616374206973206e6f74206960008201527f6e697469616c697a696e67000000000000000000000000000000000000000000602082015250565b6000610c88602b83610a1e565b9150610c9382610c2c565b604082019050919050565b60006020820190508181036000830152610cb781610c7b565b905091905056fea264697066735822122091c3f4457ac92ec10c3fbd6bd040ba06f5ac28e9ce12424da9ca5d867de8fe0c64736f6c63430008090033",
  "linkReferences": {},
  "deployedLinkReferences": {}
}